S0130000666C6173686C6F616465722E737265638C
S3152000200068622120CD5101207B24002059330120F4
S315200020107B2400207B2400207B240020000000005D
S315200020200000000000000000000000007B240020CB
S315200020307B240020000000007B2400207B2400203D
S31520002040F5510120FD510120055201200D5201209C
S31520002050155201201D520120255201202D5201200A
S31520002060355201203D520120455201204D5201207A
S31520002070555201205D520120655201206D520120EA
S3152000208075520120F5640120F5640120F5640120D4
S31520002090AD4B01207D520120855201208D52012019
S315200020A0955201209D520120A5520120AD520120BA
S315200020B0B5520120BD520120C5520120CD5201202A
S315200020C0D5520120DD520120E5520120ED5201209A
S315200020D0F5520120FD520120F5640120F56401200E
S315200020E0F5640120F5640120F5640120F5640120E2
S315200020F0F5640120F5640120F5640120F5640120D2
S31520002100F5640120F5640120F5640120F5640120C1
S31520002110F5640120F5640120F5640120F5640120B1
S31520002120055301200D530120155301201D53012075
S3152000213025530120F5640120F5640120F564012072
S31520002140F5640120F5640120F5640120F564012081
S31520002150F5640120F5640120F5640120F564012071
S31520002160F5640120F5640120F5640120F564012061
S31520002170F5640120F5640120F5640120F564012051
S31520002180F5310020F5640120F5640120F564012075
S31520002190F5640120F5640120F5640120F564012031
S315200021A0F5640120F56401202D53012035530120CB
S315200021B0F5640120F5640120F5640120F564012011
S315200021C0F5640120F5640120F5640120F564012001
S315200021D0F5640120F5640120F5640120F5640120F1
S315200021E0F5640120F5640120F56401203D530120AA
S315200021F045530120F56401204D53012055530120FC
S31520002200F5640120716401205D530120655301208E
S31520002210F5640120F5640120F5640120F5640120B0
S31520002220F5640120F5640120F5640120F5640120A0
S31520002230F5640120F5640120F5640120F564012090
S31520002240F5640120F5640120F5640120F564012080
S31520002250F5640120F5640120F5640120F564012070
S31520002260F5640120F5640120F5640120F564012060
S31520002270F5640120F5640120F5640120F564012050
S31520002280F5640120F5640120F5640120F564012040
S31520002290F5640120F5640120F5640120F564012030
S315200022A06D530120755301207D530120F5640120D3
S315200022B085530120F5640120F5640120F564012091
S315200022C0F5640120F5640120F5640120F564012000
S315200022D0F5640120F5640120F5640120F5640120F0
S315200022E0F5640120F5640120F5640120F5640120E0
S315200022F0F5640120F5640120F5640120F5640120D0
S31520002300F5640120F5640120F5640120F5640120BF
S31520002310F5640120F5640120F5640120F5640120AF
S31520002320F5640120F5640120F5640120F56401209F
S31520002330F5640120F5640120F5640120F56401208F
S31520002340F5640120F5640120F5640120F56401207F
S31520002350F5640120F5640120F5640120F56401206F
S31520002360F5640120F5640120F5640120F56401205F
S31520002370F5640120F5640120F5640120F56401204F
S31520002380F5640120F5640120F5640120F56401203F
S31520002390F5640120F5640120F5640120F56401202F
S315200023A0F5640120F5640120F5640120F56401201F
S315200023B0F5640120F5640120F5640120F56401200F
S315200023C0F5640120F5640120F5640120F5640120FF
S315200023D0F5640120F5640120F5640120F5640120EF
S315200023E0F5640120F5640120F5640120F5640120DF
S315200023F0F5640120F5640120F5640120FFFFFFFF4D
S31520002400002A01D101207047F0B41F460346032459
S315200024102340002B09D00424E31A0170013008243C
S31520002420E141521E26D05B1EF7D1042A1ADB13D0B7
S31520002430002F11D00C460D460E46102A02DB72C024
S31520002440103AFAE70C2A02DB32C00C3AFAE7082ADD
S3152000245002DB12C0083AFAE7042A03DB01600430E3
S31520002460121FF9E7002A05D0017001300824E14146
S31520002470521EF7D1F0BC00207047FEE7373A002005
S3152000248000000000893A0020000000008F3B002059
S31520002490293D00201B3B00202F3C0020073E00202A
S315200024A0000000000000000000000000C13A0020EB
S315200024B000000000993A00202F3C0020273E0020F3
S315200024C000000000813E002000000000ED390020C1
S315200024D000000000F13A002000000000000000008B
S315200024E000000000A53E002000000000F33E002072
S315200024F0000000000000000000000000073B002054
S31520002500000000000000000000000000353B002015
S31520002510193C002000000000000000000000000020
S31520002520000000000100000001000000DF31002053
S31520002530CC2B0020DC2B0020AC2E0020100000002D
S3152000254001000000000000003C2F002000000000D9
S315200025504C2F0020000000000000000000000000BA
S315200025600000000000000000000000000000000045
S31520002570B71DC1046E3B8209D926430DDC760413B0
S315200025806B6BC517B24D861A0550471EB8ED082647
S315200025900FF0C922D6D68A2F61CB4B2B649B0C35E4
S315200025A0D386CD310AA08E3CBDBD4F3870DB114C91
S315200025B0C7C6D0481EE09345A9FD5241ACAD155F74
S315200025C01BB0D45BC2969756758B5652C836196A7D
S315200025D07F2BD86EA60D9B6311105A6714401D7968
S315200025E0A35DDC7D7A7B9F70CD665E74E0B6239812
S315200025F057ABE29C8E8DA191399060953CC0278B7C
S315200026008BDDE68F52FBA582E5E66486585B2BBE02
S31520002610EF46EABA3660A9B7817D68B3842D2FAD1F
S315200026203330EEA9EA16ADA45D0B6CA0906D32D4C2
S315200026302770F3D0FE56B0DD494B71D94C1B36C7F7
S31520002640FB06F7C32220B4CE953D75CA28803AF200
S315200026509F9DFBF646BBB8FBF1A679FFF4F63EE15B
S3152000266043EBFFE59ACDBCE82DD07DEC7770863420
S31520002670C06D4730194B043DAE56C539AB0682278F
S315200026801C1B4323C53D002E7220C12ACF9D8E12CE
S3152000269078804F16A1A60C1B16BBCD1F13EB8A0103
S315200026A0A4F64B057DD00808CACDC90C07AB977890
S315200026B0B0B6567C69901571DE8DD475DBDD936BD3
S315200026C06CC0526FB5E6116202FBD066BF469F5EB4
S315200026D0085B5E5AD17D1D576660DC5363309B4D87
S315200026E0D42D5A490D0B1944BA16D84097C6A5AC15
S315200026F020DB64A8F9FD27A54EE0E6A14BB0A1BFDB
S31520002700FCAD60BB258B23B69296E2B22F2BAD8A09
S3152000271098366C8E41102F83F60DEE87F35DA999BE
S315200027204440689D9D662B902A7BEA94E71DB4E081
S31520002730500075E4892636E93E3BF7ED3B6BB0F356
S315200027408C7671F7555032FAE24DF3FE5FF0BCC637
S31520002750E8ED7DC231CB3ECF86D6FFCB8386B8D57A
S31520002760349B79D1EDBD3ADC5AA0FBD8EEE00C695A
S3152000277059FDCD6D80DB8E6037C64F643296087A60
S31520002780858BC97E5CAD8A73EBB04B77560D044FB3
S31520002790E110C54B383686468F2B47428A7B005C34
S315200027A03D66C158E4408255535D43519E3B1D25ED
S315200027B02926DC21F0009F2C471D5E28424D193624
S315200027C0F550D8322C769B3F9B6B5A3B26D6150369
S315200027D091CBD40748ED970AFFF0560EFAA01110B8
S315200027E04DBDD014949B93192386521D0E562FF15E
S315200027F0B94BEEF5606DADF8D7706CFCD2202BE2AC
S31520002800653DEAE6BC1BA9EB0B0668EFB6BB27D7EE
S3152000281001A6E6D3D880A5DE6F9D64DA6ACD23C4EF
S31520002820DDD0E2C004F6A1CDB3EB60C97E8D3EBDFE
S31520002830C990FFB910B6BCB4A7AB7DB0A2FB3AAE27
S3152000284015E6FBAACCC0B8A77BDD79A3C660369B6C
S31520002850717DF79FA85BB4921F4675961A1632882B
S31520002860AD0BF38C742DB081C330718599908A5D40
S315200028702E8D4B59F7AB085440B6C95045E68E4EBF
S31520002880F2FB4F4A2BDD0C479CC0CD43217D827B3A
S315200028909660437F4F460072F85BC176FD0B8668D3
S315200028A04A16476C93300461242DC565E94B9B116C
S315200028B05E565A1587701918306DD81C353D9F0203
S315200028C082205E065B061D0BEC1BDC0F51A69337A0
S315200028D0E6BB52333F9D113E8880D03A8DD0972457
S315200028E03ACD5620E3EB152D54F6D4297926A9C5E1
S315200028F0CE3B68C1171D2BCCA000EAC8A550ADD68B
S31520002900124D6CD2CB6B2FDF7C76EEDBC1CBA1E3F5
S3152000291076D660E7AFF023EA18EDE2EE1DBDA5F00E
S31520002920AAA064F4738627F9C49BE6FD09FDB8893D
S31520002930BEE0798D67C63A80D0DBFB84D58BBC9A06
S3152000294062967D9EBBB03E930CADFF97B110B0AFA3
S31520002950060D71ABDF2B32A66836F3A26D66B4BCCA
S31520002960DA7B75B8035D36B5B440F7B109000000CF
S31520002970D146002001010000CB4F002008000000B6
S31520002980D157002000010000EF5E0020100100005A
S315200029906D680020200100002B740020210100001A
S315200029A05D6E002000000000000000005A04180898
S315200029B00830FF2400000000000000005A05180916
S315200029C00831FF2500000000000000005A06180A02
S315200029D00832FF2600000000000000000000000072
S315200029E00000000000000000000000009F040324F7
S315200029F00000000000000000000000009F076007A4
S31520002A00200B042700000000000000009F8760873D
S31520002A10208B04A700000000000000005A041808BC
S31520002A200830FF2400000000000000005A06180AA3
S31520002A30FF26000000000000000000005A07180BC7
S31520002A40FF27000000000000000000005A06188A38
S31520002A50FFA6000000000000000000005A07208B9F
S31520002A60FFA700000000000000000000A940002091
S31520002A70A3430020C743002049440020E14400200E
S31520002A80E5450020AD4000200000000000000000C9
S31520002A9000801B4000C01B4000001C4000401C4022
S31520002AA000000C400000004200400042008000422E
S31520002AB000C000420000000000401840008018407E
S31520002AC000C01840000019400040194000801940FD
S31520002AD000C0194000001A40000000000A00000053
S31520002AE00C0000000D0000000F0000001400000084
S31520002AF01A0000001E00000023000000280000002D
S31520002B002D00000034000000370000003C000000CB
S31520002B1046000000500000008000000080000000F9
S31520002B20000100008000000040000000400100007D
S31520002B3080000000000100008000000080000000EE
S31520002B40200000006001000040000000800000001E
S31520002B50400100004000000000010000C00000000D
S31520002B6000000000BA010000400000000001000043
S31520002B7080000000800000000001000040000000EE
S31520002B80C0000000C000000000010000400000005E
S31520002B90C00100000000000040000000000000000E
S31520002BA080000000800100002000000020000000BE
S31520002BB0C00100000000000000010000000100002C
S31520002BC0000000000000000000020000D14A0120A1
S31520002BD04F4B0120694B012000000000000000003F
S31520002BE09B4B0120D37C00201D7A0020777A002081
S31520002BF05F7B00209B7B0020AB7B0020F77A0020A8
S31520002C00916900206B6C0020056D0020D56D002099
S31520002C10EF690020B76D0020C96D0020216E0020CD
S31520002C2000555603590C0F5A5A0F0C590356550086
S31520002C30653033663C696A3F3F6A693C6633306576
S31520002C40663330653F6A693C3C696A3F6530336666
S31520002C50035655005A0F0C59590C0F5A0055560356
S31520002C60693C3F6A30656633336665306A3F3C6946
S31520002C700C595A0F55000356560300550F5A590C36
S31520002C800F5A590C56030055550003560C595A0F26
S31520002C906A3F3C693366653030656633693C3F6A16
S31520002CA06A3F3C693366653030656633693C3F6A06
S31520002CB00F5A590C56030055550003560C595A0FF6
S31520002CC00C595A0F55000356560300550F5A590CE6
S31520002CD0693C3F6A30656633336665306A3F3C69D6
S31520002CE0035655005A0F0C59590C0F5A00555603C6
S31520002CF0663330653F6A693C3C696A3F65303366B6
S31520002D00653033663C696A3F3F6A693C66333065A5
S31520002D1000555603590C0F5A5A0F0C590356550095
S31520002D208F880020BDC70020C9C70020D9C7002032
S31520002D30000000000000000000000000000000006D
S31520002D40D94B0120094C0120BB4C01208B4D012081
S31520002D50C0B92020ED6F00204B720020E5720020C4
S31520002D60B57300202B70002097730020A9730020D4
S31520002D70F1730020000000000000000000000000A9
S31520002D80000000040804080001210621212100007A
S31520002D900204020400011003211021000002040293
S31520002DA0020001100321102100000103010200018D
S31520002DB0100321102100000102010100011003214E
S31520002DC01021000001020101000110032110210041
S31520002DD00000000000000000000000004D494352A2
S31520002DE04F4E2020202020205350414E53494F4EF5
S31520002DF02020202053414D53554E4720202020206F
S31520002E0057494E424F4E44202020202048594E49B3
S31520002E105820202020202020544F5348494241202A
S31520002E20202020204D4143524F4E4958202020201B
S31520002E30000000000000000000000000655800208F
S31520002E40C55B0020B75C0020C35D0020E958002048
S31520002E50B95E0020CB5E00200000000000000000CC
S31520002E600E000A0000000000420021000A009C001B
S31520002E700A00000000000000070005000000000016
S31520002E80280014000500600007000000D153002030
S31520002E900156002017560020AD5600202B57002043
S31520002EA04F57002000000000000000007D4E01204A
S31520002EB0834E01206D4F012007500120814E0120B5
S31520002EC0135001205D4E0120B1630020BB6300201A
S31520002ED0D5630020A36400204D65002051640020A6
S31520002EE00000000000000000B1470020DD4B00205C
S31520002EF00D4D0020E34E002089480020A54E0020DD
S31520002F00B74E002000000000F1430120814401203B
S31520002F10000000008144012000000000234501201C
S31520002F207F450120000000007F460120DB4601206E
S31520002F30454701209B470120E1470120E960012008
S31520002F40F9610120A5620120096301201763012090
S31520002F503B630120BF630120576401206764012081
S31520002F606B6401200000000038B504465B4D00204C
S31520002F70A865C5E90E00C5E91000C5E91200E86597
S31520002F80574800F0EFF8C5E9140120460FF2B901C1
S31520002F90BDE8344000F03CB900F050B9F8B50C4615
S31520002FA04E4EB16D072904BFF26D904249D10021E2
S31520002FB006EB8102491C536815685B1B0329D36104
S31520002FC0F6D3756AF76972693169B369511AB162C4
S31520002FD09A1A64235D43F262B5FBF7F73C3F0E2F46
S31520002FE010D2376AB5FBF7F5403D052D0AD859436F
S31520002FF0B1FBF2F2813A0A2A3EBFB1FBF7F18139E1
S315200030000A2902D3FFF7B0FF1BE000F0F5FA0546C8
S31520003010C5EB0515D6E90E23D6E9100182184FF423
S315200030209666B5FBF2F00A250A2368434FF49662AA
S31520003030B0FBF6F6761D0020B6FBF3F35343236070
S31520003040F2BD0120F2BD00002DE9F8430746234ECC
S3152000305000F07EF8D6E9125904468846B26DD6E9C4
S315200030601401521C651B68EB09094945B26505D850
S3152000307028BFA84202D20122B26508E0012A06D062
S31520003080042A0AD0052A10D0072A11D01AE0C6E948
S315200030900C48C6E90E48F76514E0D6E90E01201A59
S315200030A068EB0101C6E90E010CE0C6E9104809E00B
S315200030B0D6E91001201A68EB0101C6E9100138464D
S315200030C000F0BCF8B26D06EB8203D6E90C01271A94
S315200030D043F8047CC6E91248BDE8F183009C202011
S315200030E08038010010B5304951E8002F42F4405293
S315200030F041E800200028F7D12C49002208602C48FE
S315200031004FF0FF31012301618261C361846944F07C
S3152000311004048461826942F0010282610160C36015
S31520003120836000F069FAC0002249B0FBF1F000B9D3
S315200031300120214A906010BD1D48002181618160D7
S31520003140016101601948026842F00202026070477C
S3152000315081B01A48016842680092009801B0C943BC
S31520003160C043704714498A68A2FB0001C00840EAA0
S315200031704170C908704738B50446FFF7E9FF00F0EB
S315200031800BF8241841EBD505FFF7E2FFA942FBD344
S3152000319001D8A042F8D331BD074A9368A3FB044562
S315200031A0E40844EA457470476CC00F40004008406C
S315200031B00041084040420F00609C2020E04008402B
S315200031C00901020002D4284881547047274B02F097
S315200031D00F021A4402F8041C704700F0E5BA19B130
S315200031E0022905D002D3704700F077BB00F028BB38
S315200031F000F047BB10B51E4C2068800407D51D493A
S31520003200496821B1012088474FF40051216010BD43
S3152000321010B5184B184C596004220D212046FFF793
S31520003220DCFF63690121502043F400536361FFF7FB
S31520003230C7FF4FF480301149086010BD80B54FF4A8
S3152000324080300F490860BFF34F8FBFF36F8F002187
S315200032505020FFF7B5FF00220D210748FFF7BDFFDD
S3152000326000200449486001BD00E400E018ED00E0BC
S3152000327018801B40B8B9202000801B4008E100E0E0
S3152000328088E100E0002808BF00F023B87047DFF887
S31520003290A003DFF8A02301684FF0004341F00301AB
S315200032A0016040201060DFF8900383634FF0804177
S315200032B0816300220260DFF88403036843F4C013AD
S315200032C00360DFF87C03016849084900016001209A
S315200032D0704770B5DFF86C03DFF86C130860DFF811
S315200032E06C03026901230068520D02F0030203FAFF
S315200032F002F2DFF85C331968C0F38000002841F43D
S31520003300803119601C6B44F480341C63196941F4C4
S315200033108031196114BFDFF83C13DFF83C131960C4
S3152000332019680029FCD51D6B25F480551D63196B82
S315200033300029FCD5DFF82443DFF8241325694FF450
S31520003340405625F03F350D4325611E611969002938
S31520003350FCD51E69DFF80C1326F480361E6125681D
S31520003360012625F03F350D4300282560DFF8F84279
S31520003370DFF8F8122660DFF8F8620CBFDFF8F402F7
S31520003380DFF8F402B0FBF2F00860012100E0491CEE
S31520003390B0FBF1F5B542FAD26568491EB7480E046E
S315200033A0521E06F4E02605409202354302F4E0520E
S315200033B009022A4301F440710A4362606069B04AF7
S315200033C0C009C00140F003006061A168AD4811400A
S315200033D00143A160A568AC49AC480D4045F0A05515
S315200033E0A560E268024042F0C74242F00102E26074
S315200033F0E16841F44031E160606920F4E72040F45F
S3152000340084306061196821F480311960186B20F4CA
S3152000341080301863196921F48031196170BDFBE091
S31520003420012A2DE9FF41044651D800294FD0012C0D
S315200034304DD88A4D964F28688309002CA3A007BF34
S315200034407E6826F060763E6826F06046012A08BF30
S315200034500FF290200B2928BF012100EB410210F822
S31520003460110000BFA5A15278521E002C00F03F008B
S3152000347040EA8318684603BFD20502F060721643FD
S3152000348046EA427691E80C1080E80C105DF824009C
S31520003490016841F002010160204600F026F8296803
S315200034A0884518BFC5F8008024B97868864205D0BB
S315200034B07E6003E039688E4218BF3E60204600F0E9
S315200034C008F85DF82400016821F002010160BDE8DA
S315200034D0FF81574920B9086840F44060086070476A
S315200034E04A6842F00C024A607047514920B9086880
S315200034F020F44060086070474A6822F00C024A6057
S31520003500704730B5594C002300202468614D19B10D
S3152000351002290AD002D318E0234617E02968C1F30E
S315200035200121491CB4FBF1F310E04C495A4C0968BF
S31520003530AB6801F03F01B4FBF1F512214D43C3F313
S31520003540C251491CB5FBF1F300E00420136030BDE5
S31520003550042011B15148086000207047F0B54D494C
S3152000356006280A684FF4E0254FF4C0264FF490173A
S315200035704FF4003E42F040020A600B68484A23F0AE
S3152000358080030B6013680C6823F47C1324F4E02476
S3152000359018D8DFE800F004070A170E1114004FF4BC
S315200035A00C170FE04FF4081701E04FF4D8173546F3
S315200035B008E04FF4E81704E04FF4403502E04FF4FA
S315200035C09817754610683B432C43834218BF1360F7
S315200035D00A68944203D00C604B6BD807FCD4F0BD2C
S315200035E03048016841F03001016070472D4801687C
S315200035F021F030010160704726481C4A0168806826
S315200036001368C1F30121491C00F03F00401CB3FBA5
S31520003610F1F1B1FBF0F070471E48144900680A68C2
S31520003620C0F30120401CB2FBF0F070470000000000
S3152000363080C00F4014800D4000900D40B0810D4099
S3152000364040012E4000366E0128B1202060441F40E4
S3152000365000800D405820010042200100F0800D40DE
S315200036601818131823231A0F10C00F40F88520208E
S3152000367001449508007B9A1700A4781FFFE0F8FF05
S31520003680FFFCF31F00010CE0CFFFFFE380FF7F9CD0
S3152000369018C00F4014C00F4000389C1C80F5E40968
S315200036A000810D4074C00F4038B504460D4602E037
S315200036B00120FFF760FD20462946441E61F10005E2
S315200036C0002908BF0028F3D131BD000000002208E0
S315200036D0160818061E0412060C0712040D050D0402
S315200036E0160200000000180616040C061E0212031D
S315200036F01502120221010D021601000000802A4047
S315200037000000000000402A40F8B506460C46154643
S3152000371000201E4951F82020B24202D0401C0A281F
S31520003720F8D3062880F0178039A131F9100010F15E
S31520003730010F10D000F01F010322154B000A02FAD8
S3152000374001F103EB800353E8007F8F430F4343E8E7
S3152000375000700028F7D10127A7407269F9430A4073
S315200037607261287818B973681940716007E06A7821
S315200037702146304600F00EF873681F437760AA781A
S3152000378021463046BDE8F8400EE000008C2A002095
S3152000379068C00F40012303FA01F184300AB9416061
S315200037A07047016070470000F0B5C369012404FA30
S315200037B001F5AB431029C36132BF00F10C0300F1C0
S315200037C010031039490003268E40F743521E042A5F
S315200037D01DD8DFE802F003070D1519001868074009
S315200037E01F60F0BD1A688C4017403C431C60F0BD3A
S315200037F01C68022505FA01F1274039431960F0BDFE
S31520003800186806431E60F0BDC1690D43C561F0BD51
S31520003810FFFF1A011E001A020C031E0110B5039C9D
S3152000382001F00F01240104F010042143016002B1CC
S31520003830136010BD009808B101990160704700001F
S315200038403EB500BF3BA302AA1C680D210294334853
S31520003850FFF75AFF0021324C324D0191009500238B
S31520003860002205212046FFF7D9FF00F052F849F241
S31520003870B00000950190002305212046FFF7DAFFCE
S3152000388037BD2DE9FC41DFF8A080284D00260095A4
S3152000389001960023002202214046214EFFF7BEFF5B
S315200038A0204F00220192002300970221304647F242
S315200038B0B004FFF7B3FF01940023009500220221F4
S315200038C04046FFF7B7FF0194002300970022052109
S315200038D03046FFF7AFFFBDE8F381E0B5002013497E
S315200038E0019000230091002205210F48FFF796FF43
S315200038F00C4A002300920022019305210848FFF775
S315200039008DFF00F006F8094841F2B00101604160E0
S3152000391007BD0748002201680260704700801B40EF
S31520003920F0801F40E0821F40EC801F40DC821F4059
S3152000393068C00A4000000000DFF8B81600200A69B7
S31520003940D36818607047F8B5DFF8A8660024F069D8
S315200039508DF800404569002D46D03169C9680F6849
S31520003960012F30D06C6801F108020023091DA04701
S3152000397004001FBF42F21270844242F213718C423D
S3152000398032D13069C268916800292DD054682378D5
S315200039901D0007D0162B05DA806800EBC305A5F1BC
S315200039A0080000E00020002810631CBF0268002ADF
S315200039B003D020460024904712E042F210741946A4
S315200039C000F095FA10E0086B58B1416811B16846CD
S315200039D0884704460CB1002003E09DF8000000B1A2
S315200039E001203169CA6810602046F2BD01780020A6
S315200039F000F095FADFF8FC25D06941690A699047FD
S31520003A00022000F005FBBFF34F8FDFF8EC15DFF83F
S31520003A10EC050A6802F4E06202430A60BFF34F8FA6
S31520003A2000BFFDE7DFF8CC0524210269D36803F146
S31520003A300C0000F019BB10B504466068083812D097
S31520003A40401E0AD0F73811D0401E09D00F3810D0AA
S31520003A50103814D0401E0FD014E000F007FE12E0FC
S31520003A6001F08EFA0FE001F0A7FE0CE002F0F7F964
S31520003A7009E002F02FFD06E003F0D2F903E003F09F
S31520003A80B7FC00E0042044E0DFF8683570B500F0AC
S31520003A90C4F9AE69B047BCE110B500F076F8DFF89E
S31520003AA0540562680169C8680821026180F82010FF
S31520003AB02178002000F033FABDE8104003F012BF51
S31520003AC07CB5DFF830450022E568019200928168D6
S31520003AD040686B46AE6801AAC0B2B0472269002191
S31520003AE0D3681961009A0199920800F01EFA73BDF5
S31520003AF0DFF8002538B5D36804466068A168DD681C
S31520003B00C0B2A847CAE110B50446A168606804F0AF
S31520003B10F5F82178BDE8104001E210B500F035F83F
S31520003B20DFF8D004E2680169042300F03FF8217829
S31520003B300020EFE770B5DFF8BC5400F026F82969BD
S31520003B401320DFF8BC64CA6882F820002969E0687F
S31520003B50CA6882F82100E06838B929691022C86845
S31520003B60026146612178002054E106F110013046B9
S31520003B7004F0F0F82869482106F11002C0680161B6
S31520003B8042610020BDE87040EAE104464AE710B5EC
S31520003B90FFF7FBFFDFF85C04E2680169032300F00E
S31520003BA005F8A1680020BDE81040E7E1C8688261F9
S31520003BB0A16801616268426180F82030704738B59B
S31520003BC00446DFF8305428690021C068416101614C
S31520003BD090F82000042804D129680A69904704B97E
S31520003BE0044628684169884704B904462869C1689B
S31520003BF0204691F8201000F092F942F21270844289
S31520003C0001BF2969CA6892F82000082803D1BDE8B7
S31520003C10314003F0AABE31BDDFF8D8130A69D36854
S31520003C2093F82110002908BF00F001B87CE02DE9A7
S31520003C30FE4300F0E2F811B900F0DBF871E0012153
S31520003C4001233170D0F818900569D0F8148000202F
S31520003C506A460090F86901A94469D4F804C0E0478F
S31520003C6004000AD0F8694169CA6890472046FFF7E0
S31520003C70A6FF00210020317054E0009830B942F2AE
S31520003C801270FFF79CFF002030704BE0A842396984
S31520003C9088BF28460090C86890F82010082912D1BD
S31520003CA00199C160009AC2610099019803F024FE2F
S31520003CB0044642F27D7084421CBF42F274718C42EB
S31520003CC016D1002414E0132907D1009A0199404601
S31520003CD004F0A8F8009880440AE03C68019A00990C
S31520003CE04B464046D4F808C0E0470099044688442D
S31520003CF000982D1A05D12046FFF761FF002131706B
S31520003D000FE04CB1F8694169CA6890472046FFF731
S31520003D1056FF0020307004E03969C9680D61C1F88A
S31520003D2014800020BDE8FE832DE9F84F00F065F8E9
S31520003D3011B900F05EF859E00121DFF8C8A2317010
S31520003D40826900920569D0F81480C46890F820B082
S31520003D50F86941694A6990478146A94588BFA946BD
S31520003D60ACB14A462146504604F05CF8F869A5EB0A
S31520003D70090401234A4651464569D5F808C0E0475B
S31520003D8004B170B3FFF71BFF002030702EE0BBF1AB
S31520003D90030F09EB080419D1D7F800C04046009B51
S31520003DA052464946DCF80480C0475FEA000BA0462D
S31520003DB0DCD0F8690123002251464469A568A8474A
S31520003DC05846FFF7FCFE0020307010E0BBF1130FC1
S31520003DD001D0A046CAE74A464146504604F022F89A
S31520003DE0F7E73869C0680461C0F814800020BDE890
S31520003DF0F28F002200203270E1E606467D4F3869B8
S31520003E00C068016970477B4B70B500F006F8EE6814
S31520003E10B0472178BDE8704081E01D680446E2681D
S31520003E20A168606870472DE9F0410546764F6E68B7
S31520003E30D5F80880E8680024386018B104F02CF81A
S31520003E4000B90424304604F010F800B9042400F028
S31520003E504DF89CB97E60002000F0DAF8C7F808809B
S31520003E60386818B180F3088880F309887968404655
S31520003E7088470020BDE8F04100F0CAB8BDE8F081CF
S31520003E8038B50446606803F0F0FF08B9042005E061
S31520003E906568012000F0BCF8A068A8472178BDE835
S31520003EA034403CE0F8B50546584E04F0E6F8AB68D9
S31520003EB0696805F10C02304604F018F9040010D1A7
S31520003EC0EF6800200090AB6869686A46304604F0C7
S31520003ED06BF9040005D100983840874218BF44F694
S31520003EE0E96404F0CDF800F001F8F1BD2978204608
S31520003EF015E03EB500210446CDE9001104F0BDF8D9
S31520003F00A36861686A46414804F04EF9054604F004
S31520003F10B7F8A2686946284600F042F837BD3EB594
S31520003F20002400F031F8A0231EE070B5002588B0EB
S31520003F30A7248DF801508DF800400026551C0190CD
S31520003F408DF8026000208DF803506C4605E004EBE6
S31520003F50800551F82030401CAB609042F7D33BE0FF
S31520003F603EB500F010F8B3238DF8003000230291FF
S31520003F7044690C226946A568A84737BD3EB500F0BE
S31520003F8002F8A323F0E7012401908DF801400224D2
S31520003F908DF80340174CE06900258DF802507047D4
S31520003FA070B5002588B08DF80150AF240026022573
S31520003FB08DF800408DF802608DF80350019050B9BD
S31520003FC09DF80300029200EB920403A88DF80340AB
S31520003FD003F028FF00E0029606489DF80320C069FA
S31520003FE00023694644699200121DA568A84708B0B7
S31520003FF070BD0000108020200CED00E00400FA05C2
S3152000400044A22020509E20209CA2202000401F4019
S31520004010012870B504461DD00025114E05E0701804
S31520004020C168896801B188476D1C18216943705899
S315200040300028F4D174B904F020F8FFF77DF804F0D5
S315200040402BF90020074908600120FFF71BF904F02F
S31520004050E6FB62B6BFF36F8FBFF34F8F70BD00BF15
S315200040602425002008ED00E0002204F07FBC30B4B7
S31520004070002513E050F8042BD30744BFA9F1010310
S315200040809A18091F042942F8045BFAD213468C07B2
S3152000409044BF15809B1CC90748BF1D7050F8041BE0
S315200040A00029E7D130BC7047012070472DE9F84F31
S315200040B0ADF5007D054603F0D8FE00284FF0040A32
S315200040C02CD005F2FF1003F0D0FE002826D0286859
S315200040D0DFF8BC7607F58369010F0C291FD104F0A0
S315200040E0C4FB2A46494605F03FF95FEA000A15D186
S315200040F00020387004F0B9FB494604F051FC5FEA11
S31520004100000A0BD104F0B1FB06F04BFF69461020E4
S3152000411000F0DEFA002800F0EB8082467DE0DFF832
S31520004120741607F5826888423BD13878002800F05B
S315200041302E814846002606F0C9FA0546002DCB46B4
S3152000414007F5BB6440F0E28004F096FB4FF4007163
S3152000415000F09DF9002800F00481A07A78B10020B3
S315200041600DF10103391801F583614A780DF8002015
S3152000417009781954801CB0F5007FF3D3EB4604F080
S315200041807BFB5A464FF4007100F01DF95FEA000AE6
S3152000419000F0DC8004F070FB4FF4007100F0DAFAD6
S315200041A0E1E00246DFF8F005824206D14FF40072C4
S315200041B02946484603F036FE9AE7100F0E2831D1DD
S315200041C0387850B3284606F0C2FF30B3284606F0AA
S315200041D0C7FF5FEA000A20D1012078700020451C25
S315200041E06A4601A907F0C3F8A0B904F045FB00EB25
S315200041F085204FF4007100F04AF958B104F03CFBD9
S31520004200019A009900EB852000F0DDF828B900F02E
S3152000421067F910B928460128E1D950460DF5017DE8
S31520004220BDE8F08F0B2860D10420002D1CBF397803
S31520004230002956D0C2F30361012910D0002950D19C
S31520004240284607F075F918B1002188F8001048E0D3
S31520004250AA680123C8F8042088F8003041E098F8BD
S31520004260001000293DD02A7812F00F0F39D10021F5
S3152000427001200491039104A900F02AFA88BB03A91E
S31520004280102000F025FA60BB01A9032000F020FAD7
S3152000429038BBD8F804A0049D694602A807F07EF929
S315200042A05544F0B9009903985144884238BF42F2E8
S315200042B0D87016D30198401E054218BF42F2DE7010
S315200042C00FD10199284600F0E2F810B942F2DB70CE
S315200042D007E0029A0099284600F075F808B900F020
S315200042E0FFF85FEA000A98D151E00020787094E741
S315200042F0DFF8A8540121696404F0BEFA0099E86346
S315200043000818401E28640120387040E04FF40072DF
S3152000431049466846EB4603F085FDD8F8480020F06C
S315200043200400C8F8480021684908216060684008F0
S31520004330606021694908216104F097FA494604F032
S315200043402FFB00283FF400AF01260EE000F0C8F84E
S315200043505FEA000A08D004F08FFA616800F042F99B
S3152000436001E042F2DB7A01267DB1CB4505D04FF440
S3152000437000725946484603F055FD04F076FA494640
S3152000438004F00EFB5FEA000AB1D1002EAFD1787897
S3152000439000287FF423AF06F0C5FE0028A7D0012011
S315200043A0A4E738B515460C46DFF8E423117811B991
S315200043B042F2DD7032BD00F0C7F90146224628469A
S315200043C0BDE83840D5E12DE9F8430546DFF8C0734E
S315200043D038780C46914618B942F2DD70BDE8F28372
S315200043E084B3B87868B9D7F8D815491E0D4202D0DB
S315200043F044F68960F2E701200021B870B9607D603B
S3152000440004E0B86879680818A84216D1B868D7F8C1
S31520004410D88549462218424534BF2646A8EB0006D1
S31520004420384432461030751903F0FCFCB868A41BDA
S31520004430B14430184045B860D2D100F051F8002878
S31520004440CED0CBE70020C9E776B50D460646DFF885
S315200044504013087810B942F2DD7076BDAC08A4008E
S3152000446005F0030507E001AA04213046FFF7ABFF5C
S3152000447060B9361D241F002CF5D12DB101AA29467D
S315200044803046FFF7A0FF08B900F02AF876BD70B5D0
S31520004490ADF5806D05460C4601E0A41B7519DCB10F
S315200044A04FF48066B4F5806F284698BF264600F004
S315200044B04BF901463246684600F05BF96846002112
S315200044C000E0491CB1EB960FE7D250F8042B12F10D
S315200044D0010FF6D0002000E001200DF5806D70BDA3
S315200044E02DE9F041AA4E0024B078ADF5806D002864
S315200044F073D0B470D6F8D845B068A04206D0211A39
S3152000450006F11003FF22184407F066F8706821466A
S31520004510FFF7BDFF18B9B07042F2DB705EE0D6F847
S31520004520D815706806F0FDFE40B1D6F8D81570682B
S3152000453006F1100206F062FF04004ED1706800F00A
S3152000454003F9044604F091F906F11003224606F514
S31520004550836104F026FB04460020002CB070B06076
S315200045603BD18F480268D10313D5D6F8D815726887
S3152000457000290EDD02F01F004118BFF34F8F894B33
S315200045801A60203220390029FADCBFF34F8FBFF39F
S315200045906F8F00F065F820D1D6F8D85506F11008AF
S315200045A0766802E0ED1BBE19B844B5B14FF48067BA
S315200045B0B5F5806F98BF2F4604F05EF9311A3A465A
S315200045C0684600F0D6F83A464146684607F00EF8A7
S315200045D00028E7D044F68A6000E020460DF5806D7D
S315200045E0BDE8F08170B50446694A107810B942F2E8
S315200045F0DD7070BDD2F8DC55684200EA04060C195D
S31520004600644204406442A41B2146304600F0A2F8CE
S3152000461028BB2946304606F053FF61480168CA0385
S3152000462011D5002D31460EDD01F01F004519BFF3CF
S315200046304F8F5C4A11602031203D002DFADCBFF3FC
S315200046404F8FBFF36F8F00F00BF807D1214630460E
S31520004650FFF71DFF10B944F68A6070BD002070BDBB
S315200046605148C1680A69506C012870471FB5484CEB
S31520004670207810B942F2DD7028E001A9012000F06F
S3152000468027F818BB6946102000F022F8F0B902A9D5
S31520004690042000F01DF8C8B904F0E7F804F583619A
S315200046A004F0D5FA0446FFF7DBFF07D100990198FD
S315200046B0FFF7EDFE10B944F68A6007E00CB12046FC
S315200046C004E00099019806F0FBFE002004B010BD1E
S315200046D038B50C002ED02E4901F5BB6201F58D634D
S315200046E060B1012813D0022814D0032817D004283B
S315200046F018D0052818D0102819D01BE008780028D3
S3152000470014BF002042F2DD702060002032BD04F08C
S31520004710B3F8F9E700F010F8AD0A2560F5E712685E
S315200047202260F2E75068EFE7106918B1ECE700F075
S3152000473003F8F2E7042032BD1D685A689968D868E4
S3152000474055194D194519704710B5044604F094F8CB
S31520004750201A10BD38B50C46FFF7F6FF054604F0C3
S3152000476084F823462A4601B01049BDE8304005F0BA
S315200047703ABE7CB504460D46164604F076F80096F9
S315200047802B462246094905F06AFE76BD0000000048
S3152000479010AB20200F0000F04643464248802020E0
S315200047A014ED00E05CEF00E01080202028AF2020F0
S315200047B02DE9FE4303F0F0FF022849D1DFF8E84B4C
S315200047C042F230102518284606F034FF002859D129
S315200047D0284600F088FD002854D1694601A806F035
S315200047E015FF0027009EDDF80480B94601E07F1CF6
S315200047F0B144B8B240452BD204F110024FF4806187
S31520004800484600F020FD002802BF6069DFF89C1BA7
S31520004810884204BFA269012AE9D14FF4806104F1DC
S31520004820100000F072FD0028E1D042F23000261878
S315200048304FF4806204F11001304603F0F3FA284663
S3152000484000F051FDF0B9304600F08FFC10B119E0B0
S31520004850012017E0012002A9207040F2011003F088
S3152000486002FA78B9029A142042F2F023DFF8401BAC
S315200048704243E01804681144CC60C2698068424310
S315200048808A600020BDE8FE832DE9FE4F04240546FC
S3152000489003F0EBFA00282E4605D006F2FF36304606
S315200048A003F0E3FA002800F096812A68DFF8F86A18
S315200048B042F22801771842F2F02342F27008100FD4
S315200048C00C2806EB0309DFF8E4AA4FF4806B40F0CE
S315200048D0BE80002D0ED002F00F02D21E082A3FD233
S315200048E042F2300059463044FFF7BEFB686803F0B9
S315200048F0BCFA002870D06868083003F0B6FA0028A1
S315200049006AD06A6842F230103118002007F096F912
S31520004910040061D12868C0F3032000281CBF0128A9
S3152000492000207060286800F00F02921E082A53D8D3
S31520004930C0F30353032BC0F303600CD8DFE803F066
S3152000494009070402202308E04FF4807305E0802342
S3152000495003E0402301E0202B3ED300283CD005284D
S315200049603AD23B830121788313FB00FCC7F80CA0C5
S3152000497039610146C7F814C00020FA610DE0BCF881
S3152000498008C006EBC00B0EFB0AFA401CC344CBF84A
S3152000499000A00EFB0CFECBF804E0904214D205EBEF
S315200049A0800CD9F808E030B9B3FBFEFB01FB0BFB0A
S315200049B04FEA4B0B04E0BCF806A0BCF804B0D34485
S315200049C0BCF80AA0DA45DAD242F234004FF47F71FD
S315200049D0304400F0A7FCB860002C07D100203070CE
S315200049E042F23011701800F07EFC040040F0F38093
S315200049F0DFF8C059284600F0B8FBC8B1DFF8B8493F
S31520004A00FF224FF48461204603F0ACFFDFF8AC09A7
S31520004A10012160600022A16040F21C412261201D1C
S31520004A2000F080FC2060284600F0CCFB040075D105
S31520004A307D8B3C8BD9F808104FF0000A44F6296884
S31520004A40D34605FB04F0B0FBF1F100916AE06968FA
S31520004A5051450FD15946284600F057FC00285DD015
S31520004A60002042F2300330705A462946F01803F0EF
S31520004A70D9F9B5E70B2851D10420002D1CBF317878
S31520004A8000294AD0C2F3036101290DD0002944D15F
S31520004A90284606F04DFD10B1002139703DE0AA6888
S31520004AA001237A603B7038E03978B1B3297801F078
S31520004AB00F01082931D206EBC100D9F800507E68D3
S31520004AC069464044D0F80080446801A806F066FD97
S31520004AD005FB086808BB00983618B6FBF5F084423B
S31520004AE038BF42F2D87018D3691E18EA010F18BFD2
S31520004AF042F2DE7011D1B8FBF5F40121204600F018
S31520004B0013FB10B942F2DB7007E0019A00992046A8
S31520004B1000F0B5FB08B900F0C5F904465BE00AF1E0
S31520004B20010AA344AA4538D242F23000371806F1CA
S31520004B3010024FF48061584600F085FB40B94FF4CF
S31520004B408062394606F1100006F050FD0028E6D0B6
S31520004B504FF0000BDDF800A004E058460BF1010BE6
S31520004B6000F0CEFBD345F8D34FF0000AD346AA4532
S31520004B7015D23A464FF48061584600F080FB002853
S31520004B800FBF4FF00008D9F80800BBFBF0F000F08B
S31520004B90B7FB0AF1010AA344E9E74FF000085FEAF0
S31520004BA0080418D101206946307040F2011003F044
S31520004BB05AF804000FD100991420DFF8F427D9F809
S31520004BC00030414355180832EB60D9F81C60D9F8FB
S31520004BD00800464356502046BDE8FE8F2DE9FE4F7D
S31520004BE093460425BBF1000F0346884605D0DFF81F
S31520004BF0B867307810B942F2DD757BE0726842F210
S31520004C00F02177183968012A019119D1307B50B9E2
S31520004C10F9698B426ED2B868B36032734FF0000ADE
S31520004C204343009312E0B068BA68424301FB023363
S31520004C301B1A0198B3FBF1F1009100FB113304E03C
S31520004C40B3FBF1F001FB103300909A46684642F21E
S31520004C50240900F09BFB41F21001741814E006F1C0
S31520004C60100000EB0A012A46584603F0DBF80199AA
S31520004C70AA44A8EB0508AB448A4504D3009AAAEBBC
S31520004C80010A521C00920025B8F1000F0CD12EE02B
S31520004C90084600F058FBD8B156F809000099401C88
S31520004CA046F809006D1800956268009920788A42B6
S31520004CB000D110BBBD68B1FBF5F118B1B2FBF5F020
S31520004CC0814205D0F8698142E2D342F2D8750FE0DD
S31520004CD0009D00202070396806F11002284600F059
S31520004CE0B2FA10B9012121706560050005D00DB119
S31520004CF0002030732846BDE8FE8F019908EB0A0292
S31520004D0091422CBF4546A1EB0A05A8E72DE9F84FAD
S31520004D1093460424BBF1000F05D0DFF88C763A7851
S31520004D2012B942F2DD749AE08946796842F2F0239C
S31520004D3042F21806FA58BD1901290646904640D176
S31520004D40387BA0B9DFF87806C1698E42EBD2002203
S31520004D5001232A7092463B73DFF86826BE6080687E
S31520004D6046430096314608FB019111602FE03B44F3
S31520004D70B8689968414302FB0162DFF84816121AA7
S31520004D80B2FBF8F008FB102A00900868824213D084
S31520004D90287818B100F054F904005ED1012042F2BF
S31520004DA0F02238733A44BE60906831464FF0000ACC
S31520004DB04143009108FB01F24A44DFF808160A60D5
S31520004DC005E0B6FBF8F008FB10660090B2460098A6
S31520004DD0A96D884243D3684600F0D8FA24E0002023
S31520004DE0012268600099A9602A7009EB0A008045B3
S31520004DF007EB0A0041F218035946184434BFA8EBC2
S31520004E000A044C462246A24403F00CF86868A9EB33
S31520004E100409A3442018C245686004D30099AAEB6C
S31520004E20080A491C00910024B9F1000F06D113E0AD
S31520004E30E868401CE860009976180096A9680098F2
S31520004E402C7881420ED16CB169685145CDD000F0E5
S31520004E50F7F80028F2D004460CB10020387320461B
S31520004E60BDE8F28F42F2F0223A449668B0FBF6F0A3
S31520004E701CB1B1FBF6F188420AD0D169884202D32F
S31520004E8042F2D874E9E700F05EFA0028D0D11CB1CE
S31520004E9000F0D6F80400DFD1BAF1000F9FD044F617
S31520004EA02A64DAE7DFF8202500201178002918BFC8
S31520004EB000F0C6B8704738B5DFF8EC4400206178BA
S31520004EC021B142F23000204400F07CF942F2180170
S31520004ED02144002241F210050A706255CA602273ED
S31520004EE032BD2DE9F8430D46DFF8BC743978042429
S31520004EF011B942F2DD7432E00DB900242FE07B684F
S31520004F0042F2F0213944CE698A68012B08BF8146D6
S31520004F100DD00968B0FBF1F82818401EB0FBF1F05F
S31520004F20B8FBF2F9B0FBF2F5A5EB09056D1C42F2D0
S31520004F3070017B58B3FBF2F2914507D20FE0484649
S31520004F4000F0D0F904000DD16D1EC14675B97878F0
S31520004F5028B142F23001781800F034F90446204690
S31520004F60BDE8F283484600F0FFF9C146B145EED2CE
S31520004F70484609F1010800F0E6F90028DFD0F4E7F9
S31520004F8070B5DFF82444207810B942F2DD7070BD88
S31520004F9042F20C300025265800E06D1CB5420AD29C
S31520004FA0284600F0D0F90028F7D1284600F0A8F9C5
S31520004FB00028F2D070BD607828B142F23001601826
S31520004FC000F000F900B9002070BD002930B52DD0C1
S31520004FD0DFF8D42342F2F023134402F5065450B1ED
S31520004FE0012811D0022811D0032814D0052815D065
S31520004FF0102818D01AE01078002814BF002042F29A
S31520005000DD700860002030BD0020FAE700F010F8BF
S31520005010ED0A0D60F6E71B680B60F3E71A689868DF
S3152000502042430A60EEE700F003F8F2E7042030BDC1
S3152000503025686368A268E0685D19551945197047A7
S315200050402DE9F84FDFF8604342F2180042F2F021D2
S31520005050251866186A68336842F2DB789A421CBFC4
S3152000506000202073D5F808A000222A70012150467E
S3152000507000F05AF890B3696841F21802224450466B
S3152000508000F0FDF800284DD0B068BAFBF0F738469E
S315200050907F1C00F069F9E968F0690090491CE96015
S315200050A006E0384600F060F9E8687F1C401CE8609E
S315200050B000998F4234D2384600F045F90028F3D1C2
S315200050C0B068BAFBF0FB00FB0BFB00FB07F9AAEB71
S315200050D00B01491C484600F027F828B9404621E034
S315200050E00BF1010B09F10109D34531680ED204F108
S315200050F01002584600F0A7F870B9316804F1100282
S31520005100484600F0BCF80028EAD005E041F2180035
S315200051102218484600F0B3F820B14045C1D101E03D
S3152000512042F2D870BDE8F28FF8B506469E4D42F29F
S31520005130F0200C462F5800E0641EA4B105F11002A1
S3152000514039463046761C00F07EF850B905F110013C
S3152000515000E0001DB842EFD251F8042B12F1010FE6
S31520005160F7D00020F2BD0120F2BD2DE9F041924C8E
S3152000517000216160458A068A0027D0F80C8001E06C
S315200051807F1CB044B8B2A84219D2082817DA2246A2
S315200051904FF48461404600F056F8002802BF60684C
S315200051A08649884204BFA268012AE9D14FF4846166
S315200051B0204600F0AAF80028E2D0002000E00120D6
S315200051C0BDE8F0812DE9F84F814644F62966B9F805
S315200051D01280B9F810A0D9F8C802D9F80C200025F9
S315200051E008FB0AF1B2FBF0F4B1FBF0F703E000197B
S315200051F06D1C00F085F8A8B2B842F8D36E4F40F285
S315200052001C41381D002500F08DF83860D9F80CB007
S31520005210654C12E0607000260DE03A464FF484613A
S31520005220584600F02CF80028F4D0D9F8C802BBFB69
S31520005230F0F000F065F86D1CD344A8B24045ECD3DD
S315200052403046BDE8F28F2DE9F84305460C46164652
S3152000525042F2F029DFF8508102E0F619E41B6D1CBA
S315200052605CB158F8097032462846A74228BF27461F
S31520005270394600F03CF80028EFD0BDE8F2832DE94E
S31520005280FC4781460D46924642F2F027464E13E0F1
S3152000529006F110022146484600F029F85FEA000888
S315200052A01DD1224606F11001504606F09FF9A0B9FD
S315200052B0A2442D1B09F101098DB1F45942F2301097
S315200052C053464A46AC4228BF2C463118009400204B
S315200052D006F014FC0028DBD002E0012000E0404666
S315200052E0BDE8F6870CE00146002006F0F1BA80B54D
S315200052F01346009102463549002006F0FBFA02BD0E
S3152000530002463249002006F09BBB10B50446091F11
S31520005310201D00F007F82268904201D1012010BD1F
S31520005320002010BD3EB504460D4601A806F0F6FD48
S315200053302A46214601A806F0F7FD694601A806F08F
S3152000534008FE00983EBD30B51B4A0021136900E0D7
S31520005350491C994206D202EB8104256A8542F7D17F
S31520005360012030BD002030BD13490A69B2F5807F87
S315200053700AD201EB8202106208690B4A401C0861BE
S31520005380012151700020704701207047064942F2E2
S31520005390240330B5CC5842F2F8250268495901FB5E
S315200053A004220260002030BD301421204243464EA4
S315200053B0C08020206034212060382120544242447D
S315200053C020372120803C212048342120603521208F
S315200053D038B503F0E1F9102801D0012032BDDFF8FD
S315200053E07854281D06F067FE040008D1281D06F013
S315200053F0A9FF040003D100F019FA012028702046E5
S3152000540032BDF0B585B0044602F02FFD20B104F17F
S31520005410FF0002F02AFD08B90420EBE02368DFF83C
S315200054203C04DFF834544FF4807283420CD1214679
S31520005430281D02F0F7FC0021281D297006F082FFA6
S31520005440002800F0C280D5E0180F0D285ED1C3F3E6
S31520005450012010B1C3F30122120223F440710A4342
S315200054602260281D06F027FE0028ECD1052005F134
S315200054702506182128743170227805F1450702F097
S3152000548003027A742068000AC10001F018017170C5
S315200054902268920A02F0010272722068000B00F064
S315200054A00700F0712068C0F3810002283874C2D149
S315200054B0A28800F0A1F8F075E28800F09DF8307619
S315200054C0228900F099F87076628900F095F8B07616
S315200054D0A28900F091F8F076E28A00F08DF8B07794
S315200054E0228B012100F089F8F077E28900F084F818
S315200054F03870228A00F080F83077628A00F07CF8D3
S315200055007077A28A00F078F8787094E70B2859D142
S315200055100420002C1CBF297800296BD0C3F303611B
S31520005520012905F543750DD0002963D1204605F0E4
S31520005530FFFF10B1002129705CE0A26801236A6098
S315200055402B7057E02978002954D0227812F00F0FBB
S3152000555050D1002101200491039104A900F038F9CB
S31520005560002847D103A900F025F9002842D101A936
S31520005570032000F02DF900283CD16C68049D694673
S3152000558002A806F00BF86519A0BB009903986418C9
S31520005590A04238BF42F2D8702CD30198401E054253
S315200055A018BF42F2DE7025D10199284606F0AFFEDB
S315200055B010B142F2DB701DE0029A0099284600F0F5
S315200055C02AF817E045F27C2014E000F02FF901A913
S315200055D0012000F0FDF86946102000F0F9F8009847
S315200055E09F49019A0A6583185B1E01224B658A65CD
S315200055F000202A7005B0F0BD0021281D06F092BDBE
S3152000560010B5954C237813B942F2DD7010BDBDE874
S31520005610104007F0D3B82DE9F84306468E4D28787A
S315200056200C46904618B942F2DD70BDE8F28330464A
S3152000563006F06DFE10B142F2DB70F6E7A4B305F575
S31520005640827778683968002808BF00290CD195F838
S315200056502610C908B6FBF1F201FB126111B142F224
S31520005660DE70E2E73E6002E04118B14217D1211810
S31520005670B1F5007F414694BFA146C0F50079284484
S315200056804A4600F58670C84402F0CCFB78684E4442
S31520005690A4EB09044844B0F5007F7860CED100F031
S315200056A044F80028CAD0C0E70020BEE72DE9FC4117
S315200056B0694E054630780C46174604EB050818B99E
S315200056C042F2DD70BDE8F68100F02CF801A900F069
S315200056D071F800998D4223BF01984218424545F240
S315200056E06D20EFD306F5867841468020401E41F88E
S315200056F0047BFBD19CB14FF400770020B4F5007FEA
S31520005700C6F808014246284698BF27463946FFF77D
S3152000571082FF002804BF7D19E41BEBD0D2E700F0FE
S3152000572004F8CFE76946012052E010B54A4C002024
S3152000573004F5827253684BB111681060506004F50D
S315200057408672201DBDE8104006F00FBF10BD2DE962
S31520005750FF41414C064620780D46AF1910B942F25A
S31520005760DD7024E0FFF7DEFF01A9052000F030F808
S3152000577002A900F01FF800998E4223BF0298421812
S31520005780BA4245F26D2012D31DB900200FE00198D0
S315200057908619BE420AD20099019A201D711AB1FBC0
S315200057A0F2F106F092FF5FEA0008F0D0404604B01E
S315200057B0BDE8F08110200BE0E0B501A9FFF7B3FFAB
S315200057C06946FFF7F7FF00990198FFF7C0FF0EBD66
S315200057D010B549B3204A02F1A40350B1012811D0D3
S315200057E0022812D0032816D0052816D0102817D044
S315200057F01AE01078002814BF002042F2DD700860FD
S31520005800002010BD52690A60FAE75C689868444334
S31520005810A40A0C60F4E71A68F5E7586820B1EEE7A9
S315200058205A6898684243EEE7042010BDE0B501A906
S315200058300520FFF7CDFF69461020FFF7C9FF064870
S31520005840009A8169914204D2019BB1FBF3F1C0F821
S31520005850AC1007BD00000000A80C212053454D4385
S31520005860488020203EB502F097FF202801D0012055
S315200058703EBD00F049FDDFF8144B44F220102518F8
S31520005880284607F07FF870BB284607F0E3FB50BB9D
S31520005890694601A806F0AAFF009B019A0021002074
S315200058A000F042FCF8B944F220004FF48062A11CBB
S315200058B0204402F0B7FA284607F0CCFB98B9009BA3
S315200058C0019A44F22C002158012000F02DFC50B9F9
S315200058D04FF48462A11CDFF8B80A02F0A3FA012073
S315200058E0207000F02AFD3EBD2DE9FE4F04462546D8
S315200058F002F0BBFA002805D005F2FF35284602F053
S31520005900B4FA002800F04A81DFF8805A44F21800E1
S3152000591044F220112E1805EB010B2146002000F041
S31520005920E8FB98B3002044F2200328704FF48062ED
S315200059302146E81802F076FA584607F08BFB002835
S3152000594021D1338B728B71690120DFF8444A4FF4E1
S31520005950846700F0E9FB002800F02581FF22394604
S31520005960204602F0FFFFDFF82C0A012160600022AA
S31520005970A16040F21C412261201D00F0B4FC206091
S3152000598000F098FA002840F01B8111E1226844F2C9
S31520005990C01144F2600905EB0108100F0D2840F0F4
S315200059A0AC8060684FF4807110F00F0F14BF00F0C8
S315200059B00F0A4FF0010AC0F3034000281ABF60689F
S315200059C0C0F303470127C2F30120002822F44072C6
S315200059D014BF00020846104320606068C0F3072009
S315200059E0002803D06068C0F307210902626822F408
S315200059F07F4211436160207810F00700D8BF45F23E
S31520005A00E42070DD082F88BF45F2E5206BD8002002
S31520005A10287000F079FC584606F0B4FF002862D1C1
S31520005A2044F272102844002144F229128172A918E6
S31520005A3005230022CB70C2720A70227802F0070278
S31520005A4002702368C3F3C002CA752268C2F3021229
S31520005A50521C427023681B0ADA0002F018020A76EA
S31520005A60216844F25012090B01F00701A95423685A
S31520005A701B0C03F00103C3702168490C01F00101DE
S31520005A800171584607F0E6FA00282CD16168D8F84B
S31520005A900800C1F307231AFB03F3C1F3072200FB17
S31520005AA002FC00205B0011E0B1F808E005EBC00223
S31520005AB0D8F808B0401C4A440BFB0EFEC2F804E09E
S31520005AC04989D8F808E00EFB01F11160B8420BD2E3
S31520005AD004EB800110B1CA888B889B184A899A42A8
S31520005AE0E2D245F2E6206BE0A6F818C00CFB0AF0DD
S31520005AF0A6F81AA07061F76123E70B2850D104207D
S31520005B00002C1CBF297800295AD0C2F30361012931
S31520005B100DD0002954D1204605F00AFD10B10021F0
S31520005B2031704DE0A06801227060327009E731784B
S31520005B30002945D0207800F00F0008282ED205EB4A
S31520005B40C00069464844D8F80090D6F80480076813
S31520005B50446801A805F022FD09FB0787D8B90098FB
S31520005B608044B8FBF9F0844218D3A9F101010F4211
S31520005B7014D101225846B7FBF9F107F0A5FE10B162
S31520005B8042F2DB701CE0019A0099384600F093F847
S31520005B9008B900F091F90028C8D011E004200FE0E0
S31520005BA045F2E0200CE03A46A91C204602F03AF9DC
S31520005BB0002000F0E7FA18B90120287000F0BDFB9C
S31520005BC0BDE8FE8F2DE9F84F5FEA0208DFF8BC67D3
S31520005BD044F2C012054606EB02073C68009408BF53
S31520005BE00420B5FBF4F904FB19555AD0327812B9C2
S31520005BF042F2DD7055E044F21403BA68F45802FB11
S31520005C0004990C4610E0B01C41195246404602F059
S31520005C1009F9009A5544A4EB0A04D044954224BFBE
S31520005C20AD1A09F101090020002C42F2040A0AD11A
S31520005C3037E0484600F042FBF0B144F21400D94464
S31520005C403158491C315056F80A1042F20200305C95
S31520005C50494500D138BBD7F808B0B9FBFBF218B1DB
S31520005C60B1FBFBF0824207D0F8683969484382428B
S31520005C70DFD342F2D87014E042F2020B00203B68D8
S31520005C8006F80B0044F2201CB21C494606EB0C0019
S31520005C9007F08DFB20B9012146F80A9006F80B1073
S31520005CA008B1BDE8F28F0098621990422CBFA24637
S31520005CB0A0EB050AA7E72DE9F84F5FEA0208074699
S31520005CC0DFF8C85644F2C012AC58009408BF04202E
S31520005CD0A146B7FBF9F904FB19774DD02A7812B9FA
S31520005CE042F2DD7048E044F20803EE18B26D9145A9
S31520005CF038BF45F2E3203FD344F2C0142C19F36891
S31520005D00A2688A4602FB039922E0002001217060E6
S31520005D10C6F80890317000980AEB070242F2080391
S31520005D204146904234BFC41B5446E81922461844C3
S31520005D30E71902F077F87168AAEB040AA044611803
S31520005D407160009A974224BFBF1A09F10109002009
S31520005D50BAF1000F04D10FE0F068D944401CF0607E
S31520005D60B0683478484509D144B17068B842D2D079
S31520005D7000F009F90028F3D0BDE8F28F44F2C011F3
S31520005D806A18D2F808B0B9FBFBF11CB1B0FBFBF0E6
S31520005D9081420DD0D06812695043814202D342F22B
S31520005DA0D870E9E7484600F089FA0028D4D11CB11A
S31520005DB000F0E9F80028DFD1002FA6D045F2D12047
S31520005DC0DAE72DE9F047DFF8C47544F2C0157C19EF
S31520005DD03A782669E3684FF001085E4312B942F229
S31520005DE0DD702AE009B9002027E02368A268B0FB0D
S31520005DF0F3F50818401E44F26001B5FBF2FAB0FB39
S31520005E00F3F07B58B0FBF2F5A5EB0A056D1CB3FB4E
S31520005E10F2F292450AD245F2E3200EE0504600F017
S31520005E205EF95FEA00080AD16D1ECA465DB9787828
S31520005E3010B100F03FF880464046BDE8F087504656
S31520005E4000F092FACA46B245F1D2A0680AF10109D9
S31520005E5000FB0AF000F032FA0028DFD0F2E744F225
S31520005E60C8122DE9F041DFF824654FF00108B71874
S31520005E703078BC68796800254C4388B942F2DD70D9
S31520005E8016E03868684300F019FA40B9284600F051
S31520005E9026F95FEA00081CBF284600F065FA6D1C4B
S31520005EA0A542EED3707810B100F004F88046404643
S31520005EB0BDE8F081012065E1DFF8DC2400201178BF
S31520005EC0002918BF00F05FB8704738B5DFF8BC442A
S31520005ED00020617809B1FFF7EDFF44F20801214463
S31520005EE0002242F202050A706255CA6032BD0029BC
S31520005EF030B52BD0DFF8942444F2C013D41850B117
S31520005F00012811D0022811D0032814D0052815D035
S31520005F10102818D01AE01078002814BF002042F26A
S31520005F20DD700860002030BD0020FAE700F010F890
S31520005F30AD0A0D60F6E723680B60F3E7A2682068D8
S31520005F4042430A60EEE700F003F8F2E7042030BD92
S31520005F502569E368A26820685D4355434543704739
S31520005F60DFF8281401F584421078002800D0704705
S31520005F7010B5002342F2020442F204000B550B50E6
S31520005F80891C516010BD2DE9FE4FDFF8004444F214
S31520005F90080044F2C01125186618D5F808A0336900
S31520005FA0F068B2684343019300202870686831681E
S31520005FB0BAFBF2F8884207D042F20803091A2344B2
S31520005FC0FF22184405F008FB44F220130122514613
S31520005FD0E01842F2DB7B07F077FC90BB306842F298
S31520005FE008016218014600FB0AF000F052F800286A
S31520005FF04DD0404608F1010800F0B6F9E86805E002
S31520006000404600F0B1F9E86808F10108401CE86054
S315200060100199884539D2B76807FB08F9484600F048
S315200060204DF90028EFD1BAFBF7F0474344F2201090
S31520006030204449460090AAEB0702521C07F044FC74
S3152000604020B1584623E07F1C09F1010957453368E2
S315200060500FD20098A21C394607F0A9F988B93068F2
S31520006060A21C014600FB09F000F013F80028EAD034
S3152000607007E042F20800221803FB0AF0194600F056
S3152000608008F820B15845BBD101E042F2D870BDE8EE
S31520006090FE8F2DE9F047904644F2C015BB4E08EB23
S315200060A0010972590C46B0FBF2FAFFF759FF384640
S315200060B003E0B844E41B0AF1010AC8450DD277591A
S315200060C044F22010424651463044BC4238BF27464F
S315200060D03B4607F08FFA0028EBD0BDE8F08710B5D5
S315200060E00446FFF73DFF2146AC48BDE8104007F0C7
S315200060F091BB10B50C4620B9A94A201D4FF47F71DB
S3152000610003E0A44A201D40F21C416368934204BF69
S31520006110A268012A06D100F0E6F82168884201D15A
S31520006120012010BD002010BD2DE9F04782460F4604
S31520006130964D914698464FF40051A81C07F00AFC4C
S315200061405FEA0A000CBF4FF480644FF48464002693
S3152000615001E04744761C4E4512D244F2C010AA1CD8
S31520006160285821467843FFF72DFD0028F1D1A91C98
S315200061705046FFF7BEFF0028EBD00020BDE8F08791
S315200061800120FBE72DE9F04F804E44F2200285B036
S31520006190B5186B8A0193019A2C8A012A029408D990
S315200061A02346534344F2C01232449468B3FBF4F9B5
S315200061B001E04FF0010900288DF8000035D10027B5
S315200061C0B846C246DDF804B0029C02E008F1010898
S315200061D0A244D84516D244F2C013B21CF0584FF44C
S315200061E0806100FB0AF0FFF7EDFC38B94FF48062BE
S315200061F02946B01C05F0FAF90028E7D0CDF804B0FE
S31520006200012701E0CDF804B00294002F4FF0000AD8
S31520006210D04645F2E12404954FF4806B48D044F2F1
S3152000622024024FF47F71B01810E044F2C0103044BD
S31520006230D5F80C808168564D45F2E22404954FF43A
S31520006240846BB8FBF1FA40F21C41281D00F04BF894
S315200062502860002504E005EB0A006D1CFFF73FFFD0
S315200062604D45F8D344F2C010304403900027DDF8A2
S315200062700490029DDDF810A04F451BD2039852468C
S315200062805946006800FB08F0FFF703FF38B99DF870
S315200062900000012804BF00217170002405E0039846
S315200062A08168B8FBF1F0FFF71AFF7F1CA844E3E7EB
S315200062B0002000E0204605B0BDE8F08F70B5394BD0
S315200062C001461C68324B00220020B1FBF4F11C6908
S315200062D000E0521CA24205D203EB82052E6AB1428F
S315200062E0F7D1012070BD3EB504460D4601A805F044
S315200062F015FE2A46214601A805F016FE694601A884
S3152000630005F027FE00983EBD70B5204C44F22003D0
S31520006310E518FF224FF48061284602F023FB204E29
S31520006320012344F224006E60AB604FF47F71204459
S31520006330FFF7D9FF2860002070BD1CB569464FF4D1
S31520006340807001F090FC70B9009A142016494243DF
S31520006350164803680A44D3600469C16880684C43C0
S3152000636044439460002016BD09490A69B2F5807F2E
S315200063700AD201EB820210620869044A401C0861B5
S31520006380012151700020704701207047ACC32020A6
S31520006390CC07212054424244B4032120CC0421209E
S315200063A04243464E74052120C08020206C052120C2
S315200063B00020DFF888158860704710B51346DFF88F
S315200063C07C45227802B998E00A461946BDE8104075
S315200063D007F0F0BA2DE9F8438046DFF860552878B3
S315200063E00C469146D5F8287418B942F2DD70BDE8FE
S315200063F0F283B7F5806F88BF4FF4806734B3A868FF
S315200064006968002804BF0029C5F8048002D0411815
S31520006410414516D121188F422CBF26463E1A2844C4
S3152000642000F10C01894504D0324649460C3001F072
S31520006430F9FCA868A41BB144B0443018B842A8603F
S31520006440DCD100F005F80028D8D0D0E70020CEE730
S31520006450F8B5DFF8E864ADF5806DB5680024DDB1E8
S3152000646077687460B4602A4606F10C01384607F056
S3152000647021FB040010D12A466946384607F09AFACD
S31520006480040009D12A46694606F10C0005F0AEF84B
S3152000649010B142F2DF7000E020460DF5806D01B0AC
S315200064A0F0BD38B50D460446DFF89014087810B9CB
S315200064B042F2DD7032BD2946204607F093FA40B9F4
S315200064C02946204600F01CF810B942F2DF7032BD92
S315200064D0002032BD10B5DFF86444207800B90CE006
S315200064E007F0C1FA40B9D4F8241400F009F810B91D
S315200064F042F2DF7010BD002010BD42F2DD7010BDEB
S3152000650070B5ADF5806D05460C4601E0A41B7519E6
S31520006510C4B14FF48066B4F5806F6946284698BFAB
S315200065202646324607F046FA6846002100E0491C16
S31520006530B1EB960FEAD250F8042B12F1010FF6D0E8
S31520006540002000E001200DF5806D70BD2DE9F04D95
S315200065508CB00446042501F088FC002804D004F100
S315200065602B0001F082FC002800F07C812068DFF8F7
S31520006570CC8308F5826A08F20C4608F58667DFF8B0
S31520006580C0B3000F0C2840F0B7802C215046FDF7F1
S315200065906BFDC6F804B04FF48030B06001210222B2
S315200065A039707A70032305210622BB70DFF8940325
S315200065B0FD7039717A71237803F00F0300EB8301A4
S315200065C0CA6DF2612168C1F3031100EB8102136CDD
S315200065D033622168C1F3032150F82100B06121689C
S315200065E0DFF86403090B01F00F01012904D0022909
S315200065F011D1022030753DE03175B169B1F5803F8A
S3152000660098BF102005D9814202D21821717531E038
S31520006610202070752EE00021602231753A72B36910
S31520006620834213D2182042217075B971306AB0F5B1
S31520006630803F28BFD82016D2B0F5805F08BF202122
S3152000664017D0B0F5004F15D152200CE02021122290
S315200066507175132000217A70B870B971306AB0F55F
S31520006660803F02D3DC20F87104E0B0F5805F01D1D1
S315200066702121F9712068000D00F00F00401E03282B
S315200066800CD8DFE800F008060402357308E0032082
S3152000669002E0022103E00120307301E00021317382
S315200066A02068000C00F00F00012808D00AD3032828
S315200066B001D002D306E0032102E0022003E00121FB
S315200066C0717301E0002070732168C1F3036080B10B
S315200066D0207900F00F00012808D00AD3032801D022
S315200066E002D306E0994902E0994803E099493161CD
S315200066F06EE0994830616BE02268110F0B295CD15E
S315200067000420002C1CBF98F8001000290BD0C2F3DF
S31520006710036101290DD0002905D1204604F008FF88
S3152000672010B1002139739EE0A068012238613A73C6
S3152000673041E0397B0029F6D0227812F00F0FF2D1F2
S31520006740002101200491039104A900F08FF880BB59
S3152000675003A9102000F08AF858BB01A9032000F0F5
S3152000676085F830BB3C69049D694602A804F016FFF3
S315200067706519F0B9009903986418A04238BF42F20F
S31520006780D87070D30198401E054218BF42F2DE70C1
S3152000679069D101992846FFF7B3FE10B942F2DB70A2
S315200067A061E0029A00992846FFF714FE08B9FFF720
S315200067B04FFE002857D1002554E05A4552D12C21AE
S315200067C05046FDF751FC2C222146504601F02AFB6B
S315200067D00020624D88F80000347B376908F5836015
S315200067E001F06CFF204601F021FF2946204601F0EA
S315200067F057FF07A85CA1142201F014FB1C21684650
S31520006800FDF732FC00970821009B01915449002294
S31520006810ADF80820B1FBF3F38DF80A200A4603935E
S3152000682013460099B2FBF1F1009A049102218DF8EA
S3152000683018106946B3FBF2F20592002207AB8DF8D9
S315200068401920ADF81A2053F824002A4607F0A0FA9A
S31520006850316808F5846007F081F8050004BF01203F
S3152000686088F8000028460CB0BDE8F08D21B3334AE5
S3152000687002F2244350B1012811D0022814D0032853
S315200068800FD0042814D0102814D015E01078002832
S3152000689014BF002042F2DD700860002070470020FF
S315200068A0FAE75A680A60F8E71B689B0A0B60F4E768
S315200068B09868F1E71A68F5E7042070472DE9F04358
S315200068C00746284889B0884616460478457804A89D
S315200068D02AA1142201F0A6FAE9460020002100226E
S315200068E0002389E80F004FF4801003900EB901228F
S315200068F001E0032E05D12946204601F0B1FE0020F5
S3152000690019E0012E08BF019702D0022E08BF00977A
S31520006910CDF8088004A8694650F8240007F0C2FB89
S31520006920B0F5C87FF6D030B100222946204601F0C6
S3152000693097FE42F6CD1009B0BDE8F083B481202041
S315200069406B736563408120200100000180841E0056
S31520006950404B4C0080969800002D3101005A62026F
S3152000696000CA9A3BCC852020000000000040394018
S315200069700080394000C0394000003A400000000045
S31520006980004039400080394000C0394000003A407C
S315200069903EB5DFF8FC4540F2FF1104F538750222BA
S315200069A0A98420466A8407F09FFDF8B9204608F09E
S315200069B038FEC0B901A940F2211001F054F9A8B956
S315200069C06946204600F0F2FA80B9019B1421DFF8CF
S315200069D0C4252D684B43D118CD60009A8A600121C9
S315200069E084F808133EBD002384F808333EBDF0B575
S315200069F085B0044601F039FA002803D0E01D01F0E5
S31520006A0034FA002800F085802268DFF8845505F2E4
S31520006A10023605F52C77100F0B2878D10420002C90
S31520006A201CBFB179002970D0C2F3036101290ED0B1
S31520006A3000296AD1204604F07BFD10B10021B176F1
S31520006A4063E0A2680123C5F82023B3765DE0B17E1A
S31520006A5000295AD0227812F00F0F56D1002101209A
S31520006A600491029104A900F0F9F900284DD102A958
S31520006A70022000F0F3F9002847D10298DFF8181514
S31520006A804FF0FF34884201A928BF0294052000F068
S31520006A90E5F9002839D1D5F82063049D694603A875
S31520006AA004F07CFD751980BB009902987618B042D7
S31520006AB038BF42F2D87028D30198401E054218BF2D
S31520006AC042F2DE7021D13878019B012808460199CF
S31520006AD00246B0FBF1F1019818BF002400FB1122F9
S31520006AE01000224618BF01204118B5FBF3F000F034
S31520006AF02AFA10B942F2DB7007E0039A0099284679
S31520006B0000F000F908B900F056F905B0F0BD0C28E0
S31520006B1001D00420F9E74FF449712846FDF7A4FA7D
S31520006B20DFF8780428600F2009F0FAF8DFF87014EF
S31520006B300968C1F30241491CB0FBF1F06860DFF837
S31520006B40640429680268914204BF002380F8D43087
S31520006B5040F2FF10022170803180206805F12C015F
S31520006B60020B000A02F00F0200F00F000A704870B4
S31520006B706068C20C02F001020A7341F28832C30D2A
S31520006B80000E00F0030003F0010301284B7340F6CA
S31520006B90C41306D002D3032809D006D344F62060B6
S31520006BA001E042F21070486002E04A6000E04B606B
S31520006BB06068C0F3005000280CBF8A608B60606854
S31520006BC0800C00F001008873284608F02AFD002872
S31520006BD09BD121682846090E01F0070108F039FDEE
S31520006BE0002892D104A9284600F0E0F900288CD18B
S31520006BF003A940F2211001F036F8002885D1039B25
S31520006C001421DFF890233F6B4B43D118CF60049AB1
S31520006C108A602768F90725D509216846FDF724FAF1
S31520006C20390C01F00301C7F301108DF803108DF81C
S31520006C30020021680A0D02F007028DF8012028467D
S31520006C408B08C90801F0010103F001038DF8041037
S31520006C5000218DF8051069468DF8003008F0C3FE36
S31520006C60002801D10121B1714FE72DE9F84FDFF856
S31520006C702093824609F542760C463078904618B91C
S31520006C8042F2DD70BDE8F28F4FEA5A2509F54970C8
S31520006C90AAEB45254FEA5A2700900FE000985A465E
S31520006CA0A4EB0B044119404601F0BCF85D44B5F550
S31520006CB0007FD84424BFA5F500757F1C04B37078E7
S31520006CC078B1706887420CD3411C8F4209D2AAEB57
S31520006CD040256019B0F5007F94BFA346C5F5007B1B
S31520006CE0DCE700200099707001233A46484608F0F8
S31520006CF0D1FC002802BF012070707760E9D0C1E77F
S31520006D000020BFE72DE9F84FDFF8848208F54277A7
S31520006D103B7813B942F2DD704BE082464FEA5A24A3
S31520006D20AAEB44244FEA5A250E46914602E0A4F5E2
S31520006D3000746D1C002E3BD0387A90B1386985429C
S31520006D400CD3411C8D4209D2AAEB4024F868A042FC
S31520006D5010D000F0B0F80028EED02AE000F0ABF812
S31520006D6038BB14B142F2DE7023E000200121F86026
S31520006D703D6139723019B0F5007F08EB04004946B1
S31520006D8000F2245094BFB346C4F5007B5A465C44B7
S31520006D9001F048F8F968B4F5007FA6EB0B06D94454
S31520006DA05944F960C6D300F086F80028BFD000E029
S31520006DB00020BDE8F28F764A002092F810130029B1
S31520006DC018BF00F078B8704777480021C17101706C
S31520006DD00020704770B506466D4D95F808030C46A1
S31520006DE010B942F2DD7070BD284608F02AFC10B1B9
S31520006DF042F2E07070BD94B105F53870A419C169EE
S31520006E000068641EB4FBF0F2B2FBF1F2B6FBF0F0C0
S31520006E10B0FBF1F12846BDE8704008F031BD70BDE9
S31520006E2038B55B4C04F53F75287B10B942F2DD700E
S31520006E3032BD204608F005FC10B142F2E07032BDAA
S31520006E406946204600F0B2F838B900982968B0FBA8
S31520006E50F1F20021204608F013FD32BD38B50C00B2
S31520006E6027D04B4D30B101280ED002280ED0052850
S31520006E701BD01EE095F80803002814BF002042F21C
S31520006E80DD702060002032BD0020FAE769462846E2
S31520006E9000F08CF80028F6D1009AD5F8E012A1FB74
S31520006EA00201800A40EA8150EBE7D5F8E022226011
S31520006EB0E8E7042032BDF8B5354C204608F0C1FB82
S31520006EC010B142F2E070F2BD04F5447504F2245686
S31520006ED068684FF0FF37B0F5007F0AD094F8B012FB
S31520006EE00129C0F5007130440CBF3A46002204F057
S31520006EF073FB94F8B01200202870A868012918BFE7
S31520006F0000273A46012100F01EF810B942F2DB7044
S31520006F10F2BDAA6801233146204608F029FC88B92B
S31520006F20AA6804F5497701233946204608F0B2FBC2
S31520006F3040B94FF400723946304604F057FB08B189
S31520006F4042F2DF70F2BD2DE9F843114E05460C469C
S31520006F50904606F5497900E0E41BB4B1012C2A4697
S31520006F60494630468CBF012727463B4608F092FB10
S31520006F7048B9494600E0001DB0EB472FECD251F846
S31520006F80042B4245F7D0002000E00120BDE8F28323
S31520006F9094B22020C08020200100400000402C40D8
S31520006FA024C00F4018BB20209DB5202010B50246D6
S31520006FB002F53972137F0020072B14D8DFE803F07F
S31520006FC004060613090B0D10126807E054680C60BE
S31520006FD010BD926802E0D36803E012690A6010BD12
S31520006FE053690B6010BD042010BD000038B5DFF8D2
S31520006FF06045204607F0CDFAB0B92046C8340AF0DD
S3152000700043F878B900F01CF970B9009B1421DFF819
S31520007010442565684B43D118CD6022688A600121DA
S31520007020217332BD0023237332BDF0B585B00446EB
S3152000703000F01BFF002803D0E01C00F016FF0028FC
S3152000704000F086802268DFF8085505F1C806100F83
S315200070500B2840F07B800420002C1CBF317B0029AC
S315200070600DD0C2F30361012905F1E8060DD00029F0
S3152000707005D1204604F05CFA10B100213170DDE024
S31520007080A268012372603370D8E031780029FBD0E2
S31520007090227812F00F0FF7D10021012004910291DE
S315200070A004A900F0C2F90028EED102A9022000F0BE
S315200070B0BCF90028E8D10298DFF89C144FF0FF3481
S315200070C0884201A928BF0294052000F0AEF90028C5
S315200070D0DAD17768049E694603A804F05FFABE19E0
S315200070E0002828D1009902987F18B84238BF42F26A
S315200070F0D87020D30198401E064218BF42F2DE7097
S3152000710019D195F8BE00019BC10700980199B0FBE3
S31520007110F1F10246019858BF002400FB112210000D
S31520007120224618BF01204118B6FBF3F000F0EAF919
S3152000713010B942F2DB7081E0039A0099304600F0E4
S31520007140D1F800287AD100F026F977E00D2801D071
S31520007150042073E0F0212846FCF786FFDFF8FC03C5
S3152000716028600F2008F0DCFDDFF8F4130968C1F36E
S31520007170C221491CB0FBF1F06860DFF8E8032968FA
S315200071800268914205F12C0104BF002380F80833E0
S315200071902068020B02F007020A70C20D030AC70C10
S315200071A0000E00F0030003F0010302F001020128A3
S315200071B04B7007F001074A730F7341F2883240F68D
S315200071C0C41307D002D303280AD007D344F620607D
S315200071D0486006E042F210774F6002E04A6000E025
S315200071E04B602068C0F3005000280CBF8A608B607B
S315200071F02068000900F0E00008612068C0F34150D3
S3152000720000281DBF2068000D00F0060001204861FF
S31520007210284609F039FF78B900F012F870B9009BBA
S315200072201421DFF8302374684B43D118CC603268C0
S315200072308A600121317301E00023337305B0F0BD6C
S3152000724069464FF4907000F00EBD2DE9F84FDFF837
S315200072500093824609F1D4060C463078904618B938
S3152000726042F2DD70BDE8F28F4FEA5A2509F1F000AF
S31520007270AAEB45254FEA5A2700900FE000985A4678
S31520007280A4EB0B044119404600F0CCFD5D44B5F556
S31520007290007FD84424BFA5F500757F1C04B3707801
S315200072A078B1706887420CD3411C8F4209D2AAEB71
S315200072B040256019B0F5007F94BFA346C5F5007B35
S315200072C0DCE700200099707001233A46484609F011
S315200072D0B7FA002802BF012070707760E9D0C1E7B5
S315200072E00020BFE72DE9F84FDFF8648208F1D407C4
S315200072F03B7813B942F2DD704BE082464FEA5A24BE
S31520007300AAEB44244FEA5A250E46914602E0A4F5FC
S3152000731000746D1C002E3BD0387A90B13869A84293
S315200073200CD1411C8D4209D2AAEB4024F868A04218
S3152000733010D000F09DF80028EED02AE000F098F852
S3152000734038BB14B142F2DE7023E000200121F86040
S315200073503D6139723019B0F5007F08EB04004946CB
S3152000736000F53C7094BFB346C4F5007B5A465C4496
S3152000737000F058FDF968B4F5007FA6EB0B06D9445A
S315200073805944F960C6D300F073F80028BFD000E056
S315200073900020BDE8F28F6E4A002092F8DC1000290A
S315200073A018BF00F065B870476F480021C1710170A1
S315200073B00020704770B50546654E96F8D4000C46F9
S315200073C010B942F2DD7070BD304609F031FA10B1C5
S315200073D042F2E07070BD54B1690A65196D1E3046DF
S315200073E0C1EB5522BDE87040521C09F01ABB70BD96
S315200073F038B5574C04F1C805287B10B942F2DD7028
S3152000740032BD204609F014FA10B142F2E07032BDC6
S3152000741028686968A1FB002320460021520A42EA17
S31520007420C352BDE8384009F0FCBA10B5F1B14F4A55
S3152000743030B101280DD002280DD0052814D015E032
S31520007440107B002814BF002042F2DD700860002067
S3152000745010BD0020FAE714685368A3FB0423920AA0
S3152000746042EA83520A60F2E75068EFE7042010BD33
S315200074702DE9F041364C204609F0DAF910B142F2F6
S31520007480E0703DE004F1E00504F53C76286804F15F
S31520007490BE074FF0FF38B0F5007F09D03978CA070C
S315200074A0C0F5007130444CBF4246002204F094F8E7
S315200074B039780020B877CA0758BF804668684246A0
S315200074C0012100F01FF810B942F2DB7018E06A685B
S315200074D001233146204609F028FA88B96A6804F162
S315200074E0F00701233946204609F0AAF940B94FF49E
S315200074F000723946304604F079F808B142F2DF705E
