S0130000666C6173686C6F616465722E737265638C
S31520205A00A845002015B720207B5E20201D9D202024
S31520205A107B5E20207B5E20207B5E202000000000F5
S31520205A200000000000000000000000007B5E202017
S31520205A307B5E2020000000007B5E20207B5E2020D5
S31520205A403DB7202045B720204DB7202055B7202010
S31520205A505DB7202065B720206DB7202075B7202080
S31520205A607DB7202085B720208DB7202095B72020F0
S31520205A709DB72020A5B72020ADB72020B5B7202060
S31520205A80BDB7202013CA202013CA202013CA2020C5
S31520205A90E3B02020C5B72020CDB72020D5B72020A1
S31520205AA013CA202027C92020DDB7202013CA202072
S31520205AB0E5B72020EDB7202013CA202013CA2020A6
S31520205AC0F5B72020FDB7202013CA202013CA202076
S31520205AD013CA202013CA202013CA202013CA20200C
S31520205AE013CA202013CA202013CA202013CA2020FC
S31520205AF013CA202013CA202013CA202013CA2020EC
S31520205B0013CA202013CA202013CA202013CA2020DB
S31520205B1013CA202013CA202013CA202013CA2020CB
S31520205B2005B8202013CA20200DB8202015B8202003
S31520205B301DB8202013CA202013CA202013CA2020B3
S31520205B4013CA202013CA202013CA202013CA20209B
S31520205B5025B8202013CA20207567202013CA20208C
S31520205B6013CA202013CA202013CA202013CA20207B
S31520205B7013CA202013CA202013CA202013CA20206B
S31520205B8013CA202013CA202013CA202013CA20205B
S31520205B9013CA202013CA202013CA202013CA20204B
S31520205DF013CA202013CA202013CA2020FFFFFFFF0A
S31520205E00002A01D101207047F0B41F4603460324FF
S31520205E102340002B09D00424E31A017001300824E2
S31520205E20E141521E26D05B1EF7D1042A1ADB13D05D
S31520205E30002F11D00C460D460E46102A02DB72C0CA
S31520205E40103AFAE70C2A02DB32C00C3AFAE7082A83
S31520205E5002DB12C0083AFAE7042A03DB0160043089
S31520205E60121FF9E7002A05D0017001300824E141EC
S31520205E70521EF7D1F0BC00207047FEE7156C20207B
S31520205E80000000002B6C2020000000000F6D202039
S31520205E90956E2020EF6C20209B6D2020736F202074
S31520205EA0000000000000000000000000656C20209B
S31520205EB0000000003B6C20209B6D2020936F20202B
S31520205EC000000000F16F202000000000CB6B202076
S31520205ED000000000956C202000000000000000003B
S31520205EE000000000157020200000000037702020C0
S31520205EF00000000063702020956E2020AB6C2020AF
S31520205F00000000000000000000000000000000004B
S31520205F10000000000000000000000000000000003B
S31520205F20B71DC1046E3B8209D926430DDC760413A6
S31520205F306B6BC517B24D861A0550471EB8ED08263D
S31520205F400FF0C922D6D68A2F61CB4B2B649B0C35DA
S31520205F50D386CD310AA08E3CBDBD4F3870DB114C87
S31520205F60C7C6D0481EE09345A9FD5241ACAD155F6A
S31520205F701BB0D45BC2969756758B5652C836196A73
S31520205F807F2BD86EA60D9B6311105A6714401D795E
S31520205F90A35DDC7D7A7B9F70CD665E74E0B6239808
S31520205FA057ABE29C8E8DA191399060953CC0278B72
S31520205FB08BDDE68F52FBA582E5E66486585B2BBEF9
S31520205FC0EF46EABA3660A9B7817D68B3842D2FAD16
S31520205FD03330EEA9EA16ADA45D0B6CA0906D32D4B9
S31520205FE02770F3D0FE56B0DD494B71D94C1B36C7EE
S31520205FF0FB06F7C32220B4CE953D75CA28803AF2F7
S315202060009F9DFBF646BBB8FBF1A679FFF4F63EE151
S3152020601043EBFFE59ACDBCE82DD07DEC7770863416
S31520206020C06D4730194B043DAE56C539AB06822785
S315202060301C1B4323C53D002E7220C12ACF9D8E12C4
S3152020604078804F16A1A60C1B16BBCD1F13EB8A01F9
S31520206050A4F64B057DD00808CACDC90C07AB977886
S31520206060B0B6567C69901571DE8DD475DBDD936BC9
S315202060706CC0526FB5E6116202FBD066BF469F5EAA
S31520206080085B5E5AD17D1D576660DC5363309B4D7D
S31520206090D42D5A490D0B1944BA16D84097C6A5AC0B
S315202060A020DB64A8F9FD27A54EE0E6A14BB0A1BFD1
S315202060B0FCAD60BB258B23B69296E2B22F2BAD8A00
S315202060C098366C8E41102F83F60DEE87F35DA999B5
S315202060D04440689D9D662B902A7BEA94E71DB4E078
S315202060E0500075E4892636E93E3BF7ED3B6BB0F34D
S315202060F08C7671F7555032FAE24DF3FE5FF0BCC62E
S31520206100E8ED7DC231CB3ECF86D6FFCB8386B8D570
S31520206110349B79D1EDBD3ADC5AA0FBD8EEE00C6950
S3152020612059FDCD6D80DB8E6037C64F643296087A56
S31520206130858BC97E5CAD8A73EBB04B77560D044FA9
S31520206140E110C54B383686468F2B47428A7B005C2A
S315202061503D66C158E4408255535D43519E3B1D25E3
S315202061602926DC21F0009F2C471D5E28424D19361A
S31520206170F550D8322C769B3F9B6B5A3B26D615035F
S3152020618091CBD40748ED970AFFF0560EFAA01110AE
S315202061904DBDD014949B93192386521D0E562FF154
S315202061A0B94BEEF5606DADF8D7706CFCD2202BE2A2
S315202061B0653DEAE6BC1BA9EB0B0668EFB6BB27D7E5
S315202061C001A6E6D3D880A5DE6F9D64DA6ACD23C4E6
S315202061D0DDD0E2C004F6A1CDB3EB60C97E8D3EBDF5
S315202061E0C990FFB910B6BCB4A7AB7DB0A2FB3AAE1E
S315202061F015E6FBAACCC0B8A77BDD79A3C660369B63
S31520206200717DF79FA85BB4921F4675961A16328821
S31520206210AD0BF38C742DB081C330718599908A5D36
S315202062202E8D4B59F7AB085440B6C95045E68E4EB5
S31520206230F2FB4F4A2BDD0C479CC0CD43217D827B30
S315202062409660437F4F460072F85BC176FD0B8668C9
S315202062504A16476C93300461242DC565E94B9B1162
S315202062605E565A1587701918306DD81C353D9F02F9
S3152020627082205E065B061D0BEC1BDC0F51A6933796
S31520206280E6BB52333F9D113E8880D03A8DD097244D
S315202062903ACD5620E3EB152D54F6D4297926A9C5D7
S315202062A0CE3B68C1171D2BCCA000EAC8A550ADD681
S315202062B0124D6CD2CB6B2FDF7C76EEDBC1CBA1E3EC
S315202062C076D660E7AFF023EA18EDE2EE1DBDA5F005
S315202062D0AAA064F4738627F9C49BE6FD09FDB88934
S315202062E0BEE0798D67C63A80D0DBFB84D58BBC9AFD
S315202062F062967D9EBBB03E930CADFF97B110B0AF9A
S31520206300060D71ABDF2B32A66836F3A26D66B4BCC0
S31520206310DA7B75B8035D36B5B440F7B109000000C5
S315202063205977202000000000000000005A04180899
S315202063300830FF2400000000000000005A0518093C
S315202063400831FF2500000000000000005A06180A28
S315202063500832FF2600000000000000000000000098
S31520206360000000000000000000000000197220201C
S315202063703F74202063742020E974202081752020FA
S315202063806576202005B0202081B020209DB02020B9
S315202063900000000000000000D1B02020497F2020EE
S315202063A0997C2020F17C2020D97D2020157E20203C
S315202063B0257E2020717D2020DDC92020E5C92020B2
S315202063C0F1C9202001CA2020000000000000000082
S315202063D00100000001000000116720208463202096
S315202063E0946320202C64202010000000010000004F
S315202063F0000000007C642020000000008C64202007
S315202064000000000000000000000000000000000046
S3152020641000000000000000001DB1202039B12020FE
S31520206420E7B12020A5B22020342A002091B32020B5
S3152020643097B3202081B4202019B5202095B3202081
S3152020644025B5202071B3202061AA2020E9AA20206A
S3152020645000000000E9AA20200000000081AB2020B7
S31520206460C9AB20200000000071AC2020A7AC202042
S31520206470FBAC20203BAD20206FAD20207DC52020E9
S3152020648089C6202067C72020BFC72020CDC720202F
S31520206490F1C7202075C820200DC920201DC9202005
S315202064A021C920200000000038B504465A4D00207E
S315202064B0A865C5E90E00C5E91000C5E91200E86502
S315202064C0564800F0EBF8C5E9140120460FF2B90131
S315202064D0BDE8344000F05CB900F06FB9F8B50C4641
S315202064E04D4EB16D072904BFF26D904249D100214E
S315202064F006EB8102491C536815685B1B0329D3616F
S31520206500F6D3756AF76972693169B369511AB1622E
S315202065109A1A64235D43F262B5FBF7F73C3F0E2FB0
S3152020652010D2376AB5FBF7F5403D052D0AD85943D9
S31520206530B1FBF2F2813A0A2A3EBFB1FBF7F181394B
S315202065400A2902D3FFF7B0FF1BE000F0C4F9054665
S31520206550C5EB0515D6E90E23D6E9100182184FF48E
S315202065609666B5FBF2F00A250A2368434FF4966215
S31520206570B0FBF6F6761D0020B6FBF3F353432360DB
S31520206580F2BD0120F2BD00002DE9F843224E074638
S3152020659000F07AF8B26D0446D6E912598846521C84
S315202065A0651BD6E9140168EB0909494502D82CBF99
S315202065B0A8420122012AB26506D0042A0AD0052A39
S315202065C010D0072A11D01AE0C6E90C48C6E90E4891
S315202065D0F76514E0D6E90E01201A68EB0101C6E919
S315202065E00E010CE0C6E9104809E0D6E91001201A70
S315202065F068EB0101C6E91001384600F0DEF8B26DDD
S3152020660006EB8203D6E90C01271A43F8047CC6E957
S315202066101248BDE8F1830000001C002080380100CC
S3152020662010B52348234A0168002341F440510160D4
S315202066300020106020484FF0FF3101220161836144
S31520206640C261846944F004048461826942F00102B3
S31520206650826101600121C160816000F03CF9C000A7
S315202066601649B0FBF1F000B90120154A906010BD03
S315202066701148002181618160016101600D48026815
S3152020668042F002020260704781B00E4801684268DB
S315202066900092009801B0C943C043704708498A68D0
S315202066A0A2FB0001C00840EA4170C90870470000DB
S315202066B06CC00F40004008400041084040420F0077
S315202066C0601C0020E04008400901020002D4454811
S315202066D081547047444B02F00F021A4402F8041CDE
S315202066E0704710B5039C01F00701240104F0100423
S315202066F02143016002B1136010BD7CB5069C0025A4
S31520206700019547F2B0060094FFF7EBFF266073BD94
S315202067107CB5364C3648374A19B102291CD009D3C4
S3152020672073BD35480025016041F2B0012160056026
S31520206730216073BD002600920196002300220521A8
S31520206740FFF7CFFF63682D4823F4805363600168E9
S3152020675021F40071016073BD0092002300220021E4
S31520206760FFF7CBFF00940023002200212248FFF7C9
S31520206770C4FF73BD10B5224C2068800507D521495A
S31520206780496821B1012088474FF40071216010BD4E
S3152020679010B51C4B1C4C596004220921204600F0C0
S315202067A0DFF863690121462043F400736361FFF714
S315202067B08BFF40201549086010BD80B54020144924
S315202067C00860BFF34F8FBFF36F8F00214620FFF75E
S315202067D07BFF002209210C4800F0C2F8002009493D
S315202067E0486001BD00E400E018ED00E044811F4030
S315202067F098801F4048811F4094801F4004801B4062
S3152020680018801B402C2A002000801B4008E100E035
S3152020681088E100E0002808BF00F02FB970473C48E7
S315202068203C4A01684FF0004341F0030101604020BB
S315202068301060394883634FF08041816300220260D3
S315202068403648036843F4C013036035480168490875
S3152020685049000160012070474EE0002A70B518BF1C
S31520206860012A37D12F4C304825680368AD09002AE4
S3152020687023F060730CBF0FF2C0020FF2D00249B38F
S315202068800A2928BF012112F8116002EB41014A781A
S31520206890264906F03F0646EA85150E68521ED20581
S315202068A002F06072134346F002060E60426E22F416
S315202068B0406242662668B54218BF25600468A34216
S315202068C018BF0360426E42F440624266086820F098
S315202068D00200086070BD1648164A01688068136851
S315202068E0C1F30121491C00F03F00401CB3FBF1F10C
S315202068F0B1FBF0F0704700000D480E4900680A6889
S31520206900C0F30120401CB2FBF0F0704700000000CD
S3152020691080C00F4014800D4000900D40B0810D4066
S3152020692040410E40F0800D401CC00F4000000A4020
S3152020693014C00F40980000200000220816081806D0
S315202069401E0412060E0611041A021602000018064C
S3152020695016040C061E021203160221011A01160124
S31520206960F0B5C369012404FA01F5AB431029C361AC
S3152020697032BF00F10C0300F1100310394900032621
S315202069808E40F743521E042A1DD8DFE802F0030763
S315202069900D151900186807401F60F0BD1A688C4035
S315202069A017403C431C60F0BD1C68022505FA01F106
S315202069B0274039431960F0BD186806431E60F0BD94
S315202069C0C1690D43C561F0BD314B18473149084790
S315202069D031490847F8B5002346A454F82350854268
S315202069E002D05B1C032BF8D947A42C4D34F9133045
S315202069F0032603F01F041B0A05EB830306FA04F47F
S31520206A001F68A7433C431C60254B98470020F2BDB6
S31520206A10244A1047244908472449084710B5244CBE
S31520206A20A04710BD234A104710B5234CA04710BDC0
S31520206A302249084710B5224CA04710BD21490847B6
S31520206A40214A1047214A104738B50D462049884704
S31520206A5004000BD01F4A904725B1206840F40060DF
S31520206A60206031BD216821F40061216031BD1A49A1
S31520206A7008471A4A10471A4B184780B519488047A5
S31520206A8019491A4B0A681A6001BD194B184700008C
S31520206A904B902000A78D20000B8E200068C00F4031
S31520206AA0318E2000BB8D2000218E200087C620001D
S31520206AB025C0200075BB200015C820003FBA200025
S31520206AC0CDC120007DC8200025BE200039C320004E
S31520206AD0F1C2200093C82000D9922000DF93200005
S31520206AE05D93200067CF2000003A202098000020C8
S31520206AF025C22000000000000040184000801840D9
S31520206B0000C0184000001940FFFF18051C000C008B
S31520206B1018010000DFF8441600200A69D36818609F
S31520206B207047F8B5DFF834660024F0698DF8004008
S31520206B304569002D47D03169C9680F68012F31D0AA
S31520206B406C6801F108020023091DA04704001FBF1D
S31520206B5042F21270844242F213718C4233D1306950
S31520206B60C268916800292ED0546823781D0007D04A
S31520206B70162B05DA806800EBC305A5F1080000E096
S31520206B800020002810631CBF0268002A03D020465C
S31520206B900024904713E042F210741946204600F054
S31520206BA078FA10E0086B58B1416811B168468847D9
S31520206BB004460CB1002003E09DF8000000B101201E
S31520206BC03169CA6810602046F2BD0178002000F0A5
S31520206BD060FADFF88825D06941690A699047022042
S31520206BE000F0EAFABFF34F8FDFF87415DFF874054B
S31520206BF00A6802F4E06202430A60BFF34F8F00BFA7
S31520206C00FDE7DFF8580524210269D36803F10C003B
S31520206C1000F0FEBA10B504466068092802D100F0BB
S31520206C205DFD00E0042021786EE0DFF8303570B578
S31520206C3000F0A9F9AE69B047A1E110B50446FFF7E7
S31520206C40E0FFDFF8180562680169C868082102613B
S31520206C5080F820102178002000F01BFABDE8104093
S31520206C6000F07EBF7CB5DFF8F4440022E56801926F
S31520206C700092816840686B46AE6801AAC0B2B047D0
S31520206C8022690021D3681961009A0199920800F09F
S31520206C9006FA73BDDFF8C42438B5D3680446606885
S31520206CA0A168DD68C0B2A847B0E138B50446042003
S31520206CB06168092904BFA06800F0B0FA6268C2F3AF
S31520206CC0032101290FD16946104601F009F950B94F
S31520206CD0009DDFF8882414219368A0684D43591914
S31520206CE00A6913699847217800F0D3F931BD10B588
S31520206CF00446FFF786FFDFF86404E268016904236F
S31520206D0000F015F821780020BDE81040C1E110B52B
S31520206D100446FFF776FFDFF84404E268016903237F
S31520206D2000F005F8A1680020BDE81040D2E1C8682F
S31520206D308261A16801616268426180F820307047D3
S31520206D4038B50446DFF8145428690021C06841610B
S31520206D50016190F82000042804D129680A69904707
S31520206D6004B9044628684169884704B90446286935
S31520206D70C168204691F8201000F08BF942F212705B
S31520206D80844201BF2969CA6892F82000082803D1C5
S31520206D90BDE8314000F027BF31BD2DE9FE4300F08C
S31520206DA0E2F811B900F0DBF871E0012101233170FE
S31520206DB0D0F818900569D0F8148000206A460090F3
S31520206DC0F86901A94469D4F804C0E04704000AD030
S31520206DD0F8694169CA6890472046FFF7B1FF00212C
S31520206DE00020317054E0009830B942F21270FFF73B
S31520206DF0A7FF002030704BE0A842396988BF28467B
S31520206E000090C86890F82010082912D10199C160F5
S31520206E10009AC2610099019800F0ACFE044642F225
S31520206E207D7084421CBF42F274718C4216D100249C
S31520206E3014E0132907D1009A0199404601F0AAF8B7
S31520206E40009880440AE03C68019A00994B464046C7
S31520206E50D4F808C0E04700990446884400982D1AA3
S31520206E6005D12046FFF76CFF002131700FE04CB191
S31520206E70F8694169CA6890472046FFF761FF0020DC
S31520206E80307004E03969C9680D61C1F8148000208A
S31520206E90BDE8FE832DE9F84F00F065F811B900F022
S31520206EA05EF859E00121DFF8C0A231708269009294
S31520206EB00569D0F81480C46890F820B0F869416933
S31520206EC04A6990478146A94588BFA946ACB14A461A
S31520206ED02146504601F05EF8F869A5EB0904012306
S31520206EE04A4651464569D5F808C0E04704B170B3F3
S31520206EF0FFF726FF002030702EE0BBF1030F09EBB1
S31520206F00080419D1D7F800C04046009B524649466E
S31520206F10DCF80480C0475FEA000BA046DCD0F86985
S31520206F200123002251464469A568A8475846FFF701
S31520206F3007FF0020307010E0BBF1130F01D0A046D0
S31520206F40CAE74A464146504601F024F8F7E7386911
S31520206F50C0680461C0F814800020BDE8F28F0022AA
S31520206F6000203270ECE606467C4F3869C0680169FD
S31520206F7070477A4B70B500F006F8EE68B047217856
S31520206F80BDE8704085E01D680446E268A168606817
S31520206F9070472DE9F0410546744F6E68D5F8088074
S31520206FA0E8680024386018B101F02FF800B90424CD
S31520206FB0304601F013F800B904242978204600F041
S31520206FC068F89CB97E60002000F0F6F8C7F80880A3
S31520206FD0386818B180F3088880F309887968404694
S31520206FE088470020BDE8F04100F0E6B8BDE8F081F2
S31520206FF038B50446606800F0F1FF08B9042005E0A2
S315202070006568012000F0D8F8A068A8472178BDE857
S3152020701034403EE038B5044601F0E2F8A3686168C2
S3152020702004F10C02524801F021F9054601F0DEF860
S3152020703021782846EBE73EB500210446CDE900110C
S3152020704001F0CEF8A36861686A46494801F06CF9D8
S31520207050054601F0CBF8A2686946284600F055F887
S3152020706037BD38B504461025FFF7CBFD3B48A2682F
S315202070700169C9680A6163684B6181F820500069FB
S31520207080E168C268002082F82110A168BDE834405A
S3152020709070E03EB5002400F02CF8A0231EE070B549
S315202070A0002588B0A7248DF801508DF800400026B1
S315202070B0551C01908DF8026000208DF803506C46F7
S315202070C005E004EB800551F82030401CAB6090424F
S315202070D0F7D336E03EB500F00BF8A3238DF8003029
S315202070E00023029144690C226946A568A84737BD2A
S315202070F0012401908DF8014002248DF80340174C7D
S31520207100E06900258DF80250704770B5002588B0BB
S315202071108DF80150AF24002602258DF800408DF8E9
S3152020712002608DF80350019050B99DF80300029219
S3152020713000EB920403A88DF8034000F02BFF00E01B
S31520207140029606489DF80320C069002369464469B3
S315202071509200121DA568A84708B070BD1000002017
S315202071600CED00E00400FA05501E002044220020E9
S3152020717000401F403EB5FFF7BBFFB023AEE730B43B
S31520207180002513E050F8042BD30744BFA9F10103AF
S315202071909A18091F042942F8045BFAD213468C0751
S315202071A044BF15809B1CC90748BF1D7050F8041B7F
S315202071B00029E7D130BC7047012870B504461DD080
S315202071C00025114E05E07018C168896801B18847ED
S315202071D06D1C1821694370580028F4D174B900F029
S315202071E0FFFFFFF745FA01F017F90020074908604D
S315202071F00120FFF70FFB01F058F962B6BFF36F8F1E
S31520207200BFF34F8F70BD00BFD063202008ED00E074
S31520207210002201F061B90000012070472DE9F84FC6
S31520207220ADF5007D054600F0D9FE00284FF0040A72
S3152020723028D005F2FF1000F0D1FE002822D02868A1
S31520207240DFF8C075DFF8C085010F0C291BD12A462F
S315202072504146002001F04EFC5FEA000A12D10020B0
S315202072604146387001F052F95FEA000A0AD100201F
S31520207270FFF7DEFB6946102000F06EFA002800F0AA
S315202072808B80824680E0DFF88415884239D1387891
S31520207290002800F0CB8040460026FFF7BDFB0546A0
S315202072A0002DC14608F5E07440F08480DFF860B5F3
S315202072B04FF40071584600F061FE002800F0A380AC
S315202072C0A07A78B1002008F101010DF101030A5CB2
S315202072D00DF8002018F800201A54801CB0F5007FE5
S315202072E0F5D3E9464A464FF40071584600F0B9F8DE
S315202072F05FEA000A7DD04FF40071584600F06BFA01
S3152020730083E0DFF81015884206D14FF40072294613
S31520207310404600F03FFEA2E7000F0E2839D13878EC
S3152020732090B3284602F0ECF870B3284602F00CF908
S315202073305FEA000A28D10120787000254FF0C04648
S315202073406A4601A9284602F0F2F9D0B9002D1DBFC0
S31520207350DFF8C414086800F1C04030464FF40071AD
S3152020736000F0E5F868B1002D019A00991DBFDFF8DD
S31520207370A804006800F1C040304600F072F800F002
S31520207380FFF86D1C012DDBD950460DF5017DBDE89A
S31520207390F08F00207870F7E7009D6FF02040DFF80F
S315202073A07C1401224FF0C0438A6345190B634D6339
S315202073B03A703BE04FF4007241466846E94600F0B9
S315202073C0E9FDD8F8400020F00400C8F840002168E4
S315202073D049082160606840086060216900204908CA
S315202073E02161414601F092F800283FF45FAF012643
S315202073F00DE000F0C5F85FEA000A07D0616858461C
S3152020740000F030F901E042F2DB7A012665B14FF433
S3152020741000724946404600F0BDFD4146002001F05D
S3152020742075F85FEA000AAFD1002EADD17878002812
S3152020743083D102F076F90028A6D00120AAE710B53C
S315202074401346DFF8C043227812B942F2DD7010BD10
S315202074500A46DFF8C843216BBDE81040411A18467A
S31520207460C5E12DE9F8430546DFF8987338780C46B0
S31520207470914618B942F2DD70BDE8F28394B3B8780C
S31520207480DFF8841368B9D1F8C021521E154202D0E4
S3152020749044F68960F0E701200022B870BA607D604A
S315202074A004E0B8687A681018A84216D1B868D1F8CE
S315202074B0C08121184145494634BF2646A8EB0006FF
S315202074C0384432461030751900F064FDB868A41B84
S315202074D0B14430184045B860D0D100F051F800288A
S315202074E0CCD0C9E70020C7E776B50D460646DFF89B
S315202074F01413087810B942F2DD7076BDAC08A400CA
S3152020750005F0030507E001AA04213046FFF7A9FF6D
S3152020751060B9361D241F002CF5D12DB101AA29468C
S315202075203046FFF79EFF08B900F02AF876BD70B5E1
S31520207530ADF5806D05460C4601E0A41B7519DCB11E
S315202075404FF48066B4F5806F284698BF264600F013
S315202075503EF901463246684600F049F96846002140
S3152020756000E0491CB1EB960FE7D250F8042B12F11C
S31520207570010FF6D0002000E001200DF5806D70BDB2
S315202075802DE9F8439F4E0024B078ADF5806D002874
S3152020759062D0B4709C4DD5F8C041B068A04206D0C8
S315202075A0211A06F11003FF22184402F08FF9706881
S315202075B02146FFF7BCFF10B942F2DB704DE0D5F82B
S315202075C0C011706802F0C8F840B1D5F8C0117068B3
S315202075D006F1100202F0D9F804003DD18F4F7468CD
S315202075E000F0FEFD386B06F110032946221A0020F2
S315202075F001F08DF8044600F0F9FD0020002CB07033
S31520207600B06029D186480268D10304D5D5F8C011A7
S31520207610726800F08FF806F11008D5F8C051766808
S3152020762003E0A5EB09054E44C844ADB14FF480696B
S31520207630B5F5806F396B684698BFA9464A46711AB8
S3152020764000F0D5F84A464146684602F049F9002816
S31520207650E7D044F68A6000E020460DF5806D01B023
S31520207660BDE8F08370B50446664A107810B942F218
S31520207670DD7070BD644AD2F8C451684200EA04061F
S315202076800C19644204406442A41B2146304600F073
S31520207690A2F810BB2946304602F0EAF86048016875
S315202076A0CA0311D5002D31460EDD01F01F004519E4
S315202076B0BFF34F8F5B4A11602031203D002DFADC2D
S315202076C0BFF34F8FBFF36F8F21463046FFF72FFF33
S315202076D010B944F68A6070BD002070BDE0B54949D6
S315202076E0087810B942F2DD700EBD4749002001F01E
S315202076F064F8F0B901A9012000F02EF8C8B969462E
S31520207700102000F029F8A0B90099019802F0B0F8CD
S3152020771043480168CA0303D50099019A00F00AF864
S315202077200099019800F02AFC10B944F68A600EBD13
S3152020773000200EBD00290EDD02F01F004118BFF3E8
S315202077404F8F384B1A60203220390029FADCBFF3BC
S315202077504F8FBFF36F8F7047002930B52DD02A4C1D
S3152020776004F5E07260B1012814D0022815D0032830
S3152020777018D0042819D0052819D010281AD01CE092
S31520207780204A1078002814BF002042F2DD700860BD
S31520207790002030BD4FF0C040F9E700F010F8AD0AC8
S315202077A00D60F5E713680B60F2E75068EFE7106984
S315202077B018B1ECE700F003F8F2E7042030BD256D80
S315202077C0636DA26DE06D5D19551945197047134AF1
S315202077D0116B401A704710B50C46FFF7F8FF234669
S315202077E0024609490020BDE8104001F0DBBD80B5E6
S315202077F000920B4602460449002001F00FFE02BDEE
S3152020780000000000E0250020E02300200F0000F0EB
S3152020781000040060464346425C23002048000020A6
S3152020782014ED00E05CEF00E0416882688A4209D2CC
S31520207830891A826641600FF29D21016001228260B1
S315202078400020704742F2787070470FF209010160DC
S315202078500020704710B5416ADFF814444A89828295
S31520207860CB689B1E43604A68A24202D1097A02292C
S3152020787002DB42F2757010BD0FF209020260002071
S3152020788010BD0000416A43684A6882610A68D21E98
S315202078909A42826002D342F2767070470989002983
S315202078A008BFFFF7C1BF42F277707047F8B504468C
S315202078B0DFF8C063B4F85A30376804F15C05626A91
S315202078C06968D7F808C01806000F1B0A43EA002368
S315202078D02868E047A0B930680169884780B9616A7D
S315202078E0102204F11C0002F011F800F044F8009850
S315202078F0A968884200D043E00FF2D91020600020EA
S31520207900F2BDF8B504461022616A04F11C00DFF8A6
S31520207910646304F15C0501F0F9FFB4F85A30376846
S31520207920626A10211806000F1B0AD7F808C043EAFE
S3152020793000232868E047E8B928681030286068685E
S3152020794010381028686088BFDFF82C0310D810B1B3
S31520207950DFF828030CE030680169884750B900F029
S315202079600AF80098A968884200D009E00FF265102D
S3152020797020600020F2BD694604F11C0001F0DBBF27
S3152020798042F27A70F2BD10B5044604F11C0001F0D3
S31520207990B7FF216E11292CBFB748B8482060002098
S315202079A010BD38B5B34B426E1C68016EC06DE568BC
S315202079B0A84732BDB0F85A2013061B0F110AD2074A
S315202079C041EA03214CBF08230423042901D00420A3
S315202079D0704700F16002C16DA94800F047BC70B520
S315202079E0044642F27F76E56D284600F0F7FA80B10C
S315202079F0606E04F11801A8470646012E03D12046C1
S31520207A00BDE8704010E7022E03D100F0A9F800202F
S31520207A1070BD304670BD10B5436800F15C025168D8
S31520207A2081608B4202D242F2767010BD147AE3072F
S31520207A3007D512688469A24203D111B1C160002002
S31520207A4010BD90F85A10CA0702D542F27C7010BD9C
S31520207A50BDE81040E8E638B5B0F85A108A070CD4AD
S31520207A600B061B0F0A0AC90742EA032207D5092A51
S31520207A7003D1BDE83140FFF731BE042032BD7D4B16
S31520207A805C301C6841680068A569A84732BD0000A3
S31520207A901CB50446B4F85A000106090F000A40EA2C
S31520207AA00120092803D1E06DFFF7B8FB16BD012977
S31520207AB00ED1694600F014FA58B9E06D009C6D4A43
S31520207AC0142193684C4319190A691369984716BDDE
S31520207AD0042016BDF8B5044604F15806616A3046DE
S31520207AE010225A2500F056FA0120375C401CED1949
S31520207AF01028FAD3307805F0FF05A84202D042F2AA
S31520207B007970F2BD717842F212700A2925D8DFE801
S31520207B1001F01A060A0E26121A16261C20002046C6
S31520207B20BDE8F24077E72046BDE8F2402BE7204625
S31520207B30BDE8F24035E72046BDE8F2404FE7204633
S31520207B40BDE8F24087E70020F2BD2046BDE8F2409E
S31520207B509EE72046BDE8F2402CE742F27B70F2BD3C
S31520207B6010B5484C70212046FFF752FB464A00208C
S31520207B70226010BDF8B506460C4600200027434D4E
S31520207B80A74218D02969E01BC1F1100109E080B174
S31520207B902B69F25D7F1C491E401EEA542A69521C1D
S31520207BA02A610029F3D10020286100F005F810B9B8
S31520207BB0E6E742F27D70F2BD80B53248334A426212
S31520207BC0C26800212AB1036993420AD05B1C036153
S31520207BD001E0826E1AB901688847014601E0521EEB
S31520207BE08266084602BDF8B5224C2068016988477E
S31520207BF000283CD1234F97F85900042823D107F198
S31520207C005C052E68304600F0E9F9C8B10020FFF760
S31520207C10D3FA97F85A00810710D568686861616899
S31520207C2060B10A68904222BF4968491C814201D22C
S31520207C300420F2BD80F3088880F30988A868B0471D
S31520207C4042F27E70F2BD08280FD10220FFF7B4FA47
S31520207C50BFF34F8F0E490F480A6802F4E0620243B1
S31520207C600A60BFF34F8F00BFFDE742F27B70F2BD63
S31520207C7053544D501000002003792020AD78202029
S31520207C8000401F40082B00204B7820207C2B0020F2
S31520207C900CED00E00400FA057CB50C0016460546DE
S31520207CA01A4601D1002076BD100A10F00F0002D00E
S31520207CB001280AD019E06A46284600F0BBF8B0B958
S31520207CC000F0A2F86568A84776BD6B46284600F0E6
S31520207CD0D5F860B90098A74A036928469969516062
S31520207CE05B6832462146984776BD42F2D87076BDEB
S31520207CF0F8B50C00174606461A4601D10020F2BDDB
S31520207D00100A10F00F009B4D02D0012816D02CE02F
S31520207D10304600F0FAF840BB6A462146304600F04D
S31520207D2089F820BB009B214630463A46DC68A66867
S31520207D30B047B8B90099CA68136911E06B46304636
S31520207D4000F09CF898B900983A460369304699691C
S31520207D5069609B682146984720B900990A6953692A
S31520207D602B60F2BD00212960F2BD42F2D870F2BD0F
S31520207D707CB5130A13F00F0305460C4642F2D8763B
S31520207D8002D0012B14D025E06A4600F053F8F0B932
S31520207D900099CA68506998B12146284600F0B5F85E
S31520207DA0C0B9009A21462846D3685C69A04776BD8B
S31520207DB06B4600F063F850B900980169CA6812B979
S31520207DC042F2E57076BD21462846904776BD14B905
S31520207DD0002076BD304676BD7CB50C00054616467D
S31520207DE001D1002076BD00F090F810B142F2D87073
S31520207DF076BD6A462146284600F01CF818B900F0C0
S31520207E0003F8E568A84776BD009B214628463246DA
S31520207E10DC68704710B5574C206810B18047002188
S31520207E20216010BD10B5534C606810B180470021E9
S31520207E30616010BDF0B516000D4642F2D8771FBFFF
S31520207E404D494A683260002D16D001E01033336048
S31520207E5033688BB11A68002A04BF5C68002C01D1D4
S31520207E60D96849B1904224BF59688142EED3281857
S31520207E70401E814228BF00273846F0BD002B42F203
S31520207E80D87CF0B5064617461FBF3B4882681A6045
S31520207E90002923D002E005F114041C601D68EDB1F1
S31520207EA02A68002A04BF6C68002C07D1A8680028FD
S31520207EB004BFEC68002C01D1286978B19742EAD119
S31520207EC0AA68E8680027A0FB0245701847EB07013F
S31520207ED08D4203D301D8844200D3BC466046F0BDF0
S31520207EE070B505460420002671B1234A946801E026
S31520207EF0761C143444B1236833B12269002A03D076
S31520207F009D42F5D10E60002070BDF0B509181A4BA0
S31520207F10491E00225F68DC68256905EBC20606F14A
S31520207F2070041601BD5966682468AC4208BFAE426B
S31520207F3003D0864228BFA14204D2521C012AEAD964
S31520207F400020F0BD0120F0BD70B50B4D6E6803E01A
S31520207F50006800B180471036F0680028F8D1AD6857
S31520207F6003E0096801B18847143529690029F8D129
S31520207F7062BD0000102A00201000002002460120A9
S31520207F8000E0491E21B112F8013BFF2BF9D0002039
S31520207F90704700004AB1000011F8013B521E00F83C
S31520207FA0013B1CBF11F8013BF8E7704738B5044662
S31520207FB00D460020FFF700F9754800210560754A17
S31520207FC044601160036883F3088883F30988406836
S31520207FD080470020BDE83240FFF7EEB800281CB5C8
S31520207FE01EBF10F1010F6C49884201D1002016BD19
S31520207FF06A4602210024FFF71DFF20B90098017A46
S31520208000CA0748BF0124204616BD10B5024663493B
S3152020801000204B6800E01033D96861B11C7A04F047
S315202080201104112CF7D119689142F4D25C68641C92
S315202080309442F0D3012010BD2DE9FE4F00F0CAF85E
S3152020804000F031FA554EDFF85891F0684C46016819
S3152020805088470020FEF7DEFBFEF7E2FA306801684B
S315202080608847F26850688047F1680A6902F18005DE
S3152020807009E0297C014205D0E2686069536881695C
S3152020808020469847183420680028F2D14FF47A7079
S315202080900024FEF703FBA04682468B46CDE9004806
S315202080A000F0E5F998BBFFF799FF80B3F0680169E6
S315202080B091F89E20D00703D400210020FFF776FFD9
S315202080C0688A4FF6FF71884208BF41F28830AAFBA2
S315202080D000230BFB0033CDE90023FEF7D5FA044617
S315202080E08846DDE90001002908BF00280FD0FEF7C9
S315202080F0CBFA001B61EB0801DDE90023994206D368
S3152020810001D8904203D300210020FFF74FFF4F468E
S3152020811000E0183738680028E3D0297C0142F8D0BF
S31520208120FB683846D3F800C0E0470028F1D0002F5E
S31520208130D7D00BE0297C014218BF4F4504D0D9F86F
S315202081400C3048469968884709F11809D9F8000063
S315202081500028EFD1F7613846016900291EBF09683A
S3152020816000298847F269506900281FBF0168002925
S3152020817010468847306901688847F4693069416824
S315202081808847E268D1680029F8D020468847F5E755
S315202081905022002008ED00E015B7202010000020F6
S315202081A0D0632020704700000A0018BF01220260F9
S315202081B0704772B60268521C026062B601680029B6
S315202081C0FCD10120704772B60168491EFFE7016085
S315202081D062B6704772B600200B49086062B67047B7
S315202081E072B609480168491C016070470648016833
S315202081F0022903D20022026062B6704703685B1E02
S315202082000360704700000000002A00202DE9F0417D
S31520208210FEF722FB80467B4C112720460021224652
S31520208220E7FB08010023784F002501F09BFB401E29
S315202082304600786042F2107274480021E2FB080161
S315202082402246002301F08EFB25223018E2FB08452A
S31520208250401CB8606B4A00232046294601F082FB49
S315202082603618761CFE600020BDE8F0812DE9F0410D
S3152020827004460E4615460BB9002053E0042B02D1A6
S31520208280B009800101D004204CE05F4F387830B906
S315202082902046FFF7BBFF002844D1012038706421F7
S315202082A0204600F077F800283CD14FF4007806F0DD
S315202082B03F06C4F808802069000C0004206121694B
S315202082C07868BA68000300F47040C2F30B021043AA
S315202082D001434F4821614F49A160064366602A68C1
S315202082E022626421204600F055F8D8B920688105FD
S315202082F048BF44F6E96015D46421204644F6EA6551
S3152020830000F048F868B9C4F80880204600F067F8DD
S315202083104FF4806064216060204600F03BF800B96D
S3152020832000252846BDE8F081F8B505460E461446B8
S3152020833073B3042B02D1B009800101D00420F2BDF1
S31520208340314F387828B92846FFF760FF08BB01202F
S3152020835038706421284600F01DF8D0B94FF40070FB
S3152020836006F03F06A860284600F039F83F21012074
S31520208370A96064216E602863284600F00BF840B976
S315202083802868810502D544F6E860F2BD286C206075
S315202083900020F2BD2DE9F04782460F464FF47A7031
S315202083A00026FEF77BF9A0FB078901FB0799FEF73C
S315202083B06BF904460D46DAF80010C8050CD5002FB7
S315202083C0F9D0FEF761F9001BA9414945F3D301D81D
S315202083D04045F0D344F6EB663046BDE8F087016988
S315202083E06FF315310161084902694B68C9681B037F
S315202083F003F47043090401F47C110B431A430261F0
S315202084007047000000CA9A3BF02900200065CD1D48
S315202084100000773E3F00FFFF0A484FF0FF31016002
S3152020842041608160C160016141618161C16106480D
S31520208430016041608160C160016141618161C161EA
S315202084407047000080E100E080E200E000F01F029B
S315202084501C4B000A914003EB800030B50325954044
S315202084600468AC432143016030BD17487047002083
S315202084707047000001460420002900D1704710B51E
S31520208480087B03280CD101F1780291F840104B0685
S3152020849002D50F24147003E0507808B91E211170DC
S315202084A0002010BD7047032100E000214FF4C0605A
S315202084B0CCE706480168006A10F0020018BF0120A8
S315202084C07047000068C00F40002D310140441F40F6
S315202084D062F30F2262F31F4200B500BF13009646B7
S315202084E09446103928BFA0E80C50FAD85FEA417C80
S315202084F028BF0CC048BF40F8042BC90728BF20F846
S31520208500022B48BF00F8012B00BD000070B50546A0
S315202085100E46FEF797FA04000BD1012306F18002BE
S3152020852000212846FEF780FA707C012804BF00210E
S315202085303174204670BDF0B50F260F24054689B02C
S31520208540029601EB041600208DF810208DF80000ED
S31520208550012701930123039706F180020121284652
S31520208560FEF762FA0297694600F0C7F909B0F0BD16
S31520208570F0B589B004460D4616461F4600F01BF876
S31520208580B8B98DF800000E2005EB00110E220292BC
S3152020859001230393204601F180028DF81060019774
S315202085A00121FEF741FA0120694602902046FEF776
S315202085B039FA09B0F0BD2DE9F843804684B00C463F
S315202085C016461F4604202CB304F5E675687818B1A4
S315202085D04046FFF7B0FFE8B9287804F1B009022811
S315202085E00AD1694699E80D1081E80D1004F1C000E2
S315202085F090E80E1089E80E103B463246214640462A
S31520208600FEF718FA2978022904D16A4692E83A0018
S3152020861089E83A0005B0BDE8F083F8B50C4684B069
S315202086200421ECB194F8CC1104F1900502290AD149
S315202086306E4695E8825086E8825004F1A00191E8A2
S31520208640C05085E8C0502146FEF7E8F9014694F847
S31520208650CC01022804D16A4692E8590085E85900BF
S31520208660084605B0F0BD2DE9FE435FEA01088146A4
S3152020867015464AD0012D48D808F5E47630780028CA
S3152020868043D008F1400748463C68FEF7D7F93178B1
S31520208690A40904F0010465B939B122464846FEF7FB
S315202086A0DCF841464846FEF7CBF9B07988B101215E
S315202086B00CE041B1B97922464846FEF7CEF841462C
S315202086C04846FEF7BDF9B07918B100214846FEF795
S315202086D0BBF96A4602214846FEF7D7F914B100981D
S315202086E04008009001AA00214846FEF7CEF90199BC
S315202086F0009A0A20B1FBF2F1491C4143890800E087
S3152020870000BF0846411E0028FAD1BDE8F7832DE98F
S31520208710F0430546894689B017461E464846FEF749
S315202087207BF980460022494600F04CF900F040F8BB
S31520208730FFF741FF040031D1022109238DF80010D3
S3152020874001220293039299F8471009F5C87200294D
S315202087501CBF1078002803D05178029113780393F8
S3152020876001978DF810800596116B0691029809EBDA
S315202087700011039B00F0C8F800F0BCF804000DD1CE
S3152020878000F016F8FFF749FF040007D199F8CF012A
S3152020879020B100F00DF8FFF7EBFE04462846FEF741
S315202087A047F90122494600F00DF9204600F065BE22
S315202087B03B4642464946284670472DE9F84789B028
S315202087C0002401220B2389468DF80040039200279E
S315202087D0029380468DF8104099F8471000291EBF35
S315202087E009F5CA710878002803D04A7802920D78B4
S315202087F0039500224946404609F1500AFFF733FFE8
S3152020880004255AF8046BD6B13B46002249464046F9
S31520208810FFF7D1FE040015D10197029809EB00112C
S31520208820039B404601F180020121FEF7FDF801203D
S31520208830694602904046FEF7F5F8040002D1F71962
S315202088406D1EDED14646ECB94FF0000809F15007DF
S315202088500425002057F8044B84B14346002249467C
S315202088603046FFF7DAFE60B999F8CF1131B1434689
S31520208870002249463046FFF77BFE10B96D1EA044E4
S31520208880E8D104463046FEF7D3F801224946304641
S31520208890FFF7E9FE20460AB0BDE8F0872DE9F8412A
S315202088A005460E4689B017463046FEF7B5F800F045
S315202088B086F800F074F804001BD100220123052439
S315202088C000F072F81EBF06F5C6710878002800F061
S315202088D056F800F015F800F00DF8040009D100F044
S315202088E059F8040005D196F8CF0110B100F04DF8C3
S315202088F004463AE00120694602902846FEF792B8BF
S315202089000298039B06EB0011284601F180020121E3
S31520208910FEF78AB82DE9F84105460E4689B0174656
S315202089203046FEF779F800F04AF800F038F80400CF
S315202089301BD100220123082400F036F81EBF06F59D
S31520208940CE710878002800F01AF8FFF7D9FFFFF734
S31520208950D1FF040009D100F01DF8040005D196F8B6
S31520208960CF0110B100F011F804462846FEF760F832
S31520208970012200F026F820460AB0BDE8F08103D077
S315202089804A7802920978039170473B4642463146FF
S315202089902846EDE53B464246314628463DE63B46BF
S315202089A042463146284606E601978DF80020039355
S315202089B002948DF8108096F847100029704780463B
S315202089C00022314628464EE6F0B5054689B00E46A9
S315202089D014461F46042084B124216846FEF718FC3D
S315202089E0032201238DF8002069460293284603930B
S315202089F0079408970196FEF715F809B0F0BD2DE9E2
S31520208A00F043CE68012504464FF48070002E47BFE0
S31520208A10F61E05FA06F6761CF60826654E68402EC2
S31520208A2008D30E6BC6F3031605FA06F6B6F5004FE5
S31520208A3018BF304604F5E07C6FF07F4ECCF800005E
S31520208A404FF00008002701EB470090F8240058B18A
S31520208A5005FA00F070453CBF8646B94680453EBFA4
S31520208A60B0F5801F80463E467F1C042FEBD3C6459B
S31520208A70CCF804E0CCF81080DFF8045A0CBF012093
S31520208A8000208CF80900246DAC4225D391F858009B
S31520208A9040B101F16004603114F809501560885DF9
S31520208AA0186023E001F1250010F81940202C04D06D
S31520208AB0D82C04BFDC25156001E02120106025314B
S31520208AC011F81600202802D0D82803D00EE0212223
S31520208AD01A600BE0DC2108E001F1250010F819408E
S31520208AE0146001F1250212F8161019600020BDE845
S31520208AF0F08300002DE9F84F8B460424B0B0BBF15B
S31520208B00000F07461CBF0092002A00F0F8834FF47E
S31520208B1000715846FEF77CFB0BF1440001224FF0F2
S31520208B2080738270C360DFF85C09CBF80000DFF821
S31520208B30581903220120CBF804108BF80D208BF82E
S31520208B400E208BF8C80100990868C0F3036000281E
S31520208B500ADD4968C1F30350012805D1DBF840001E
S31520208B6040F48070CBF8400000990868020D02F08E
S31520208B700F02012A28D8C0F30340002824D10BF164
S31520208B804400DFF80829DFF808394470C2635946C3
S31520208B9003643846FFF7BAFC040015D10098016813
S31520208BA0C1F30310012811D16FF0F9220BF5B07013
S31520208BB00BF5B07302615A6140F2FF62826100F0C8
S31520208BC0D4FBFFF7B8FC040040F08B830099DFF834
S31520208BD0C40801230A68C2F3034100EB011200F006
S31520208BE0DDFB082301AA00213846FFF7EDFE04000D
S31520208BF05ED10198DFF8A018884218BF44F68B640E
S31520208C0056D19DF8080003AA17909DF80A0000F176
S31520208C100109B9F10A0F384688BF4FF00A094FEAF1
S31520208C20C9030821FFF7D0FE040041D1642117A8EB
S31520208C30FEF7EEFA00264FF6847503E001208DF824
S31520208C40B400761C4E4533D203A800EBC60001782B
S31520208C50C27901EB0222B2F57F4F18BFAA42F0D18A
S31520208C600021022300EB030C5B1E9CF804E04EEA55
S31520208C700121F7D5C078B2F57F4F4FEA80080ED173
S31520208C80B8F1500F19AA384688BF4FF050084346EE
S31520208C90FFF79AFE04000BD1CDF86080D1E7AA42D7
S31520208CA0CFD143462EAA3846FFF78EFE0400C5D0E4
S31520208CB0002C89D1009804250168C1F3035001288E
S31520208CC002BF199CE40C14F0010400F00983002053
S31520208CD002AB8BF80C0000990BF1440000264FF0D4
S31520208CE00008B2460A78182102F00F02827003AAE1
S31520208CF0049117A95846FFF782FE0BF14400DFF8AE
S31520208D008027C168914224BF2023049300980168BC
S31520208D10C1F30330002840F0E382002205A8002377
S31520208D20002594460BF1D00980E82C10179A042AA6
S31520208D301DD8189840281AD2C1F30325002D2FD0EC
S31520208D40032201930A9301A88DF834306B1E8DF8E7
S31520208D5024200121032B109011910B910C9127D8BF
S31520208D60DFE803F01F230223DFF830271BE0012151
S31520208D708BF810102798000D00F00700401E0528BC
S31520208D800CD8DFE800F00905030909070325D7E7F2
S31520208D900125D5E70425D3E70225D1E78BF8103026
S31520208DA067E0DFF8FC26059202E0DFF8F816059149
S31520208DB0012305AA01213846FDF736FE09A900F030
S31520208DC0EAFA002856D100980168C1F303600028EA
S31520208DD01FBF00984168C1F30720002818BF0190C3
S31520208DE08BF8106001986D1E032D00F0020040D8EC
S31520208DF0DFE805F0241A020D0198010639D4DFF8A0
S31520208E00A826C9F81020019840F0800022E080BBD7
S31520208E10DFF89806C9F810000199012041F00201D7
S31520208E2001918BF8100019E018BBDFF88416C9F8D9
S31520208E3010100198000240F400700BE001984106C2
S31520208E4017D4DFF87026C9F81020019800F0C30047
S31520208E5040F04000019001218BF8101001200622BD
S31520208E608BF814008BF815200199CBF818108BF865
S31520208E7011000020050040F033821999C1F340509B
S31520208E8038B11B984FF0007AC0F3421600F01F0825
S31520208E9008E0C1F3805028B11B98460D06F007063E
S31520208EA0C0F30448049A2DA80E9042F20401202AE9
S31520208EB01BD19DF8B40098B10E9A536842F2042231
S31520208EC0C3F3002010B1DFF8F00504E0C3F3C0108F
S31520208ED030B1DFF8E805C9F84000C9F844200AE097
S31520208EE0DFF8DC25C9F8402003E0DFF8D805C9F8EB
S31520208EF04000C9F84410012140F206408BF80C109E
S31520208F000BF14402DFF8C0350BF14401D066CB6467
S31520208F10049803990004019000F02CFAC9F8001057
S31520208F20029900F027FAC9F830104FF48C61C9F85D
S31520208F30601000980168C1F3036058B1009A516807
S31520208F400B0607D00026002C01F0FF0850D04FEA50
S31520208F5048084DE0002C4BD0002849DC04982028D6
S31520208F6009D1DFF868150BF14402DFF824050BF14F
S31520208F704403D163186459463846FFF7C7FA0500DB
S31520208F8033D14FF40071002206910FAD8DF82420A5
S31520208F900323079201220C95102108920BF18005BC
S31520208FA08DF8143001230D912A4600F0F7F901207F
S31520208FB005A9079000F0EFF9A0B90F9810F1010F3D
S31520208FC002BF0FA8416811F1010F07D1826812F163
S31520208FD0010F04BFC06810F1010F1FD000F0BAF9AD
S31520208FE0002851D044F68E65002D40F07981002648
S31520208FF00499199A1829C2F3805040F09880002CA1
S3152020900000F08980ED21DBF8402042F04002CBF8A9
S3152020901040200198014341F00A41B1E000F0A5F932
S31520209020FFF7C9FA0028DDD1092002220790102156
S315202090308DF81420089B07980FF2B4460B9105EB68
S3152020904000120A9600F0AAF901213846079105A9AF
S31520209050FDF7E8FC0028C5D100F087F9FDF7DEFCF6
S315202090600028BFD100F07BF905A98DF814203846B9
S315202090700C93FDF7D7FC0028B4D110220FA9304637
S3152020908000F02EFC0028ADD1DBF840000BF1440186
S3152020909001224FF00209322540F04000CBF8400053
S315202090A089783846FDF7D9FB01E009F101096D1EC3
S315202090B098D013A8002100220023002680E84E0005
S315202090C00BF14401DFF8B833CA6838469A4209F0D2
S315202090D0FF02DFF8FC3327BFDFF8F8631396DFF8AB
S315202090E0F81313911A430123149213AA0021FDF792
S315202090F09BFC002000F033F98DF8142005A90C9351
S3152020910000F049F90600BED100F024F90028CCD180
S31520209110C846354668E7C2F3405111B11B99090A62
S3152020912027E010B11B99090E23E003211EE00CB184
S31520209130EE2168E79DF8B41079B10E984168C1F305
S31520209140401018B1EC214FF0007A12E0C1F3001044
S3152020915058B16C214FF0000A0BE0C2F3405109B1FF
S31520209160EC2106E008B16C2103E013214FF0000822
S3152020917000260198C9B201434AEA010141F0006163
S3152020918041F480610BF14402D163009800210BF554
S31520209190E4790268C2F30310002809D0012854D1AB
S315202091A018984028C0F08580279AC2F340200028AE
S315202091B000F07F80120C12F0050F0BF5B07A18BF45
S315202091C0A52144D1900742D50EAA002000230025B0
S315202091D082E82B00069303228DF8142001AB8DF80C
S315202091E02450DFF8F8220C930125019101230E92B9
S315202091F00EAA0D950121079538460893FDF714FCF4
S3152020920005A900F0C8F805001ED10198012100F01B
S31520209210F70001908BF810100198000400F47F00CD
S3152020922040F0042040F08100CAF800000E208BF880
S31520209230141004218BF81500019ACBF81820012050
S315202092408BF8111089F80700002D49D10121279884
S31520209250800A10F00A0F0DD06FF0F920CAF81000FE
S31520209260CAF814000498202811D140F2FF62CAF8C7
S3152020927018200CE010F0110F32D04FF00620CAF83B
S315202092801000CAF81400DFF85802CAF81800012284
S3152020929089F8052076B1002C4FEA084000F47F009B
S315202092A048D0012E06BF4FF4184209094FF41C421C
S315202092B037E0B044B8F1000F2BD008F0FF0114B3EB
S315202092C0DFF80C0208430BF144010864012289F8D7
S315202092D00620DBF8400040F04000CBF84000002577
S315202092E02C464CB95846FFF7C5F800980BF1440296
S315202092F0017801F00F01917001238BF8443020462C
S3152020930031B0BDE8F08F774808430BF1440108645B
S31520209310E5E7002C42F204420BF144031A64D5D12E
S31520209320DDE71143014341F0324100F02CF86E492C
S315202093305164CBE7012E06BF4FF4C05209094FF4E2
S31520209340E0521143014341F0485100F01CF867498F
S315202093505164C4E710220FA965A000F0C1BA1021DC
S31520209360079003220FAB0D91704700230022594608
S3152020937038467047019801F0FF01014341F0006112
S3152020938041F48061704741F400710BF144000BF1E8
S315202093904402016470473846FDF744BB0121384614
S315202093A0FDF742BB2DE9F04180460C46042074B3DC
S315202093B004F5E2759F1829687F42494201EA020690
S315202093C06A790F407F420AB9E96889B9BE421ED21E
S315202093D000F01FF8002804BF29688E19F6D016E061
S315202093E0324621464046FFF795FA80B9E9688E191C
S315202093F0BE420CD2E96836EA010002D1B81B884267
S31520209400EED200F006F8002808BF2968EFD0BDE884
S31520209410F081324621464046FFF740BA2DE9F043F7
S31520209420814604201746002989B0984618BF002F68
S3152020943023D0109C0CB308460025FDF7EDFA032116
S31520209440029501238DF8001003934FF6FF758DF8B2
S315202094501000AC42CDF804800797694648468CBF59
S315202094602E4626460896FDF7DDFA30B9A41BB044D1
S31520209470B608002C07EB8607EBD109B0BDE8F083B0
S315202094800100000146434642000401560304180801
S31520209490042401002C632020534644503F040124F9
S315202094A005040124350401243E0402203104012030
S315202094B001040220010401203E04200A340420084D
S315202094C01204200802041808050404241304200882
S315202094D000B204A6EE04208AED04188A850401240D
S315202094E0001E10320032042604A6017C0426017CAC
S315202094F000112233445566778899AABBCCDDEEFF2E
S3152020950010B5E0B10168DFF8A0230A40B2F1604F20
S3152020951015D1C1F30321042911DC81B1002100E0FA
S31520209520491C0268C2F3032291420ADA00EBC102E7
S3152020953053689C0503D19268521C9305F0D00020D5
S3152020954010BD012010BD00002DE9F84FB2B0044611
S31520209550FFF7D6FF08B90420DEE000F09FF9DFF8F8
S315202095604C8380214046DFF84863FDF751FE0020DA
S31520209570306070601DA8FDF77AFA0028ECD18DF8AE
S315202095807700DFF830B31DA95846FDF772FA002878
S31520209590E2D14FF0000ADFF8209321E0201D04F1CC
S315202095A0080250F83A104FEA4A17A96152F83A00B1
S315202095B0E8611022294608EB0700FEF7EBFC05F1AF
S315202095C0100008F11001C91900F04DF9AA6908F117
S315202095D0180308F11C01DA51E869C8510AF1010A79
S315202095E02068C0F303218A4511DA09EB8A15102257
S315202095F058462946FDF73FFA002807D1082205F1CB
S3152020960010015846FDF737FA0028C7D084E0800499
S3152020961000F07F70316070602068C0F3033101B1A3
S315202096200121002202AC0DF1180811AE8DF804108C
S31520209630CB46059208AF0BA800F062F905990BA836
S3152020964089010BEB01020A9104920499202200F051
S315202096505DF9049800F124010BA800F06CF90DA8FF
S3152020966000F00FFA00285AD196A102A8D1E90023AA
S3152020967004990025C0E90023282213A8FEF78AFC96
S315202096804FF001090020215C00EBC90208F80010E8
S31520209690B35C3B54401C0828F5DB9DF804000028C9
S315202096A00DA814BF85498649802200F001FA00289A
S315202096B035D1102106AB009106AA01210DA800F074
S315202096C053FA60BB18F8001000EBC90321543A5C0A
S315202096D0401C0828F254F5DBE07905EB8501494446
S315202096E009F101094840B9F1060FE071CADB6D1C6A
S315202096F0062DC5DB049902A800F0B5F80A9B0BF1CC
S315202097000800282213A91844FEF744FC0599491C71
S31520209710042905918FDB002033B0BDE8F08F01208E
S31520209720FAE76348006800B10120C0B270470029DB
S3152020973010B518BF002A06D05D4B5C68631E9B417E
S31520209740DB0F834201D1042010BD5B4808604FF413
S3152020975080711160002010BDB0B5554B5A68801A13
S31520209760002200E0521C1C68A2420CD24F4D05EB71
S315202097704214A769B84221BFE4690D186D1EAC4278
S31520209780F0D30120B0BD0020B0BDF0B50C001546A9
S315202097908DB018BF002D05D010F00F0F08BF14F084
S315202097A00F0F01D0042058E0414A5168401A002169
S315202097B000E0491C1368994253D23C4E06EB4117D0
S315202097C0BB69984221BFFB692618761EB342F0D387
S315202097D0009005A800F055F9002840D1802239466E
S315202097E005A801AE00F064F907F1100001A900F0E8
S315202097F03AF83A6978699DF8031000278DF81010F9
S315202098009DF8011042409DF80000B2609DF802208C
S315202098108DF812108DF81120F073102109AB0091CC
S3152020982001AA012105A800F09FF9C0B909ABC119E9
S3152020983013F800C06A5C401C10288CEA02026A5485
S31520209840F5DB0F20315C10313154C9B209B9401EE5
S31520209850F8D51037BC42E0D200200DB0F0BD012053
S31520209860FBE70320F9E702680A6042684A607047EE
S3152020987010B50F4CA0F58073626802F1C042934266
S315202098803CBF0818824208D200F008F880210748F9
S31520209890FDF7BEFC00202060606010BD4FF4807173
S315202098A00548FDF7B5BC000000E000F0602300204D
S315202098B05823002000C00C4058220020AB89DCFE13
S315202098C0EFCDDCFEA6A6A6A6A6A6A6A64018491CCF
S315202098D01CBFB1F1010100F8012DF9D1704700001C
S315202098E003000020521E22BF13F8010B11F801CBD2
S315202098F0B0EB0C00F6D0521C08BF10467047000073
S315202099004FF0FF31002201604260704730B5436836
S315202099100468134DD318436007E011F8013B83EA0E
S31520209920146355F8233083EA042413465A1E002B49
S31520209930F3D1046030BD70B54268036812F0030F7E
S315202099400BD002F00302C2F10402054C1D0E521E5A
S3152020995054F8256086EA0323F8D103600B6070BD96
S315202099601C5F2020D3BBD9B1B2F5803F5BD2022A1F
S315202099701ED98C46B1FBF2F102FB11C31B0443EA2C
S315202099801043B3FBF2FC02FB1C3380B240EA0343B4
S31520209990B3FBF2F002FB103240EA0C400023704762
S315202099A0022A05D98446B0FBF2F002FB10C270478A
S315202099B04AB105D100F0010249085FEA300070471C
S315202099C000220023704700F0A7B90B0002000021D7
S315202099D000207047F7D3002200237047904271EB76
S315202099E0030CF2D370B5B1FA81F4B3FA83F52C1BAC
S315202099F0A340C4F1200532FA05F63343A2405FF096
S31520209A000046E64002E05B085FEA3202841A71EBE8
S31520209A10030524BF204629467641F4D302000B00B5
S31520209A203000002170BD70B5B1FA81F4B2FA82F50A
S31520209A30C4F120046419B4F12006DAD3B2405FF0D1
S31520209A400044F440002502E052085FEA3303C61A98
S31520209A5071EB020E24BF3046714664416D41F3D32B
S31520209A6002000B002000290070BD00009F480168DD
S31520209A70002944BF4FF04043836008214160416262
S31520209A80704710B508B9012010BD99490A6812F40B
S31520209A90406F03D10B6843F440630B600021002202
S31520209AA00023002480E81E00FFF7E0FF002010BDE1
S31520209AB07FB5040018BF002901D0802A01D00125B6
S31520209AC049E08C4E00258B1B022B21608A481CD90D
S31520209AD041F234269B1B38D042F2DE169B1B34D013
S31520209AE045F299569B1B2AD042F2DE169B1B26D086
S31520209AF042F266269B1B1DD042F2ED169B1B19D0E7
S31520209B004FF470669B1B26D003E001F003012160F1
S31520209B1021E010226846FEF73DFA7848302303607C
S31520209B20774E266000215DF82130491C03290361E8
S31520209B30F9D910E000F012F822F0100203E000F02C
S31520209B400DF842F01002026003E0C16941F01001D5
S31520209B50C16100F0C6F8284604B070BDC16921F065
S31520209B601001C16102687047F0B588B048B101295B
S31520209B7007DC002A18BF002B03D00D9E16F00F0FEE
S31520209B8001D00121AAE0090201F4807140F22325A7
S31520209B90039200270493294300970191554B02975E
S31520209BA04FF47F4205960168C81A02282BD9C01E79
S31520209BB02DD041F23123C01A1FD042F2DE13C01A13
S31520209BC017D045F29953C01A17D042F2DE13C01A85
S31520209BD00FD042F26623C01A0FD042F2ED13C01ADC
S31520209BE007D04FF47063C01A14D101994FF47E42E6
S31520209BF004E0019941F4402100E0019941F480617B
S31520209C000191029206E0090201F4407101E04FF42D
S31520209C10407102910021069707914FF07042BFF3C1
S31520209C204F8F384D384B286843F6E074C60319D534
S31520209C302F67BFF34F8FEE6EC6F34E37C6F3C90C90
S31520209C4004EA471040EA8C70D8605FEA0C00ACF139
S31520209C50010CF5D13846471E0028EFD1BFF34F8F90
S31520209C60BFF36F8FBFF36F8F284E0127C6F800D022
S31520209C703761274F3868000703D41046421E002834
S31520209C80F8D1306A000602D0FF21B16204210820D3
S31520209C90B86012B9042918BF0321BFF34F8F286853
S31520209CA0C20319D500262E67BFF34F8FEA6EC2F363
S31520209CB04E35C2F3C90604EA451040EA867018607C
S31520209CC03046461E0028F6D12846451E0028F0D1CB
S31520209CD0BFF34F8FBFF36F8FBFF36F8F084608B048
S31520209CE0F0BD4FF000400B490860BFE600000F4052
S31520209CF068C00F400000DCFE0CC00A4060000F4008
S31520209D000300DCFE14ED00E060EF00E0C0010F4010
S31520209D1010000F4004000F4070470000BFF34F8F04
S31520209D20054906480A6802F4E06202430A60BFF346
S31520209D304F8F00BFFDE700BF0CED00E00400FA05C1
S31520209D4001294FF4801002D1044908607047044A43
S31520209D501060BFF34F8FBFF36F8F704700E100E095
S31520209D6080E100E038B50124491E0829334D2B68AF
S31520209D7032D8DFE801F005152527272527312500AC
S31520209D80506810F1010F18BF00280FD098690128BC
S31520209D9014DB93F81A14012910D103F118000BE0D3
S31520209DA0506810F1010F18BF002801D1002032BDC4
S31520209DB0D86103F114001C73FEF705FA00240BE08A
S31520209DC0052409E0002103F11400FEF7EDF92868A7
S31520209DD000211830FEF7E8F9204632BD002001295F
S31520209DE000D0704738B5154C012520684FF47E7376
S31520209DF080F81A54022100F12002806800F07BFAB4
S31520209E00216881F81B5432BD002059B90B484FF4E4
S31520209E107E730068022180F81C2400F120028068CD
S31520209E2000F069BA70470549086000207047034949
S31520209E30086009680020886070470000042A0020F6
S31520209E4010B5134601200BB9032010BD1A1D00247E
S31520209E5054771268002A1CBF1468002C03D00A46A7
S31520209E6001211846A04710BD10B5134601200BB975
S31520209E70032010BD1A1D002494771268002A1CBFC7
S31520209E801468002C03D00A4602211846A04710BD8C
S31520209E902DE9F84785B005462B7F00210120002B90
S31520209EA073D06A68926854799C426ED31268002ACD
S31520209EB06BD002EBC3028A460C27A2F1080601E0EA
S31520209EC00AF1010A327892455FDA726807FB0AF3B3
S31520209ED0D41894F800E0BEF1030FF1D1002600E05B
S31520209EE0761C02F10807FF5CBE420BDA171D4FEAEB
S31520209EF0061CFF5895F81E9017F80C80C845EFD100
S31520209F0007EB0C01E27800296A773ED0A96000246D
S31520209F1005F12306DFF884A34FF0FF38DFF880937E
S31520209F200F462FE0CDF808A00020C5F814807070C9
S31520209F30A86120E0002206218DF80420B86861431C
S31520209F40021D535C8DF80530B868425C8DF80220DE
S31520209F50B868D209831C012A5B5A0144ADF8003027
S31520209F6048788DF80300DDD1CDF808900020C5F87B
S31520209F700C80307028610395286802AA6946641CE3
S31520209F8000F012FB39798C42D4DB06B0BDE8F0878D
S31520209F9038B504460120A16879B1002507E00622BC
S31520209FA088686A43815C20686D1C00F01DFBA168CF
S31520209FB00A799542F3DB0021A16032BD2DE9F04FCD
S31520209FC0044617460120002F87B014BF002C0320FB
S31520209FD014D0491E052904F12105A2464FF0060971
S31520209FE00CD8DFE811F0CA0006000C001C00320055
S31520209FF057000021217729706970A1602CE16168C2
S3152020A00000291EBF217F3A788A42F7D011B12046F7
S3152020A010FFF7BEFF38780022A277207711E061680B
S3152020A0200029EBD03988627F0D460904B2EB116FE7
S3152020A0300AD1A37FE9B2994206D02046FFF7A8FF8E
S3152020A040A5772046FFF724FF06E16268002A1CBF79
S3152020A050A1680029F8D04FF000080124DAF808007A
S3152020A0600179884525DA806809FB08F23B78805CEF
S3152020A07083420CD1C009012819BF0120E870012193
S3152020A080A9703978DAF8000000F0C9FA044608F1F8
S3152020A0900108E3E76268002A1CBFA1680029D3D003
S3152020A0A0264603974FF0FF3801240027B068017910
S3152020A0B08F4280F2D08009FB07FB039A80681178B3
S3152020A0C010F80B30994256D1306800F0B2FA044687
S3152020A0D003980178C909012926D0E87800281EBFCF
S3152020A0E0E970726912F1010F45D0B068B36900F0AA
S3152020A0F0B6F800F056FA040011D071690491B269BD
S3152020A100002105928DF818106970706800281CBFF0
S3152020A1100368002B03D004AA022150469847C6F88C
S3152020A12014800021B16126E0A87800281FBF0021D5
S3152020A130A970F26812F1010F1DD0B068336900F0C2
S3152020A1408EF800F029FA040011D0F16804913269C2
S3152020A150002105928DF818102970706800281CBFE0
S3152020A1600368002B03D004AA012150469847C6F83D
S3152020A1700C80002030617F1C98E739680A7802F02D
S3152020A1801F02012A02BF0B79627F934264D148784D
S3152020A19001280AD0022813D003281BD0092824D02E
S3152020A1A00A2844D00B2849D053E04988090A8DF83B
S3152020A1B008103A6851886A468DF80910032122E052
S3152020A1C0636804F11F02042150461D68A84704F144
S3152020A1D01F0108E0636804F12002042150461D680F
S3152020A1E0A84704F12001796036E04A88120A8DF8C2
S3152020A1F0082039684A888DF80920387B60B1B968EB
S3152020A2006A4601910921636850461C68A047009937
S3152020A2107960019ABA601FE0796850460091BA6841
S3152020A220019263686A4606211C68A04714E0488884
S3152020A23004F11F020721000AE07705E0488804F18F
S3152020A2402002082184F82000636850461C68A04715
S3152020A25002E0052000E0204607B0BDE8F08F8168A7
S3152020A260306811F80B1001F00F01704770B50E46BB
S3152020A2700C4C2168154609B1022070BD214600F0FC
S3152020A280ACFA010009D1206808B9032070BD00204E
S3152020A290FF2166602077A1772C6070BD699E2020E3
S3152020A2A0419E20207835002010B5040001D10320BE
S3152020A2B010BDFFF76DFE0021216061602177A17717
S3152020A2C010BD70B508B9032070BD00F121052C788A
S3152020A2D00CB1022070BDAC7801262E701CB1C26054
S3152020A2E00361002070BD006800F056F901001CBFF4
S3152020A2F00021297070BD70B508B9032070BD00F10A
S3152020A30022052C780CB1022070BDAC7801262E7047
S3152020A3101CB142618361002070BD006800F041F9C4
S3152020A32001001CBF0021297070BD00001CB5044609
S3152020A33000F040F80021A16084F8D51000F015F92E
S3152020A340002016BD2DE9FC4104000D4616469846F0
S3152020A35005F00F0108BF03202AD0E06830B34B0058
S3152020A3600C2143EAD5124A43A718387F08B1022088
S3152020A3701EE000F01FF8012000F0F6F82906D4F898
S3152020A3800CC0A06843463246294603D5DCF808404F
S3152020A390A04702E0DCF80C50A8470446200006D04F
S3152020A3A000F008F8002000F0DFF800E00624204620
S3152020A3B0BDE8F681684600F049BB08B903207047FE
S3152020A3C0C36813B180685B69184706207047FEB5BD
S3152020A3D00446002918BF002C01D10320FEBD206988
S3152020A3E008B90120FEBD0E7A01200C25F309102E76
S3152020A3F006F00F021ED104F1D4060022F0700E21A1
S3152020A40020460027FFF7D9FF02200022B070002027
S3152020A4103270002305FB00F1401C102821444B619B
S3152020A4208F610A77F6D32369012120469847002099
S3152020A430F070FEBD082A19D243EA42036B43234417
S3152020A4405A699AB10D6800954A6801924D7A8DF81D
S3152020A4500850487A00281DBF0021217784F828102B
S3152020A46018779A695B69694620469847FEBD0000A1
S3152020A470F8B5140005460E4601D10320F2BDFFF79C
S3152020A48099FFA24B0021D82203F1080C02FB01F7E9
S3152020A4905CF8070020B103F1D500C75DBD420FD07F
S3152020A4A0491C0129F2D99868002100281EBF0121C4
S3152020A4B0D3F8E000002807D000F057F80220F2BD9C
S3152020A4C000F053F80120F2BD12FB01F29F1887F805
S3152020A4D0D55000F04AF83E6107F1D4060020757069
S3152020A4E030700023F07084460C224243401CB91859
S3152020A4F010284B61C1F818C00B77F5D3A81E012868
S3152020A50018D8834988A00029F8601CBF814A002AD0
S3152020A5100BD0814800281CBF8049002905D08048BF
S3152020A52000281CBF7F49002909D13846FFF7FEFEA7
S3152020A5300720F2BD3846FFF7F9FE0620F2BD276038
S3152020A540FB68284607F1080239461D68A8470500FA
S3152020A55006D0384600F00FF8002020602846F2BDAD
S3152020A56002210020B170F2BD3877009800F074BA2D
S3152020A5700022002121E710B5040001D1032010BDBF
S3152020A580E16821B1A068496888470020E06020461C
S3152020A590FFF7CCFE002010BD01F00F0141F0800115
S3152020A5A0D0E601F00F01CDE670B508B9032070BDC5
S3152020A5B0002918BF002A15D08C7804F00F03082B09
S3152020A5C010D25D000C2345EAD41400255C430319E0
S3152020A5D014685C6156689E610A461D770221BDE893
S3152020A5E07040EAE6042070BD73B504000E4606F0DE
S3152020A5F00F0501D1032076BD01AA0321FFF7DDFE39
S3152020A600082D0AD26A000C2142EAD61600234E4390
S3152020A610A1194B618B610B7776BD042076BD02B5DF
S3152020A62001F00F01082902D26A4604210BE00420FA
S3152020A63002BD02B501F00F01082902D26A46052182
S3152020A64001E0042002BDFFF7B8FE02BD0000000095
S3152020A65010B501230AB9042010BD891E062900F150
S3152020A660D40419D8DFE801F004061012080C1400CF
S3152020A6700F210EE010210CE0A078002310700BE0B3
S3152020A68021780023117007E0062102E0072100E04F
S3152020A6900921FFF792FE0346184610BD10B5012466
S3152020A6A0032900F1D4030CD006290CD007290FD07A
S3152020A6B00A2922D00B2922D00C291AD00E291AD0C9
S3152020A6C021E011211CE0F2B11078002498701AE0C4
S3152020A6D0997803290AD0B2B1117803229A701A46A2
S3152020A6E0197014210024FFF768FE0CE01A46082171
S3152020A6F006E00A2104E00B2102E00C2100E00D21D6
S3152020A700FFF75BFE0446204610BD0000A01C00205B
S3152020A71051BD2020D7BD202035BE20203FBE202061
S3152020A72045BE202059BF202051BD2020D7BD202026
S3152020A73035BE20203FBE202045BE202059BF2020C8
S3152020A74038B504466846002500F080F9924901EB89
S3152020A7500511086810B18B7B9C4207D06D1C012DFA
S3152020A760F4D9009800F078F9042032BD0020086042
S3152020A77048608873009800F06FF9002032BD7CB5C0
S3152020A78000F025F884493201885818B18818837B2F
S3152020A7909C4203D0761C012EF5D913E02860009820
S3152020A7A000F05AF9002076BD7CB500F010F87A48E2
S3152020A7B001688C4202D100EB0610EFE701690126E1
S3152020A7C08C42F8D0009800F047F9042076BD044644
S3152020A7D00D466846002600F039B97CB5FFF7F7FF0D
S3152020A7E06D493201885818B18B189B7B9C4203D027
S3152020A7F0761C012EF5D9E5E7D0E700002DE9FC47A8
S3152020A8008846144601261CB16946FFF7CDFF08B1BC
S3152020A81004202EE0002703E000B900267F1CFFB28B
S3152020A820009841680A7A974222DA0C20002210FBEF
S3152020A83007F00B687DA54FEA026E05EB1E5C03EB45
S3152020A8400009D9F808A09CF80C509AF804E0754520
S3152020A85004D0521CD3B2022BEBD3DFE71D1DDCF82C
S3152020A860083028582246414698470528D4D100E06A
S3152020A8703046BDE8F6877CB50D4604461646694621
S3152020A880FFF792FF010011D1012D08D10099204612
S3152020A89000F086FB009A02212046FFF7AFFF009B9F
S3152020A8A02046294632465C686568A84776BD2DE94C
S3152020A8B0F84F924601250F46BAF1000F814618BF60
S3152020A8C0002F01D0786808B9042062E0684600F09D
S3152020A8D0BDF83149002201F10E041301C85810B1E8
S3152020A8E0E35C99450DD0521C012AF6D9086800222E
S3152020A8F000281EBF01220869002807D000980225BB
S3152020A90000E0009800F0A8F8284642E001EB021566
S3152020A91001EBC20101F1200285F80E90AA60009871
S3152020A92000F09AF86F602A461C494846FFF7A0FD9A
S3152020A930070007D02868FFF71EFE4846FFF700FFCE
S3152020A940384626E000270FF2E4081AE00C240026D9
S3152020A95014FB07F46868330108EB030E9EF80CB04D
S3152020A960006801198A6812795A4505D1001D0219F5
S3152020A97058F8033048469847761C012EEAD97F1C82
S3152020A980FFB26868017A8F42E0DB2A680020CAF885
S3152020A9900020BDE8F28F00004835002077A820202F
S3152020A9A02DE9FC4180466946FFF7E9FE05002BD1BB
S3152020A9B05FF000051DA61AE00C27002417FB05F7DB
S3152020A9C0009841680868210106EB010EC219936898
S3152020A9D09EF80C201B79934204D1001D331DC059AB
S3152020A9E059588847641C022CEAD36D1CEDB2009876
S3152020A9F041680A7A9542DFDB0068FFF7BCFD050037
S3152020AA0004BF4046FFF79CFE2846BDE8F6811CB5CC
S3152020AA100C466946FFF7B3FE010005D10098224671
S3152020AA2002210068FFF714FE16BD00006DA220202B
S3152020AA30A9A22020BD9F20200100000000000000A8
S3152020AA40000000000000000000000000EFF310814D
S3152020AA5072B6016072B6704780F310887047000086
S3152020AA602DE9FC4104460D46206890461E466A463E
S3152020AA7006210527FFF7ECFD9DF80020012A01D0AD
S3152020AA8010002ED1287810F01F0F08D1206804F14D
S3152020AA900C020421FFF7DCFD0746207B18E000F09E
S3152020AAA01F02012A02D10027A78114E000F01F00EF
S3152020AAB0022812D1A9880022ADF8062001AA8DF8F5
S3152020AAC0041020680521FFF7C3FD07469DF80600E0
S3152020AAD000F00300A0810221316004F10C02C8F8A5
S3152020AAE000203846BDE8F6817CB5002305468DF842
S3152020AAF0003028680C460DF1010206210526FFF7B5
S3152020AB00A7FD9DF80120012A03D0100001D00520A1
S3152020AB1076BD6078032804BF01218DF800102078A7
S3152020AB2010F01F0F08D16088012827D128686A468F
S3152020AB301421FFF7A0FE20E000F01F00022804BF0A
S3152020AB40608800281AD1A18811F00F0F0AD19DF80C
S3152020AB5000202868C9B2002A02D0FFF760FD01E054
S3152020AB60FFF767FD9DF800102868002919BF221DD0
S3152020AB700521221D0621FFF741FE0646304676BDD9
S3152020AB8038B500F0B3F89DF80020032A0CD0012A0E
S3152020AB9018BF022A02D00AB1052032BD68886A462B
S3152020ABA007218DF800000BE0206800220721FFF7FF
S3152020ABB075FD010007D101206A468DF80000062187
S3152020ABC02068FFF76BFD32BD2DE9FF4704469146ED
S3152020ABD020680D469A466A4606216F88FFF738FD7B
S3152020ABE09DF800204FF005083E0A012A03D01000C8
S3152020ABF018BF022A38D1E888012E029002D101AA54
S3152020AC000B2127E0022E04D18DF80C7001AA0C21ED
S3152020AC1020E0032E07D18DF80E70A98801AAADF861
S3152020AC200C100D2116E0212E03D1A88801AA0E2171
S3152020AC3004E0222E05D1A88801AA0F218DF80C0028
S3152020AC4008E0232E0AD18DF80C70A98801AA8DF848
S3152020AC500D1010212068FFF70EFE80460198C9F8B6
S3152020AC6000000299CAF80010404604B0BDE8F087DB
S3152020AC707CB50446154620681E4600F05AF89DF8F5
S3152020AC800020012A03D0100001D0052076BD012105
S3152020AC9004F10C00316004F10C0228602068152193
S3152020ACA0FFF7E9FD76BD38B500F020F89DF80020A5
S3152020ACB0012A03D0100001D0052032BD002100F04A
S3152020ACC00EF8688810B9012100F009F82068AA1C1E
S3152020ACD00321FFF793FD2068AA1C092144E06A4638
S3152020ACE08DF8001020680621FFF7D8BC04460D46B3
S3152020ACF020686A460621FFF7ABBCF8B504460D4608
S3152020AD00206816461F4600F014F89DF8000008B16A
S3152020AD100520F2BD012104F10C0039601621306096
S3152020AD20AA881202A281206804F10C02FFF7A3FD53
S3152020AD30F2BD6A460621FFF78BBC38B5FFF7D6FF52
S3152020AD409DF8000008B1052032BDA978A88804F115
S3152020AD500C0241EA0021A18120680421FFF74EFD43
S3152020AD60206804F10C020A21FFF785FD32BDF8B5D3
S3152020AD7005460E46286817461C46FFF7DAFF9DF83B
S3152020AD80001009B10520F2BDB08805F10C0208217A
S3152020AD90A8812868FFF75CFC05F10C0102223960A6
S3152020ADA02260F2BD38B50D468021052A04460ED1F3
S3152020ADB0287810F0600F05D0020603D4E88808B161
S3152020ADC003B900212046BDE83440FFF728BC059969
S3152020ADD0E8880A68904238BF086004980B680021EA
S3152020ADE002682046FFF7D8FB01000BD129780A06F6
S3152020ADF008D5204601B0002300220021BDE830409E
S3152020AE00FFF7CFBB32BD2DE9F8410D4689B0002191
S3152020AE1005260391144604916968804611F1010F95
S3152020AE2018BF002C0ED0A76802AA0621FFF710FC17
S3152020AE302A7ADFF8C8C1002A59D06868082801D1A3
S3152020AE40296809B905208EE0488878808A88BA80C2
S3152020AE50C888F8804A787A70097811F0600F39709E
S3152020AE600CD10D2A3ED25CF82250002D3AD004ABCC
S3152020AE7003AA39462046A847064633E0F0B10806FD
S3152020AE801CD48A0608D500230124069301218DF897
S3152020AE90204000F071F803E0480623D500F073F82F
S3152020AEA0064630000799069A049103921AD1FB8808
S3152020AEB0039A00214046FFF774FB54E0880608D504
S3152020AEC000220123069201218DF8203000F054F82B
S3152020AED003E0480606D500F056F80799069A064656
S3152020AEE00491039204A803A90190002333E09DF83E
S3152020AEF00800032808D120467C7804AB03AA3946CB
S3152020AF005CF82450A8472CE0696800291CBFF888E3
S3152020AF10002827D03878010624D482060AD52B6823
S3152020AF200024069301218DF8204000F01FF8FFF71A
S3152020AF3065FC0BE040060AD52A68002306921321D9
S3152020AF408DF8203000F012F8FFF795FC064604A86D
S3152020AF5003A9019001230091324639464046FFF746
S3152020AF6021FF064630460AB0BDE8F08140460597C7
S3152020AF706A68079205AA704740460597FA8807927D
S3152020AF8005AAFFF73BBC00220123069213218DF848
S3152020AF90203040460597FA88079205AAFFF76BBC12
S3152020AFA030B585B0164A02920123039100228DF8EE
S3152020AFB0043080218DF8032040238DF80520044677
S3152020AFC08DF8021002AAADF800306946FFF7ECFA98
S3152020AFD0010010D1002269468DF8022002AA2046BF
S3152020AFE0FFF7E2FA050005D080212046FFF7FCFA7C
S3152020AFF0284600E0002005B030BD0000486420200F
S3152020B00007AE20207FB5054669466C682046FBF7AB
S3152020B01065FA90BB3CA201A852F82460FBF7D8FC25
S3152020B020009801902046FDF720FA024601A93046D5
S3152020B030FBF7D0FCF0B9AA6802212046304D904774
S3152020B04001212046FEF77CFE4FF400113046FBF707
S3152020B050DFFCB06940F48020B061B1695A2041F408
S3152020B0600021B161696888476A68A6209047012037
S3152020B070285503E02046FBF717FA002004B070BDC0
S3152020B08010B504461E4A51606068A2680121904787
S3152020B0906068FBF709FA002010BD000070B5044651
S3152020B0A017496568485D48B117A2002152F82560E6
S3152020B0B02846FEF745FE3046FBF788FC2846FBF758
S3152020B0C00BFA6068A2680021BDE870401047000096
S3152020B0D010B544680CA353F82400FBF775FC002018
S3152020B0E010BD10B5074C2046FBF794FC810206D5EF
S3152020B0F0E069034A5168BDE81040C0B2084710BD38
S3152020B100082A002000401840000000000040184077
S3152020B1100080184000C018400000194010B58B4808
S3152020B120FF22C36834211C6904F18000FDF7D0F981
S3152020B130FDF7B8F9002010BD30B5844A4B23D068DE
S3152020B1400224502501690720CB7000238C7001240E
