S0130000666C6173686C6F616465722E737265638C
S3152025000090D22720FDA02620CF4B2520CF4B25205B
S31520250010BB752620E97526200976262000000000B6
S31520250020000000000000000000000000CF4B252026
S31520250030CF4B252000000000CF4B2520CF4B252058
S3152025004005BE262005BE262005BE262005BE262041
S3152025005005BE262005BE262005BE262005BE262031
S3152025006005BE262005BE262005BE262005BE262021
S3152025007005BE262005BE262005BE262005BE262011
S3152025008005BE262005BE262005BE262005BE262001
S315202500909598262005BE262005BE262005BE262087
S315202500A005BE262005BE262005BE262005BE2620E1
S315202500B005BE262005BE262005BE262005BE2620D1
S315202500C005BE262005BE262005BE262005BE2620C1
S315202500D005BE262005BE262005BE262005BE2620B1
S315202500E005BE262005BE262005BE262005BE2620A1
S315202500F005BE262005BE262005BE262005BE262091
S3152025010005BE262005BE262005BE262005BE262080
S3152025011005BE262005BE262005BE262005BE262070
S3152025012005BE262005BE262005BE262005BE262060
S3152025013005BE262005BE262005BE262005BE262050
S3152025014005BE262005BE262005BE262005BE262040
S3152025015005BE262005BE262005BE262005BE262030
S3152025016005BE262005BE262005BE262025A126201D
S315202501702DA1262005BE262005BE262005BE262005
S3152025018005BE262005BE262005BE262005BE262000
S3152025019005BE262005BE262005BE262005BE2620F0
S315202501A005BE262005BE262005BE262005BE2620E0
S315202501B005BE262005BE262005BE262005BE2620D0
S315202501C005BE262005BE262005BE262005BE2620C0
S315202501D005BE262005BE262005BE262005BE2620B0
S315202501E005BE2620B51C252005BE262005BE262093
S315202501F005BE262005BE262005BE262005BE262090
S3152025020005BE262005BE262005BE262005BE26207F
S3152025021005BE262005BE262005BE262005BE26206F
S3152025022005BE262005BE262005BE262005BE26205F
S3152025023005BE262005BE262005BE262005BE26204F
S3152025024005BE262005BE262005BE262005BE26203F
S3152025025005BE262005BE262005BE262005BE26202F
S3152025026063BD262005BE262005BE262005BE2620C2
S3152025027005BE262005BE262005BE262005BE26200F
S3152025028005BE262005BE262005BE262005BE2620FF
S3152025029005BE262005BE262005BE262005BE2620EF
S315202502A005BE262005BE262005BE262005BE2620DF
S315202502B005BE262005BE262005BE262005BE2620CF
S315202502C005BE262005BE262005BE262005BE2620BF
S315202502D005BE262005BE262005BE262005BE2620AF
S315202502E005BE262005BE262005BE262005BE26209F
S315202502F005BE262005BE262005BE262005BE26208F
S3152025030005BE262005BE262005BE262005BE26207E
S3152025031005BE262005BE262005BE262005BE26206E
S3152025032005BE262005BE262005BE262005BE26205E
S3152025033005BE262005BE262005BE262005BE26204E
S3152025034005BE262005BE262005BE262005BE26203E
S3152025035005BE262005BE262005BE262005BE26202E
S3152025036005BE262005BE262005BE262005BE26201E
S3152025037005BE262005BE262005BE262005BE26200E
S3152025038005BE262005BE262035A126203DA12620D0
S3152025039045A126204DA1262005BE262005BE2620A0
S315202503A005BE262005BE262005BE262005BE2620DE
S315202503B005BE262005BE262005BE262005BE2620CE
S315202503C005BE262005BE262005BE262005BE2620BE
S315202503D005BE262005BE262005BE262005BE2620AE
S315202503E005BE262005BE262005BE262005BE26209E
S315202503F005BE262005BE262005BE262005BE26208E
S3152025040090D22720FDA02620CF4B2520CF4B252057
S31520250410BB752620E97526200976262000000000B2
S31520250420000000000000000000000000CF4B252022
S31520250430CF4B252000000000CF4B2520CF4B252054
S3152025044005BE262005BE262005BE262005BE26203D
S3152025045005BE262005BE262005BE262005BE26202D
S3152025046005BE262005BE262005BE262005BE26201D
S3152025047005BE262005BE262005BE262005BE26200D
S3152025048005BE262005BE262005BE262005BE2620FD
S315202504909598262005BE262005BE262005BE262083
S315202504A005BE262005BE262005BE262005BE2620DD
S315202504B005BE262005BE262005BE262005BE2620CD
S315202504C005BE262005BE262005BE262005BE2620BD
S315202504D005BE262005BE262005BE262005BE2620AD
S315202504E005BE262005BE262005BE262005BE26209D
S315202504F005BE262005BE262005BE262005BE26208D
S3152025050005BE262005BE262005BE262005BE26207C
S3152025051005BE262005BE262005BE262005BE26206C
S3152025052005BE262005BE262005BE262005BE26205C
S3152025053005BE262005BE262005BE262005BE26204C
S3152025054005BE262005BE262005BE262005BE26203C
S3152025055005BE262005BE262005BE262005BE26202C
S3152025056005BE262005BE262005BE262025A1262019
S315202505702DA1262005BE262005BE262005BE262001
S3152025058005BE262005BE262005BE262005BE2620FC
S3152025059005BE262005BE262005BE262005BE2620EC
S315202505A005BE262005BE262005BE262005BE2620DC
S315202505B005BE262005BE262005BE262005BE2620CC
S315202505C005BE262005BE262005BE262005BE2620BC
S315202505D005BE262005BE262005BE262005BE2620AC
S315202505E005BE2620B51C252005BE262005BE26208F
S315202505F005BE262005BE262005BE262005BE26208C
S3152025060005BE262005BE262005BE262005BE26207B
S3152025061005BE262005BE262005BE262005BE26206B
S3152025062005BE262005BE262005BE262005BE26205B
S3152025063005BE262005BE262005BE262005BE26204B
S3152025064005BE262005BE262005BE262005BE26203B
S3152025065005BE262005BE262005BE262005BE26202B
S3152025066063BD262005BE262005BE262005BE2620BE
S3152025067005BE262005BE262005BE262005BE26200B
S3152025068005BE262005BE262005BE262005BE2620FB
S3152025069005BE262005BE262005BE262005BE2620EB
S315202506A005BE262005BE262005BE262005BE2620DB
S315202506B005BE262005BE262005BE262005BE2620CB
S315202506C005BE262005BE262005BE262005BE2620BB
S315202506D005BE262005BE262005BE262005BE2620AB
S315202506E005BE262005BE262005BE262005BE26209B
S315202506F005BE262005BE262005BE262005BE26208B
S3152025070005BE262005BE262005BE262005BE26207A
S3152025071005BE262005BE262005BE262005BE26206A
S3152025072005BE262005BE262005BE262005BE26205A
S3152025073005BE262005BE262005BE262005BE26204A
S3152025074005BE262005BE262005BE262005BE26203A
S3152025075005BE262005BE262005BE262005BE26202A
S3152025076005BE262005BE262005BE262005BE26201A
S3152025077005BE262005BE262005BE262005BE26200A
S3152025078005BE262005BE262035A126203DA12620CC
S3152025079045A126204DA1262005BE262005BE26209C
S315202507A005BE262005BE262005BE262005BE2620DA
S315202507B005BE262005BE262005BE262005BE2620CA
S315202507C005BE262005BE262005BE262005BE2620BA
S315202507D005BE262005BE262005BE262005BE2620AA
S315202507E005BE262005BE262005BE262005BE26209A
S315202507F005BE262005BE262005BE262005BE26208A
S31520250800002A01D101207047F0B41F460346032450
S315202508102340002B09D00424E31A01700130082433
S31520250820E141521E26D05B1EF7D1042A1ADB13D0AE
S31520250830002F11D00C460D460E46102A02DB72C01B
S31520250840103AFAE70C2A02DB32C00C3AFAE7082AD4
S3152025085002DB12C0083AFAE7042A03DB01600430DA
S31520250860121FF9E7002A05D0017001300824E1413D
S31520250870521EF7D1F0BC002070475AA72D5A2520A5
S3152025088000000000955A252000000000D15C252077
S31520250890795F2520B35B2520F55D2520036125205D
S315202508A0000000000000000000000000EF5A25206F
S315202508B000000000BF5A2520F55D2520256125202D
S315202508C000000000B561252000000000E5592520FF
S315202508D000000000335B25200000000000000000FA
S315202508E000000000ED612520000000005162252032
S315202508F0000000008F622520795F2520575B252063
S31520250900000000000000000000000000EF5B25200D
S31520250910BD5D25200000000000000000A9642520DB
S31520250920BD5D252000000000B71DC1046E3B820950
S31520250930D926430DDC7604136B6BC517B24D861A63
S315202509400550471EB8ED08260FF0C922D6D68A2F80
S3152025095061CB4B2B649B0C35D386CD310AA08E3C9F
S31520250960BDBD4F3870DB114CC7C6D0481EE0934518
S31520250970A9FD5241ACAD155F1BB0D45BC2969756E7
S31520250980758B5652C836196A7F2BD86EA60D9B6352
S3152025099011105A6714401D79A35DDC7D7A7B9F70E3
S315202509A0CD665E74E0B6239857ABE29C8E8DA191D9
S315202509B0399060953CC0278B8BDDE68F52FBA5822F
S315202509C0E5E66486585B2BBEEF46EABA3660A9B7BC
S315202509D0817D68B3842D2FAD3330EEA9EA16ADA4DB
S315202509E05D0B6CA0906D32D42770F3D0FE56B0DD0A
S315202509F0494B71D94C1B36C7FB06F7C32220B4CEEB
S31520250A00953D75CA28803AF29F9DFBF646BBB8FBD5
S31520250A10F1A679FFF4F63EE143EBFFE59ACDBCE856
S31520250A202DD07DEC77708634C06D4730194B043D2B
S31520250A30AE56C539AB0682271C1B4323C53D002E42
S31520250A407220C12ACF9D8E1278804F16A1A60C1B07
S31520250A5016BBCD1F13EB8A01A4F64B057DD00808BE
S31520250A60CACDC90C07AB9778B0B6567C6990157157
S31520250A70DE8DD475DBDD936B6CC0526FB5E61162C6
S31520250A8002FBD066BF469F5E085B5E5AD17D1D5709
S31520250A906660DC5363309B4DD42D5A490D0B194482
S31520250AA0BA16D84097C6A5AC20DB64A8F9FD27A59C
S31520250AB04EE0E6A14BB0A1BFFCAD60BB258B23B68E
S31520250AC09296E2B22F2BAD8A98366C8E41102F83C3
S31520250AD0F60DEE87F35DA9994440689D9D662B907A
S31520250AE02A7BEA94E71DB4E0500075E4892636E989
S31520250AF03E3BF7ED3B6BB0F38C7671F7555032FACA
S31520250B00E24DF3FE5FF0BCC6E8ED7DC231CB3ECF8C
S31520250B1086D6FFCB8386B8D5349B79D1EDBD3ADCF5
S31520250B205AA0FBD8EEE00C6959FDCD6D80DB8E6091
S31520250B3037C64F643296087A858BC97E5CAD8A7313
S31520250B40EBB04B77560D044FE110C54B383686460C
S31520250B508F2B47428A7B005C3D66C158E4408255EF
S31520250B60535D43519E3B1D252926DC21F0009F2CD4
S31520250B70471D5E28424D1936F550D8322C769B3F97
S31520250B809B6B5A3B26D6150391CBD40748ED970A5E
S31520250B90FFF0560EFAA011104DBDD014949B931933
S31520250BA02386521D0E562FF1B94BEEF5606DADF805
S31520250BB0D7706CFCD2202BE2653DEAE6BC1BA9EB5F
S31520250BC00B0668EFB6BB27D701A6E6D3D880A5DEC8
S31520250BD06F9D64DA6ACD23C4DDD0E2C004F6A1CDAB
S31520250BE0B3EB60C97E8D3EBDC990FFB910B6BCB4A6
S31520250BF0A7AB7DB0A2FB3AAE15E6FBAACCC0B8A71B
S31520250C007BDD79A3C660369B717DF79FA85BB49261
S31520250C101F4675961A163288AD0BF38C742DB08126
S31520250C20C330718599908A5D2E8D4B59F7AB085423
S31520250C3040B6C95045E68E4EF2FB4F4A2BDD0C4772
S31520250C409CC0CD43217D827B9660437F4F46007293
S31520250C50F85BC176FD0B86684A16476C933004618E
S31520250C60242DC565E94B9B115E565A158770191893
S31520250C70306DD81C353D9F0282205E065B061D0BF6
S31520250C80EC1BDC0F51A69337E6BB52333F9D113E15
S31520250C908880D03A8DD097243ACD5620E3EB152D52
S31520250CA054F6D4297926A9C5CE3B68C1171D2BCC48
S31520250CB0A000EAC8A550ADD6124D6CD2CB6B2FDF3E
S31520250CC07C76EEDBC1CBA1E376D660E7AFF023EACF
S31520250CD018EDE2EE1DBDA5F0AAA064F4738627F9CA
S31520250CE0C49BE6FD09FDB889BEE0798D67C63A80A5
S31520250CF0D0DBFB84D58BBC9A62967D9EBBB03E937A
S31520250D000CADFF97B110B0AF060D71ABDF2B32A618
S31520250D106836F3A26D66B4BCDA7B75B8035D36B545
S31520250D20B440F7B109000000BF6725200101000066
S31520250D30B779252000010000838825201001000091
S31520250D40E392252020010000F7A22520210100007D
S31520250D50139A25200000000000000000000007103F
S31520250D6006080508070606040704050404040602E2
S31520250D700000020D020802060205020402030203F0
S31520250D8002030202000007080604050407030602DB
S31520250D9007020502040206010000020602040203D8
S31520250DA002030202020202020202020112062E009A
S31520250DB06F01000065090000700137016D013801BA
S31520250DC06E012E0271012F0172013001730131014D
S31520250DD0740132016C0133016B0134016A0135013D
S31520250DE06901360167080000660900006D01380192
S31520250DF000000000680800006C0133016B013401F6
S31520250E006A01350169013601000000000000000055
S31520250E1000000000000000000C0000000C0000006F
S31520250E200C0000000800000051030000000000000F
S31520250E30520337004F03380050032E0153032F004A
S31520250E405403300055033100560332004E03330038
S31520250E504D0334004C0335004B03360000000000BB
S31520250E600000000000000000000000000000000037
S31520250E700000000000000000000000000000000027
S31520250E800000000000000000000000000000000017
S31520250E9003000000030000000300000007000000F7
S31520250EA0350400000000000034043D003304000012
S31520250EB0360400003704390038043A0039043B004B
S31520250EC03A043C003B0400003C0400003D0400009D
S31520250ED03E04000032040000000000003304000018
S31520250EE00000000031040000300400002F0400001B
S31520250EF02E0400002D0400002C0400002B040000E5
S31520250F002A040000290400000C0000000C00000023
S31520250F100C00000008000000630600000000000009
S31520250F2064063D0100000000000000006506390129
S31520250F3066063A0167063B0168063C01000000006B
S31520250F400000000000000000000000000000000056
S31520250F500000000000000000000000000000000046
S31520250F600000000000000000000000000000000036
S31520250F700000000000000000000000000000000026
S31520250F800C0000000C0000000C00000008000000EA
S31520250F900000000000C00C4000000D400F04C004D6
S31520250FA001240000000000000000000000000000D1
S31520250FB0000000300000006000112233445566777A
S31520250FC08899AABBCCDDEEFF5A0418080830FF24E1
S31520250FD000000000000000005A0518090831FF25E9
S31520250FE000000000000000005A06180A0832FF26D5
S31520250FF000000000000000000000000000000000A6
S3152025100000000000000000009F04032400000000CB
S3152025101000000000000000009F076007200B042722
S3152025102000000000000000009F876087208B04A712
S3152025103000000000000000005A0418080830FF248C
S3152025104000000000000000005A07208BFFA70000A3
S3152025105000000000000000005A0418080830FF246C
S3152025106000000000000000005A06180AFF2600008E
S3152025107000000000000000005A07180BFF2700007B
S3152025108000000000000000005A06188AFFA600006E
S3152025109000000000000000005A07208BFFA7000053
S315202510A0000000000000000085682520796B25209A
S315202510B0000000009B6B2520796C25200D6D2520B1
S315202510C0A96D252000000000856E2520796B252019
S315202510D000000000896E2520A16E25200D6D252076
S315202510E0B96E252000000000000000000300000046
S315202510F005000000004000420080004200C000425A
S3152025110000000142004001420080014200C01240F9
S3152025111000001340004013400080134000C01340B8
S315202511200000144000C0C5400000C6400040C6400F
S315202511300080C64000C0C6400000C7400000CA4007
S31520251140FF33333333330000010204081020408057
S3152025115000000000004011400080114000C01140D1
S315202511600000124000C0C2400000C340FF68696AE3
S315202511706B0000000000000000C00740000008406A
S31520251180004008400080084000C008400000094073
S31520251190004009400080094000C0094000000A405F
S315202511A00040C2400080C240FF565758595A5B5CC2
S315202511B05D000000A086010040420F008096980021
S315202511C000E1F505000000000A0000000C000000E3
S315202511D00D0000000F000000140000001A0000007A
S315202511E01E00000023000000280000002D0000001E
S315202511F034000000370000003C00000046000000B7
S315202512005000000000000000000000000000904172
S3152025121005080040400000000000000000804140F5
S3152025122000C0414080FF850086000000FF757600BE
S315202512300001000100004001C0000000800180005F
S315202512400000C00140000000000200000000C00090
S31520251250400100008000800100004000C001000000
S315202512600000000200000001C0004000400180006F
S315202512704000800140004000C00100004000C00021
S3152025128000014000800040014000400080014000D0
S315202512900000C0014000C000C00080000001800081
S315202512A080004801400080008001000080008000E9
S315202512B00001800040004001800000008001800060
S315202512C0C0008000C00000014000C0004001000091
S315202512D0C0008000C000C00040000001C000000002
S315202512E04001C000800080000001C00040000001B0
S315202512F00001000000014000C0000001000000019F
S315202513000001800040004001C0000000400140004F
S31520251310800040010000C0004001400040008001BF
S315202513208000000080010000800080014000000030
S31520251330C00100004000C00100000000000200009E
S31520251340090080B0080CC014665510000000000066
S31520251350100000F000000000400000F8000000000A
S3152025136008000D87090080B00800A0120403020199
S315202513700807060504045082010000A204008810EF
S3152025138001000000001050829597262025982620BA
S315202513904198262000000000000000007398262092
S315202513A0D7AF252059AB2520DDAB252031AC2520EF
S315202513B0ADAD252005AE25201FAE2520FBAC25204D
S315202513C089942520819725202D98252061992520CA
S315202513D013952520359925204F992520C7992520F0
S315202513E000555603590C0F5A5A0F0C5903565500BA
S315202513F0653033663C696A3F3F6A693C66333065AA
S31520251400663330653F6A693C3C696A3F6530336699
S31520251410035655005A0F0C59590C0F5A0055560389
S31520251420693C3F6A30656633336665306A3F3C6979
S315202514300C595A0F55000356560300550F5A590C69
S315202514400F5A590C56030055550003560C595A0F59
S315202514506A3F3C693366653030656633693C3F6A49
S315202514606A3F3C693366653030656633693C3F6A39
S315202514700F5A590C56030055550003560C595A0F29
S315202514800C595A0F55000356560300550F5A590C19
S31520251490693C3F6A30656633336665306A3F3C6909
S315202514A0035655005A0F0C59590C0F5A00555603F9
S315202514B0663330653F6A693C3C696A3F65303366E9
S315202514C0653033663C696A3F3F6A693C66333065D9
S315202514D000555603590C0F5A5A0F0C5903565500C9
S315202514E0F9BD26201DE92520000000003DE92520FF
S315202514F05DE9252000000000000000000000000016
S315202515000100000001000000371C25208813252016
S3152025151098132520A816252010000000000000007D
S31520251520000000000418252000000000141825209E
S315202515300000000000000000000000000000000060
S315202515400000000000000000C5982620EB982620E4
S31520251550F1992620079B262058362720359E25209B
S3152025156083A025202FA1252061A22520A19E2520E7
S3152025157037A225204FA22520B3A225200100000031
S315202515800C0000000D0000000400000001000000F2
S315202515900000FE1F0000022000002200000000009F
S315202515A000000400000020000000000000000000CC
S315202515B0000000000000000408040800012106217F
S315202515C0212100000204020400011003211021001C
S315202515D0000204020200011003211021000001034C
S315202515E00102000110032110210000010201010042
S315202515F00110032110210000010201010001100321
S31520251600211021000000000000000000000000003D
S315202516104D4943524F4E2020202020205350414EC5
S3152025162053494F4E2020202053414D53554E472078
S315202516302020202057494E424F4E4420202020202E
S3152025164048594E495820202020202020544F5348A1
S3152025165049424120202020204D4143524F4E495872
S3152025166020202020000000000000000000000000AF
S31520251670EF0001000000000000000000EF009000B0
S31520251680000000000000000051812520B984252076
S31520251690AF8525201B8725200B82252039882520C7
S315202516A05188252000000000379C2620479C26208F
S315202516B00B9D2620AB9D26203D9C2620BB9D2620A6
S315202516C0159C2620000201500000AAEA5A00000097
S315202516D000000000A33825204910262000000800F8
S315202516E000001000000020000000400000008000BF
S315202516F00000000100000002000000040000000890
S31520251700000000100000002000000040008000009E
S315202517100000010000000200000004000010000067
S3152025172000200000008000000000010000000200CB
S315202517300000040000000000000100000002000057
S31520251740000400002000000040000000800000006A
S31520251750E98F2520FD8F2520219025208391252061
S31520251760779225201591252000000000C39125205C
S31520251770E16F2520A57425200F762520A9782520FB
S3152025178063732520597825207178252000000000AF
S315202517904D8F2620FF8F262000000000FF8F262034
S315202517A000000000BF902620499126200000000039
S315202517B04992262089922620ED9226203B93262083
S315202517C08393262097812620FB812620A77D2620E8
S315202517D001000000000000000000000000000000BD
S315202517E00000000085B2262037B32620B5B3262053
S315202517F0D5B32620EFB3262091B5262000004340D9
S3152025180000C0424085B8262045BA262053BB26202F
S3152025181085BB262095BB2620BBBB262077BC26202C
S315202518203BBD262055BD26205BBD26200000000079
S3152025183010B5040000204C490860002000214B4AA1
S31520251840C2E900014A4AC2E900014A4AC2E9000121
S31520251850002049490860494800F002F9484AC2E96A
S3152025186000010FF27101200000F039FA10BD10B5E4
S315202518700400200000F04AFA10BD38B504000D00FA
S3152025188039480068072823D13B48006884421FD160
S3152025189001F086F803000F2043433448D0E90001A0
S315202518A002003348D0E900018218B3FBF2F10A2061
S315202518B000FB01F04FF49662B0FBF2F0401D0A22A0
S315202518C0B0FBF2F24FF4966042432A60002000E0F6
S315202518D0012032BD2DE9F843804600F0B0F80400FA
S315202518E00D0021480168491C0160DFF88890D9E957
S315202518F00023A61A75EB03072149D1E90023BB420C
S3152025190004D801D3B24201D2012101600068012801
S3152025191006D004280BD0052812D0072814D01EE07F
S315202519201248C0E900451448C0F8008017E00F4842
S31520251930D0E90023A21A75EB0303C0E900230EE0A4
S315202519400B48C0E900450AE00948D0E90023A21A38
S3152025195075EB0303C0E90023404600F0D7F9C9E912
S315202519600045BDE8F1830000281C2720001C2720E0
S31520251970081C2720101C27202C1C272080380100F6
S31520251980181C272010B40A00D2B2032A06D1012218
S31520251990514B040064B264011A5105E000224E4BD6
S315202519A0040064B264011A5110BC704710B50400B6
S315202519B00321200040B2FFF7E5FF10BD10B53E20DC
S315202519C0FFF7F4FF0020454908605FF0FF304449C2
S315202519D00860444900220A600122434B1A600A689E
S315202519E052F004020A600A6852F001020A603F4951
S315202519F0086001203E49086001203E4908603E4C8A
S31520251A0000F0CEFF3D49B0FBF1F02060206800288C
S31520251A1001D10120206010BD0320002809D4334997
S31520251A20002203010B449A6000220301CA50401E5E
S31520251A30F3E72A48016851F002010160704782B018
S31520251A402F48026800232F480068009013000022A3
S31520251A500098002110431943C043C94302B070475B
S31520251A6025490968A1FB000170472DE9F0418046EB
S31520251A70FFF7E5FF04000D001F48006826002F000C
S31520251A80E0FB0867FFF7DBFFB942FBD301D8B0425D
S31520251A90F8D3BDE8F08170B506003000FFF7E0FFEA
S31520251AA004000D00FFF7CBFF00196941164AC2E94C
S31520251AB0000170BD80B5FFF7C2FF134AD2E9002386
S31520251AC0994204D301D8904201D3012000E0002079
S31520251AD0C0B202BD000000000060CC4000800D4051
S31520251AE010810D4018810D401C810D4000810D402F
S31520251AF00C810D4008810D40282F272040420F00BC
S31520251B00E0800D40E4800D40201C2720010009B2ED
S31520251B10002909D4012210F01F018A408449030097
S31520251B201BB25B0941F823207047010009B2002921
S31520251B300DD4012210F01F018A407E4903001BB2D5
S31520251B405B0941F82320BFF34F8FBFF36F8F704773
S31520251B5010B4020012B2002A05D44A01764B04009D
S31520251B6024B21A5508E04A01744B040024B214F015
S31520251B700F04234403F8042C10BC704770B4049C2E
S31520251B8011F00F05260116F0100635430560002AAB
S31520251B9000D0136070BC704780697047816170479B
S31520251BA070B4039C049D00260660002A01D00026D9
S31520251BB01660002C00D0256070BC70472DE9FC47A7
S31520251BC004000D0016001F00DDF82880DDF82C9076
S31520251BD0DDF830A000200190CDF800803B003200B2
S31520251BE029002000FFF7CAFFD8F8000050F00C0086
S31520251BF0C8F80000D9F80400012111FA0AF1884312
S31520251C00C9F80400BDE8F3872DE9FC4104000D0041
S31520251C1016001F00DDF8208000200190CDF80080D9
S31520251C203B00320029002000FFF7A8FF0E20C8F828
S31520251C300000BDE8F381FEB504000D002800C0B2E2
S31520251C40002803D0022823D015D332E03C4E3D4F21
S31520251C500220019000970023002200213000FFF763
S31520251C609FFF0220019000970023002200213000AB
S31520251C70FFF796FF1DE01820029033480190334840
S31520251C8000900023002205213148FFF797FF10E019
S31520251C902E48009000232F4A00212D48FFF7B4FF18
S31520251CA0284800900023002200212548FFF7ACFF75
S31520251CB0FFE7F7BD38B55FF08074234D2800FFF781
S31520251CC06BFF20420AD024494868002806D00120E7
S31520251CD04968884721002800FFF760FF31BD38B5C0
S31520251CE004000D001C48456004221821164800F0E2
S31520251CF03DFF1A48016851F0807101600121692054
S31520251D00FFF726FF6920FFF701FF31BD10B5040037
S31520251D106920FFF70AFF00216920FFF719FF002216
S31520251D201821094800F022FF00200B49486010BDE4
S31520251D3000E100E080E100E000E400E018ED00E0AD
S31520251D406C810E40B0830E4000401340B4830E4074
S31520251D5070810E401C860E40503627201440134095
S31520251D600818401EB0FBF1F070472DE9F041DFF849
S31520251D70480A0568C5F3402414F00104C5F3002656
S31520251D8016F0010605F0FF07002C19D0DFF82C8A5E
S31520251D902020C8F80000380650EA8620DFF8101CD7
S31520251DA00860D8F8000050F48070C8F8000001209B
S31520251DB000F0B3F8D8F8000030F48070C8F8000099
S31520251DC0BDE8F08181B003200090DFF8800A006805
S31520251DD0C0F34050002833D0009800281AD1DFF8C8
S31520251DE0700A1421016001684900FCD5DFF8640AD0
S31520251DF0016851F480710160DFF85C1A0A6852F097
S31520251E0004020A60DFF8AC1B0968016831F4807189
S31520251E10016015E00098012812D1DFF8380A0168FB
S31520251E2051F480710160DFF8301A0A6852F00402F5
S31520251E300A60DFF8801B0968016831F4807101602A
S31520251E4001B0704770B5DFF8146A346854F0080479
S31520251E50DFF8640B04403460BFF36F8F35680A20A2
S31520251E6060F34C2555F400253560BFF36F8FC820C8
S31520251E7000F053F8306850F020003060BFF36F8FA4
S31520251E80642000F04AF8306850F004003060BFF333
S31520251E906F8F70BD38B5DFF8C8592C6854F0040407
S31520251EA0DFF8180B04402C60BFF36F8F286850F09D
S31520251EB001002860BFF36F8F4FF4967000F02DF840
S31520251EC0286850F400302860BFF36F8F4FF4C87010
S31520251ED000F023F8286850F480202860BFF36F8F00
S31520251EE0322000F01AF8286830F004002860BFF365
S31520251EF06F8F31BD80B5FFF7A5FFFFF7CBFF01BD5E
S31520251F00DFF8300ADFF8301A0968C1F38001002985
S31520251F1002D0DFF8AC1A08007047002819D0DFF860
S31520251F201C1A0968DFF8182AB1FBF2F14143DFF8BC
S31520251F30142A1160DFF8101A00220A60DFF8842A95
S31520251F40052313601368DB03FCD5002313600022C9
S31520251F500A60704780B5DFF8F40901684908490009
S31520251F600160DFF8640A016851F001010160FFF77D
S31520251F70FCFE01BDF8B504000021DFF8B80984422E
S31520251F8001D1742507E0DFF8380A844201D191254D
S31520251F9001E0042028E005F0FF0646F0804656F4A9
S31520251FA00056DFF8287A3E60BFF34F8FBFF36F8F39
S31520251FB01E20FFF7B2FF0021DFF880090068DFF831
S31520251FC08029B0FBF2F21E2042433868800004D4D3
S31520251FD0491C8A42F9D2052006E056F480463E6001
S31520251FE036F080463E600020F2BD2DE9F8430500F7
S31520251FF00021DFF84009854201D1032607E0DFF8D5
S31520252000C009854201D1052601E0042064E05FF060
S315202520103F37DFF8BC89D8F800003843C8F80000D8
S3152025202016F0070444F0804454F01004DFF8A499F0
S31520252030C9F800401E20FFF770FF44F4001454F41D
S315202520400064C9F800401E20FFF767FF34F40064BA
S31520252050C9F800400022DFF8E4381E201968DFF889
S31520252060E0C8B1FBFCF14143D9F800C05FEA8C0CEE
S3152025207004D4521C9142F7D205202DE044F4005475
S3152025208054F00804C9F8004034F08044C9F80040CB
S31520252090DFF844C9C8F800C0D8F800C03CF0BF3CDA
S315202520A0DFF838E9DEF8009099F01E09CEF8009081
S315202520B05FF0000E1B68DFF88898B3FBF9F34343DE
S315202520C0D8F8000010EA0C0F05D01EF1010E734535
S315202520D0F6D2052000E00020BDE8F2832DE9F84F51
S315202520E00400002100225FF0FF35DFF848088442EE
S315202520F002D10026162709E0DFF8C408844203D139
S315202521005FF000461B2701E0042071E05FF0803850
S31520252110DFF8CC98D9F8000058EA0000C9F8000065
S31520252120DFF8C0080560DFF8C0080660DFF8BC08C0
S315202521300760DFF8BCB8DFF8BCA8CAF800B01E20B7
S31520252140FFF7EBFE4BF4000B5BF4006BCAF800B0EF
S31520252150FA20FFF7E2FE3BF4006BCAF800B0002216
S31520252160DFF8D807FA230168DFF8D4C7B1FBFCF1DD
S315202521705943DAF800C05FEA8C0C04D4521C9142EC
S31520252180F7D2052034E05BF4005BCAF800B03BF0BB
S31520252190804BCAF800B0DFF860C8C9F800C0D9F866
S315202521A000C03CF0BF3CDFF854E8DEF800A09AF0EA
S315202521B01E0ACEF800A05FF0000E0068DFF880A783
S315202521C0B0FBFAFA03FB0AFAD9F8000010EA0C0F3D
S315202521D005D01EF1010EF245F6D2052008E040F283
S315202521E00140DFF81C180860DFF818180860002061
S315202521F0BDE8F28F2DE9F04106000124DFF85006CF
S3152025220014210160002701684900FCD5FFF778FED7
S3152025221080463000C0B2002807D04046FFF7AAFEE8
S315202522200400002C01D0200012E000F02AFA4046B6
S31520252230FFF7DBFE0500002D01D0280008E04046EB
S31520252240FFF74CFF0100002901D0080000E00020FF
S31520252250BDE8F081DFF8E0060068C0F3C00000285D
S3152025226001D03C2000E0AA207047DFF8CC06006884
S31520252270C0F3C000002801D03C2000E0AA207047EA
S315202522802DE9F14F82B00120DFF8AC160968C1F39C
S31520252290011410FA04F4092C01D3012004009DF819
S315202522A00800002840F0F4800020DFF85C1708603D
S315202522B00020DFF858170860DFF8545700202860DB
S315202522C0DFF8506700203060FFF744FEFFF77AFDE0
S315202522D0FFF7C0FF01900198AA2867D1DFF8387744
S315202522E0DFF838173800FFF73BFD804604FB08F852
S315202522F0DFF82C173800FFF733FD814604FB09F953
S31520252300DFF820173800FFF72BFD824604FB0AFA53
S31520252310DFF814173800FFF723FD834604FB0BFB54
S31520252320DFF808173800FFF71BFD00900098401EA0
S3152025233010F00F000099491E090411F47F01084366
S31520252340DFF8EC160860DFF8EC0600680028FAD4DA
S31520252350B8F1010000F0FF0050F40070DFF8A81650
S315202523600860B9F1010000F0FF0050F40070DFF895
S315202523709C160860BAF1010000F0FF0050F40070A9
S315202523802860BBF1010000F0FF0050F4007030609A
S315202523900020FFF72FFF4FF40171DFF89C261160EF
S315202523A0B7FBF8F1DFF8942511606BE001983C28FE
S315202523B068D1DFF88876DFF864163800FFF7D0FC79
S315202523C060430090DFF85816DFF84C06FFF7C8FC67
S315202523D0804604FB08F8DFF84C16DFF86406FFF77D
S315202523E0BFFC814604FB09F9DFF83C16DFF85406C5
S315202523F0FFF7B6FC824604FB0AFADFF830163800CA
S31520252400FFF7AEFC834604FB0BFBBBF1010010F066
S315202524100F00BBF10101090411F47F010843DFF800
S3152025242010160860DFF80C0600680028FAD401206B
S31520252430FFF7E0FE0099491E01F0FF0151F4806166
S31520252440DFF8C4251160B8F1010101F0FF0151F42F
S315202524500071DFF8B8251160B9F1010101F0FF01FE
S3152025246051F480612960BAF1010101F0FF0151F48F
S315202524708061316040F20241DFF8BC251160DFF82A
S31520252480BC140F6000F0B0FF042100F063FEFFE7C7
S31520252490BDE8F78F2DE9F14F82B00120DFF898149A
S315202524A00968C1F3011410FA04F4092C01D301207B
S315202524B004009DF80800002840F0E180FFF74AFD3A
S315202524C0FFF780FCFFF716FDFFF7CFFE0500AA2DA7
S315202524D06BD1DFF84465DFF844153000FFF740FC63
S315202524E007006743DFF838153000FFF739FC8046AB
S315202524F004FB08F8DFF82C153000FFF731FC814660
S3152025250004FB09F9DFF820153000FFF729FC824660
S3152025251004FB0AFADFF814153000FFF721FC834661
S3152025252004FB0BFBBBF1010010F00F00BBF10101F1
S31520252530090411F47F010843DFF8F4140860DFF855
S31520252540F40400680028FAD4781E00F0FF0050F421
S315202525500070DFF8B4140860B8F1010000F0FF0020
S3152025256050F40070DFF8A4140860B9F1010000F0DA
S31520252570FF0050F40070DFF898140860BAF10100C6
S3152025258000F0FF0050F40070DFF888140860002062
S31520252590FFF730FE4FF40171DFF89C241160B6FB5E
S315202525A0F7F1DFF89823116063E0DFF894040090B3
S315202525B0DFF868140098FFF7D3FB06006643DFF89B
S315202525C060140098FFF7CCFB60430190DFF8541484
S315202525D00098FFF7C5FB07006743DFF84C140098E2
S315202525E0FFF7BEFB804604FB08F8DFF84014009869
S315202525F0FFF7B6FB814604FB09F9B9F1010010F076
S315202526000F00B9F10101090411F47F010843DFF810
S3152025261020140860DFF81C0400680028FAD400205E
S31520252620FFF7E8FD711E01F0FF0151F4C061DFF8C7
S31520252630D82311600199491E01F0FF0151F4A061AB
S31520252640DFF8C8231160791E01F0FF0151F480615E
S31520252650DFF8BC231160B8F1010101F0FF0151F427
S31520252660A061DFF8B023116040F20241DFF8C823CC
S31520252670116000F0B9FE042100F06CFDFFE7BDE8EE
S31520252680F78F38B5DFF8C0430020206040F20510CB
S31520252690DFF8B8130860DFF8B853286890F480303F
S315202526A028606420FFF739FC5FF480302060286895
S315202526B090F4803028604FF48070DFF898130860F6
S315202526C00120FFF72AFCDFF89003016851F010015D
S315202526D0016031BD38B5DFF830130868002802D0EF
S315202526E00868002801D100204AE00120924909687E
S315202526F0C1F3011410FA04F4092C01D30120040096
S3152025270001F059F9002819D0FFF7AFFDAA2808D1DD
S31520252710DFF80453DFF808132800FFF721FB604371
S3152025272007E0DFF81C53DFF8F8122800FFF718FB1F
S315202527306043B5FBF0F08149086020E0FFF78AFD6C
S31520252740AA280AD1B44DB5492800FFF709FB6043CD
S31520252750B5FBF0F07949086011E0DFF80003006841
S31520252760C0F38000002805D0BD48B0FBF4F073499E
S31520252770086004E0B148B0FBF4F0704908600120F8
S3152025278032BD10B504002000C0B2002806D1694804
S315202527906A490860FFF79EFF00280CD101F00BF946
S315202527A0002804D02000C0B2FFF774FE03E02000E5
S315202527B0C0B2FFF765FD10BD1041C8402049C8406D
S315202527C0F8B5A84C206850F0020020605FF0004044
S315202527D0A5490860A54D286830F0804028602868DE
S315202527E050F440402860286850F4C0102860A04F37
S315202527F0386850F4001038603E6836F0E076FFF7EA
S315202528007FFB4C49884202D156F4400601E056F01A
S31520252810A0763E60386850F4405038606420FFF733
S3152025282024F9386850F0400038605FF480309149AB
S315202528300860286830F08040286000208E4908608E
S3152025284020684008400020600120F2BD10CACA40F9
S315202528502040C840C040C8400040C8401045C84018
S315202528603045C84030B40100C9B200290CD0012911
S3152025287012D0022918D004291ED0052924D00629AC
S315202528802AD0072930D037E0052110227B4B14008A
S31520252890E4B2B3FBF4F336E006210F22784B14007D
S315202528A0E4B2B3FBF4F32EE006210C22744B14007C
S315202528B0E4B2B3FBF4F326E0052105226F4B140081
S315202528C0E4B2B3FBF4F31EE0072105226D4B140079
S315202528D0E4B2B3FBF4F316E007210422694B140076
S315202528E0E4B2B3FBF4F30EE006210322644B140075
S315202528F0E4B2B3FBF4F306E0052108225F4B14006E
S31520252900E4B2B3FBF4F31400E4B2641E04F0FF042E
S315202529100D00EDB22D0215F4E0652C435A4D2C60A1
S3152025292030BC704701205949086070470020574917
S315202529300860704700366E01A0C9CA408405272045
S3152025294040420F0014E000E018E000E05040C84067
S3152025295010B42F48036803F0FF00C3F30224002197
S31520252960012C0BD008D3032C0CD009D3052C0DD044
S315202529700AD3072C0ED00BD3454A0CE0444A0AE04D
S31520252980254A08E0434A06E02D4A04E0254A02E086
S315202529903A4A00E0404A401CB2FBF0F010BC704792
S315202529A080B5FFF7D5FF02BD010000223B487047C1
S315202529B03049C840F040C840DAFFF7FFFEFFF9FF4F
S315202529C000F8240110E000E06040C8400042C840DD
S315202529D03042C8401042C8400D1120182042C84018
S315202529E07042C840A042C8408042C8409042C84054
S315202529F0080000404042C8401B1018205042C840BD
S31520252A00001DCC40801DCC400000CC408000CC4011
S31520252A100001CC408001CC400084D7170027B92956
S31520252A20001C4E0E00C2EB0B000E2707C0496E0A6E
S31520252A300040CC402040CC40800CCC40001E7C2938
S31520252A4000389C1C002A75152048C8403048C840A7
S31520252A500045C8408045C8407045C84070C8CA4012
S31520252A600065CD1D4001434038404340304043401A
S31520252A70A0404340A84043400040434000A4781F3F
S31520252A8080B8672300D693270002CC402064CC400B
S31520252A9000366E010024F40040DCB31100B4C404D2
S31520252AA010B40A00D2B2032A06D10122254B0400EE
S31520252AB064B264011A5105E00022224B040064B257
S31520252AC064011A5110BC704710B50400032120005B
S31520252AD040B2FFF7E5FF10BD01000020132806D2DE
S31520252AE0194A52F820208A4201D0401CF6E7704721
S31520252AF0F8B504000D0016002000FFF7EDFF134959
S31520252B000856FFF7E1FF0127616917FA05F081438A
S31520252B1061613078002805D16068AF4030EA070723
S31520252B20676008E072782900200000F011F86068B7
S31520252B30AF4007436760B2782900200000F016F8D9
S31520252B40F1BD00000060CC40F41025204011252041
S31520252B501300DBB2002B04D101238B40C0F888302B
S31520252B6003E001238B40C0F884307047F0B40C0075
S31520252B700126C56916FA01F39D43C561102902D29E
S31520252B8010F10C0502E010F11005103C1300DBB204
S31520252B90012B07D03DD3032B1ED00CD3052B33D0A9
S31520252BA029D336E02E6803272300DBB25B009F401E
S31520252BB0BE432E602DE02F685FF0030C2300DBB289
S31520252BC05B001CFA03FC37EA0C072300DBB25B000B
S31520252BD09E403E432E601CE02E6803272300DBB251
S31520252BE05B009F40BE4302272300DBB25B009F404C
S31520252BF03E432E600DE02E6803272300DBB25B00C3
S31520252C009F403E432E6004E0C3698E401E43C66125
S31520252C10FFE7F0BC704788872DE9F04106000F00B5
S31520252C2015005FF000080024002D03D03800C0B21F
S31520252C30042801DB042071E0012E03D0022E01D0C9
S31520252C4004206BE03800C0B2002802D0022805D027
S31520252C505DE0002001F009F880465AE000205FF06B
S31520252C60000E0022012E03D1DFF888371A0004E052
S31520252C70022E02D1DFF880371A001368C3F3022308
S31520252C80D2F800C00CF0FF0C1CF1010C002B0BD048
S31520252C90022B1CD00CD3042B21D01CD3062B26D0BB
S31520252CA021D3072B27D02AE0DFF85007010028E07B
S31520252CB0DFF84C070068C0F38000002803D0DFF832
S31520252CC04407010002E0DFF83407010019E0DFF8A8
S31520252CD03807010015E0DFF83407010011E0DFF899
S31520252CE0300701000DE0DFF82C07010009E0DFF8A9
S31520252CF02807010005E0DFF82407010001E003206D
S31520252D000400002C05D1B1FBFCF0804601E004200F
S31520252D100400002C01D1C5F800802000BDE8F081F3
S31520252D202DE9F84F04000D00012C02D0022C40F08D
S31520252D30D7810026022C01D102200600286CC00549
S31520252D4000D5761CDFF8E006782101FB06F100EB9D
S31520252D500107286E002802D0D5F8608001E0D7F833
S31520252D606880E86E002802D0D5F86CB001E0D7F847
S31520252D7074B0686E002802D0D5F8649001E0D7F8A3
S31520252D806C90A86E002802D0D5F868A001E0D7F867
S31520252D9070A0286D002803D1686D002800F0C38017
S31520252DA0286D00280AD07878DFF874163A7841F805
S31520252DB02200DFF87006397840F82180686D0028D2
S31520252DC00DD0387900280AD07879DFF854163A7943
S31520252DD041F82200DFF84C06397940F82180387AE7
S31520252DE000280CD0787A50F01000DFF834163A7A7D
S31520252DF041F82200DFF82C06397A40F82190002167
S31520252E0004291AD207EB810010F114025078DFF835
S31520252E10103692F800C043F82C00DFF80806137800
S31520252E2040F823A09078002805D0D078DFF8FC3507
S31520252E30927843F82200491CE2E795F845000828B0
S31520252E4021D197F8240000281DD0042108291AD23B
S31520252E5007EB810010F114025078DFF8C43592F87B
S31520252E6000C043F82C00DFF8BC05137840F823A0D2
S31520252E709078002805D0D078DFF8B035927843F8B9
S31520252E802200491CE2E7287B032802D0287B01283B
S31520252E902BD10022286C80050AD5DFF89405E96E0A
S31520252EA0002902D0D5F86CB004E05FF0080B01E0CC
S31520252EB017F11000002818D00178002915D041785F
S31520252EC051F01001DFF85825037842F82310DFF852
S31520252ED05415027841F822B08178002905D0C17889
S31520252EE0DFF84825807842F82010280000F0B1FF29
S31520252EF0002818D0387B002815D0787B50F0100074
S31520252F00DFF81C153A7B41F82200DFF81805397BB6
S31520252F1040F82190B87B002805D0F87BDFF80C15E2
S31520252F20BA7B41F82200A86D002803D1E86D002838
S31520252F3000F0D680A86D002811D097F834000028F7
S31520252F400DD097F83500DFF8D81497F8342041F8B6
S31520252F502200DFF8D00497F8341040F82180E86D58
S31520252F60002811D097F8380000280DD097F8390079
S31520252F70DFF8AC1497F8382041F82200DFF8A404AE
S31520252F8097F8381040F8218097F83400002804D186
S31520252F9097F83800002800F0A38097F83C000028F1
S31520252FA00FD097F83D0050F01000DFF8741497F8ED
S31520252FB03C2041F82200DFF86C0497F83C1040F8B5
S31520252FC02190002104291AD207EB810010F148020D
S31520252FD05078DFF84C3492F800C043F82C00DFF8FF
S31520252FE04404137840F823A09078002805D0D0787B
S31520252FF0DFF83834927843F82200491CE2E795F821
S315202530004500082821D197F8580000281DD00421ED
S3152025301008291AD207EB810010F148025078DFF8EB
S31520253020003492F800C043F82C00DFF8F803137813
S3152025303040F823A09078002805D0D078DFF8EC3307
S31520253040927843F82200491CE2E7287B032802D000
S31520253050287B01281FD197F8440000281BD097F8F4
S31520253060450050F01000DFF8B81397F8442041F8B2
S315202530702200DFF8B00397F8441040F821B097F8DE
S315202530804600002807D097F84700DFF8A01397F8C1
S31520253090462041F82200280000F0DBFE00281FD01C
S315202530A097F8400000281BD097F8410050F01000D3
S315202530B0DFF86C1397F8402041F82200DFF86403E7
S315202530C097F8401040F8219097F84200002807D01D
S315202530D097F84300DFF8541397F8422041F8220049
S315202530E0BDE8F18F38B504000D00002000F0BDFDA8
S315202530F0DFF84013B0FBF1F122002B00541E73F1AB
S315202531000005002B01D1002A08D00A009208521C5E
S315202531101000421E0028EFD000BFF9E731BD01007F
S31520253120DFF814030160002070470100DFF808034B
S31520253130006808600020704710B403000420002989
S3152025314003D0BE4C0C600024200010BC7047010023
S31520253150002070472DE9FE4304000D000426002C8F
S3152025316003D0032C01D2082D00D33FE00027012CC4
S3152025317002D1A048070003E0022C01D19E48070072
S31520253180D7F8008065F30A286846AD4991E80C10E2
S3152025319080E80C103868804526D05FF0000920008D
S315202531A000F0F3F800280DD0684650F82410096859
S315202531B051F0020150F824000160200000F0D2F8D9
S315202531C001208146C7F800804846C0B200280BD08A
S315202531D0200000F0B4F8684650F82410096831F02C
S315202531E0020150F824000160002006003000BDE8C9
S315202531F0FE832DE9F04F99B005000C001600022E0E
S3152025320001D2002C00D197E0012D02D0022D40F0CD
S3152025321093800027012D02D17648070003E0022D51
S3152025322001D1754807003868C0F3022000900FA801
S315202532308449282201F0DCFC05A88349282201F0AF
S31520253240D7FC5FF000085FF001095FF0000A0098BF
S3152025325000280ED0022807D010D3032813D001200A
S3152025326080460020009012E0012080460120009013
S315202532700DE0012081460020824608E00120814676
S315202532800120824603E001208146032082464046CE
S31520253290C0B2002817D014210FA8009A4A431044FB
S315202532A0012E05D105AA009B01FB03F11144080037
S315202532B00A2C01D301210C0000EB440149788946CB
S315202532C010F814008246B9F1010B0BF0FF0B5FEACB
S315202532D00A2010F4E06050EA0B0B02A85B4991E81E
S315202532E00C1080E80C10280000F04FF800280BD091
S315202532F002A850F82510096851F0020150F825003A
S315202533000160280000F02EF83868834501D0C7F8DB
S3152025331000B0280000F013F802A850F825100968F7
S3152025332031F0020150F8250001600020019001AA04
S3152025333002212800FFF770FC19B0BDE8F08F002187
S31520253340012802D1424A110003E0022801D1414A2F
S315202533501100002905D001220A60BFF34F8FBFF344
S315202533606F8F70470021012802D1394A110003E0C9
S31520253370022801D1374A1100002905D000220A60EA
S31520253380BFF34F8FBFF36F8F7047030000220020B6
S31520253390012B02D12E490A0003E0022B01D12D490A
S315202533A00A00002A05D01168002901D0012000E055
S315202533B00020C0B27047002915D0CA0012F0380265
S315202533C052F001020266CA0012F03802C266CA000D
S315202533D012F0380252F001024266CA0012F0380273
S315202533E052F00102826670471B480068C0F3C02050
S315202533F0401C7047000ACC40800ACC4000366E011E
S31520253400A0C9CA4000B0710B0084D7170024F40048
S31520253410E04B9D2700A4781F007B9A1700389C1C1B
S3152025342010800E4054820E40B00D252098840E40E3
S31520253430AC0D252040420F001C40C04080F5E409F4
S31520253440900F25205C0D2520840D2520900F2520E5
S315202534508063CC40A063CC400840C040BFF34F8F4B
S31520253460DFF82C160A6812F4E062DFF828060243F4
S315202534700A60BFF34F8F00BFFDE710B40A00D2B212
S31520253480032A07D10122DFF81036040064B264012D
S315202534901A5106E00022DFF80036040064B26401E2
S315202534A01A5110BC704710B504000321200040B2E4
S315202534B0FFF7E3FF10BD10B504000021200040B220
S315202534C0FFF7DBFF10BDF0B40C220C2304240C25BA
S315202534D00021DFF8C8653160DFF8C4150A600021B0
S315202534E0DFF8C0653160DFF8C0150A600021DFF8F6
S315202534F0BC653160DFF8B8150A600021DFF8B465B0
S315202535003160DFF8B4150A600021DFF8B065316037
S31520253510DFF8AC150A600021DFF8A8653160DFF8F1
S31520253520A8150A600021DFF8A4653160DFF8A0150B
S315202535300A600021DFF89C653160DFF89C150A605A
S31520253540017A002906D0017A01293BD190F821104C
S31520253550102937D10021DFF884653160DFF8801501
S315202535600A600021DFF87C653160DFF87C150A606A
S315202535700021DFF878653160DFF874150A600021AF
S31520253580DFF870653160DFF870150A600021DFF8F5
S315202535906C653160DFF868150A600021DFF86465FF
S315202535A03160DFF864150A600021DFF86065316037
S315202535B0DFF85C150A600021DFF858653160DFF8F1
S315202535C058150A600021DFF854653160DFF850155B
S315202535D00D600021DFF84C653160DFF84C150D6054
S315202535E00021DFF848653160DFF844150D6000219C
S315202535F0DFF840653160DFF840150C600021DFF8E3
S315202536003C653160DFF838150D6090F830100E00D6
S31520253610F6B2012E1DD024D3032E0AD011D3042E83
S315202536201FD10026DFF81C753E60DFF81C65356046
S315202536301EE00226DFF814753E60DFF81465356036
S3152025364016E00226DFF80C753E60DFF80C6535603E
S315202536500EE00226DFF804753E60DFF80465356046
S3152025366006E00026DFF8FC743E60DFF8FC64356052
S31520253670F0BC704730B40023012806D015D3032883
S315202536800BD006D304280CD00FE01C24DFF8DC54FD
S315202536900CE01124DFF8D85408E01C24DFF8D05498
S315202536A004E01024DFF8CC5400E00CE01300DBB254
S315202536B0002B04D00123A340C5F8883003E001233D
S315202536C0A340C5F8843030BC7047002810D0052883
S315202536D00ED20A21491E01F0FF0151F40071DFF8AF
S315202536E09824802303FB00F31A4412F5A85211606F
S315202536F0704701000020002904D0052902D2DFF8D1
S315202537007C2410007047012808D0C0F0C9800328E2
S3152025371066D034D3042800F09380C1E00021DFF859
S315202537202C2411600B21DFF8282411600021DFF8D5
S31520253730502411600B21DFF84C2411600121DFF87C
S31520253740482411600021DFF8442411600B21DFF87D
S31520253750402411600521DFF83C2411600B21DFF878
S3152025376038241160DFF834140A6852F080520A6032
S31520253770DFF8F8130A6852F080520A6090E0062195
S31520253780DFF81C2411600C21DFF81824116006218E
S31520253790DFF8142411600C21DFF810241160012193
S315202537A0DFF80C2411600621DFF8082411600C218E
S315202537B0DFF8042411600521DFF8002411600C218F
S315202537C0DFF8FC231160DFF8FC130A6852F4003277
S315202537D00A60DFF89C130A6852F400320A605FE01B
S315202537E00921DFF8E42311600C21DFF8E02311609D
S315202537F00921DFF8DC2311600C21DFF8D82311609D
S315202538000121DFF8D42311600921DFF8D0231160A7
S315202538100C21DFF8CC2311600521DFF8C8231160A0
S315202538200C21DFF8C4231160DFF898130A6852F0BB
S3152025383080520A60CE490A6852F080520A602FE0EB
S315202538400921DFF8A82311600C21DFF8A4231160B4
S315202538500921DFF8A02311600C21DFF89C231160B4
S315202538600121DFF8982311600921DFF894231160BF
S315202538700C21DFF8902311600521DFF88C231160B8
S315202538800C21DFF888231160DFF884130A6852F4A7
S3152025389080320A60B7490A6852F480320A60FFE707
S315202538A0704738B58EB004002000FFF70EFF2000A4
S315202538B0FFF729FF07A8D7491C2201F099F9062CDD
S315202538C001D3012010E007A850F82450684601F0BE
S315202538D0DCFAD14800902000FFF70BFF020069464D
S315202538E0280001F069FA00200FB030BD002070476E
S315202538F0FF20CA490968090911F00F0100290CD0B2
S31520253900891E01290CD9891E03290BD9091F0329AB
S315202539100BD9091F03290BD90CE00121080009E041
S31520253920202108000821080004E04021080001E0A4
S3152025393002210800C0B270477047B948C06800699F
S31520253940B84909688164B8490968C164704780B552
S315202539500020FEF716FF00F03AF87320FFF7A3FDA7
S3152025396001BD80B57320FFF7A6FD01BD30B4AF4854
S315202539700200AF490968C1F30311002901D0AD48DA
S3152025398017E0AD490C68AD4BC4F340041D6815F00E
S3152025399002052C43012C01D1A9480AE00968C1F367
S315202539A040011B6813F002031943002901D1A548BC
S315202539B0FFE730BC7047A4480068C0F30B1140F6DA
S315202539C02440814201D1012000E00020704770B5B6
S315202539D0C4B068469D494FF4887201F009F99C4880
S315202539E00068C0F305442D2C01D3FFF737FDFFF7DB
S315202539F0E2FF002819D0974997480860974A4A60D8
S31520253A0048618A616846062202FB04F210448288B0
S31520253A104FF4806042435FF4C010914B8B628B6AD2
S31520253A20C318D3185B1ECB622EE00623684603FBFC
S31520253A3004F1084441884FF480604143684603FBDE
S31520253A4004F2825A4FF480604243684603FB04F30E
S31520253A50184483884FF4806043437E4800250560BB
S31520253A6005684D196D1E45605FF000554561456910
S31520253A7055196D1E85615FF4C015794E8662866A55
S31520253A80AE199E19761EC66244B070BD0000000090
S31520253A900CED00E00400FA050060CC4010800E40B5
S31520253AA054820E4014800E4058820E4018800E40B7
S31520253AB05C820E401C800E4060820E4020800E4087
S31520253AC064820E4024800E4068820E4028800E4057
S31520253AD06C820E402C800E4070820E4088800E40CF
S31520253AE0CC820E408C800E40D0820E4090800E4097
S31520253AF0D4820E4094800E40D8820E4098800E4067
S31520253B00DC820E409C800E40E0820E40A0800E4036
S31520253B10E4820E40A4800E40E8820E405C800E4052
S31520253B20A0820E4060800E40A4820E4068800E4002
S31520253B30AC820E40B0800E40F4820E4058800E4056
S31520253B409C820E4054800E4098820E407C810E40E9
S31520253B50C0830E4078810E40BC830E4074810E4072
S31520253B60B8830E40B4800E40F8820E4000401340A4
S31520253B700080134000C013400000CC40005A62024A
S31520253B8088810E40CC830E40D4850E4084810E40FC
S31520253B90C8830E4080810E40C4830E4004401340C6
S31520253BA0D0810E4014840E40DC810E4020840E40A8
S31520253BB0E8850E40D8810E401C840E40D4810E40C7
S31520253BC018840E4004801340F4810E4038840E401C
S31520253BD0F8810E403C840E4004860E40FC810E4022
S31520253BE040840E4000820E4044840E4044820E407E
S31520253BF088840E4048820E408C840E4014860E40C2
S31520253C004C820E4090840E4050820E4094840E4065
S31520253C1004C0134050112520809698000840C040A6
S31520253C201000272000C9CA4010C9CA40CC424140AD
S31520253C30D0C8CA4033424148E0C8CA4060C9CA40B4
S31520253C40F04241480042414800ED00E0301225204F
S31520253C5070CCCA40640427200000FE1FFFFF0120E8
S31520253C60000020204FF4004070472DE9F041040044
S31520253C702000C0B200281ED001283AD002283AD0EA
S31520253C8003283AD005283AD006283BD007283DD008
S31520253C9008283FD0092841D00A2843D00B2845D0CB
S31520253CA00D2847D00E2849D00F284BD010284DD087
S31520253CB011284FD052E0FFF77EFE002803D0484832
S31520253CC00068060002E047480068060006F0FF0067
S31520253CD0401C0500C6F302200700022F02D14248C8
S31520253CE0804603E0002000F03CF88046B8FBF5F03E
S31520253CF035E0002033E0002031E000202FE0FFF7DB
S31520253D00B1FF2CE0002000F02CF828E0032000F05D
S31520253D1028F824E0002000F04CF820E0012000F0CF
S31520253D2048F81CE0022000F044F818E0032000F0B3
S31520253D3040F814E0022000F014F810E0002000F0EE
S31520253D4022F80CE0012000F01EF808E0022000F001
S31520253D501AF804E0032000F016F800E00020BDE85C
S31520253D60F08101000800C0B2002804D0022804D022
S31520253D70032804D005E01D4804E01D4802E01D481F
S31520253D8000E000207047010000220800C0B200286C
S31520253D9005D0022807D004D3032806D007E01648E5
S31520253DA006E0164804E0164802E0164800E0002002
S31520253DB07047010000220800C0B2002805D002283D
S31520253DC007D004D3032806D007E00F4806E00F487E
S31520253DD004E00F4802E00F4800E00020704700006D
S31520253DE08000CC400000CC400084D7178083902FBC
S31520253DF000A4781F00389C1C0018FB1480B8672364
S31520253E00007B9A1740DCB311D9399D27A5104B1E67
S31520253E1080DF1710002A7515016851F00101016010
S31520253E200168C907FCD47047DFF87C188161022117
S31520253E30C1617047DFF8701881610121C161704722
S31520253E40010091F84000400701D5012000E000201F
S31520253E507047010091F84000C00701D5012000E0F8
S31520253E6000207047010091F84000000701D5012068
S31520253E7000E000207047010091F84000800701D519
S31520253E80012000E000207047010091F840004006FF
S31520253E9001D5012000E0002070472DE9F14F88B09B
S31520253EA00D005FF00408089800F019F906005FF068
S31520253EB00109002E04D0002D02D0287B042800DB02
S31520253EC0C9E0287B0028022802D9C01E03D00DE090
S31520253ED0012081460AE02800FFF7CDFF002802D0E1
S31520253EE00120814601E000208146FFE74846C0B2F1
S31520253EF0002804D04FF48070029003907DE005AA17
S31520253F0002210898FEF788FE00208DF801000598E5
S31520253F10DFF89817884206D395F84000000602D484
S31520253F2001208DF801009DF80100002804D0792074
S31520253F3002907920039060E05FF0000ABAF1020F23
S31520253F405BD205EB4A0090F87900049005EB4A00F0
S31520253F5090F878000690049800283CD1069964208C
S31520253F6041430C00002C2BD12800FFF78DFF8346DB
S31520253F705A46D2B201A90898FFF7DEF85846C0B2AC
S31520253F8000280ED1DFF828070199B0FBF1F1490861
S31520253F904FF47A7041434B20B1FBF0F0401C0700CB
S31520253FA01BE0DFF80C070199B0FBF1F189084FF4E6
S31520253FB07A7041434B20B1FBF0F0401C07000CE002
S31520253FC04B20B4FBF0F007004B2000FB07F0A04266
S31520253FD003D27F1C01E0049807003F200400BC4241
S31520253FE000D22700780210F4FC4050F4807002A9F4
S31520253FF041F82A001AF1010AA0E73068800703D57F
S3152025400000208DF8000002E001208DF800009DF8A3
S315202540100000002803D0306850F002003060286D5B
S31520254020002802D1686D002802D00298C6F8C00063
S31520254030A86D002802D1E86D002802D00398C6F87D
S31520254040C4009DF80000002803D0306830F0020017
S31520254050306000208046404609B0BDE8F08FF0B498
S3152025406004000420002C03D0002A01D0002B00D1E7
S3152025407011E0DFF83C56B5FBF2F603FB06F5B1FB5E
S31520254080F5F506FB05F75F438F4201D26D1CF8E750
S31520254090256000273800F0BC7047020000207047B5
S315202540A0D0F8BC1051F00101C0F8BC10D0F8BC10D6
S315202540B0C907FBD47047D0F8B81051F00101C0F8D4
S315202540C0B810D0F8B810C907FBD47047D0F8E0103F
S315202540D0C907FBD5D0F8E0108907FBD57047010025
S315202540E00020032904D2DFF8CC2552F82120100000
S315202540F07047416951F01E01416170472DE9FE4FF8
S3152025410006000C000427002000903000FFF7E7FF6B
S315202541100500002D01D0002C00D163E014F15009B3
S315202541205FF00008B8F1040F5AD2D9F800000290A2
S3152025413019F104090298800A05EB8801086694F886
S315202541400EA01AF01F0A607B400110F4787050EA01
S315202541500A0AE07BC00210F4F04050EA0A0A200041
S31520254160FFF780FE002801D05AF4806A606F002868
S315202541700DD001AA02213000FEF74EFD0123019A1A
S31520254180616F6846FFF76BFF00985AEA004A05EBF0
S315202541908800C0F870A05FF0000B94F8470000282F
S315202541A015D094F89001400110F0E00F0FD094F827
S315202541B09101000210F4706050EA0B0B94F89001DF
S315202541C0401E400310F4604050EA0B0B01E05BF4DF
S315202541D0106B05EB8800C0F880B018F10108A1E71F
S315202541E0002007003800BDE8FE8F2DE9F0410400A8
S315202541F00D000427002C01D0002D00D127E095F8AD
S31520254200440001280ED1E0684008400050F04000C7
S3152025421080462800FFF714FE002801D058F0010813
S31520254220C4F80C80E06850F02000E06000200600ED
S31520254230072E0AD204EB8600016ADFF87C040140AA
S3152025424004EB86000162761CF2E700200700380081
S31520254250BDE8F0812DE9F84189B005000C0016004E
S315202542601F005FF00408002C28D000208DF80000C0
S3152025427001200390032002908DF81060019794F871
S315202542804700002809D094F88801002805D094F8FD
S315202542908901029094F888010390039B02980001D6
S315202542A0204410F180020121280000F009FA01207E
S315202542B002906946280000F046FA804640460AB014
S315202542C0BDE8F0812DE9F04389B080460C00914662
S315202542D004254046FFF703FF0600002E01D0002CBB
S315202542E000D14CE0D6F80002C0F30127002F05D0D7
S315202542F0607C022802D10020050040E001208DF8AF
S315202543000000CDF80490607D0290207D039000204A
S315202543108DF8100014F118000590042006904B46C0
S31520254320002221004046FFF795FF039B02980001B6
S31520254330204410F180020121404600F0C1F90120D8
S3152025434002906946404600F0FEF90500002D16D15B
S31520254350608A00280DD1607C02280AD0607C03283B
S3152025436007D04B4600222100404600F056FB05008B
S3152025437005E0608A642148430021FEF7B3FE280024
S3152025438009B0BDE8F0832DE9F04707000E00042586
S31520254390002E1CD05FF0000916F1500A5FF00008A8
S315202543A0B8F1040F13D2DAF8000004001AF1040A32
S315202543B0002C09D04A4631003800FFF783FF050037
S315202543C0002D04D114EB090918F10108E8E7280086
S315202543D0BDE8F0872DE9F04F89B007000D009046FE
S315202543E004243800FFF77BFE0600002E01D0002D81
S315202543F000D170E001208DF80000CDF80480002042
S315202544008DF81000042006905FF00009B9F1030FFE
S3152025441061D205EB890090F82100002858D0D6F8DE
S315202544200002C0F3012ABAF1000F04D005EB0900DA
S31520254430407F02284CD005EB890090F82100029078
S3152025444005EB890090F82000039005EB8900303094
S3152025445005904346002229003800FFF7FBFE8346B8
S31520254460BBF1000F01D0584636E0039B0298000188
S31520254470284410F180020121380000F021F901207D
S3152025448002906946380000F05EF90400002C01D020
S31520254490200021E0688A002814D105EB0900407FF9
S315202544A002280FD005EB0900407F03280AD0434672
S315202544B000222900380000F0B0FA0400002C07D08D
S315202544C0200009E0688A642148430021FEF70AFE78
S315202544D019F101099AE7200009B0BDE8F08F2DE9E9
S315202544E0F04707000E000425002E1CD05FF000099A
S315202544F016F1500A5FF00008B8F1040F13D2DAF846
S31520254500000004001AF1040A002C09D04A4631007D
S315202545103800FFF75FFF0500002D04D114EB0909AC
S3152025452018F10108E8E72800BDE8F0872DE9F843CA
S3152025453007000D0004243800FFF7D1FD0600002EC4
S3152025454001D0002D00D1ABE0287C002802D1287F80
S31520254550002806D095F8408018F010085FEA18182C
S3152025456001E05FF0000828685449884240F0988089
S315202545703800FEF7F7FE29003800FEF7D1FB404626
S31520254580C0B2002805D0002201213800FEF731FED1
S3152025459009E02800FFF778FC0200D2B295F84610EC
S315202545A03800FEF726FE3800FEF7C9FE306830F0C3
S315202545B0020030603000FFF72FFC306850F00200F3
S315202545C0306031684DF60F70014095F84500082872
S315202545D001D151F40051894649F07F4959F47F0983
S315202545E0287B000110F0300050EA0909C6F8009012
S315202545F029003800FFF751FDB06830F40040B0603F
S315202546002800FFF726FC002803D0B06850F40020A8
S31520254610B06029003000FFF7E8FD29003800FFF7B4
S315202546206DFD29003800FFF738FC306830F0020090
S3152025463030603000FFF7F0FB287C002806D02900C3
S315202546403800FFF7A0FE0400002C29D1287F00285A
S3152025465006D029003800FFF742FF0400002C1FD181
S315202546604046C0B2002819D0306850F0020030608C
S315202546702800FFF709FCC0B2020095F8461038003D
S31520254680FEF7B7FD29003800FFF707FD290038007A
S31520254690FFF703FC306830F002003060002004006C
S315202546A02000BDE8F2830000F05AF05A00E1F50516
S315202546B000CA9A3B900F252000FEF0F84643464235
S315202546C02DE9F14F82B00E00140098460427029852
S315202546D0FFF705FD0500002D0CD0002C0AD0300053
S315202546E000214246002380185941002903D301D8A9
S315202546F0112800D324E02800FFF7E8FC00200090AD
S315202547005FF000092800FFF78FFB5FEA860A18EB82
S3152025471006008000009005EB8A0010F5007B0098A6
S31520254720824508D22068CBF800001AF1010A1BF130
S31520254730040B241DF3E72800FFF77CFB0020070048
S315202547403800BDE8FE8F2DE9F84F84B007000D000F
S315202547505FF004083800FFF7C2FC0600002E04D0BF
S31520254760002D02D02878042800DB15E10024287C9A
S315202547708DF800003000FFF7A9FC380000F0F7F986
S315202547803000FFF7B6FC6868C6F8A000287802280E
S3152025479002D1A86980B204002878032802D1286A84
S315202547A080B20400A868000410F47020E968491E28
S315202547B0090611F0E06108439DF8001050EAC17002
S315202547C0044303940398C6F8A4002878032863D1C4
S315202547D02C6AD5F81C9019F00300002840F0DC80BF
S315202547E05FF0800A504600090290D3465FEA5B0BAC
S315202547F00298401E800010F07C00C6F8B8003000D4
S31520254800FFF759FCD6F8B00050F00100C6F8B000E5
S31520254810002C41D016F580715C4516D35A46920850
S315202548207069800635D51000421E002806D00868F6
S31520254830091DC9F8000019F10409F4E7B4EB0B04A6
S31520254840706950F02000706123E0D6F8F00000F062
S31520254850FF00C000A0421CD3042C07D30868091DDD
S31520254860C9F8000019F10409241FF5E7002C0ED0FC
S315202548700868019001A84A460023A34207D290F84A
S3152025488000C082F800C0401C521C5B1CF5E70020A6
S31520254890040070690007BBD52878022802D028781D
S315202548A001285AD1D5F818B0D5F814A01AF0030046
S315202548B0002871D18024200000090290A1465FEAB4
S315202548C059090298401E800010F07C00C6F8BC00CD
S315202548D03000FFF7E5FB0021BBF1010F3DDB16F587
S315202548E0C0727069400635D54B469B08CB450DD3FE
S315202548F01800431E002806D0DAF8000010601AF1A9
S31520254900040A121DF4E7BBEB090B13E01800431E1E
S3152025491000280FD0BBF1010F08DBBBF1040BDAF819
S31520254920000010601AF1040A121DEFE7002010601E
S31520254930121DEBE70800C0B2002807D1D6F8B00033
S3152025494050F00100C6F8B00001200100706950F032
S315202549504000706170690007BED52878002805D1EA
S31520254960D6F8B00050F00100C6F8B0003000FFF7A9
S31520254970ADFB706900070DD5D6F8E400C0F30360BA
S315202549800E2803D041F65930804605E041F65830A9
S31520254990804601E000208046404605B0BDE8F08FE0
S315202549A010B504002000FFF79AFB002803D0D0F885
S315202549B0E0108907FBD510BD38B505002800FFF77F
S315202549C08EFB0400002C02D02000FFF725FA31BDEE
S315202549D0F0B40400042025000E001700002B06D075
S315202549E05FEAC37C03D4002C01D0002900D112E034
S315202549F0002B0DD097F800C085F800C07F1C6D1CB4
S31520254A0097F800C086F800C07F1C761C9B1EEFE712
S31520254A105FF0000C6046F0BC70472DE9F94F8FB04A
S31520254A200E0093465FF0040A002E00F09C80002796
S31520254A300120B6F87C8010FA08F8B6F87E00029098
S31520254A401098069003208DF8140001200890012047
S31520254A50079003A80C905846C0B2002801D00820FC
S31520254A6000E004200D908DF824B096F84700002804
S31520254A7009D096F88401002805D096F88501079057
S31520254A8096F884010890089B07980001304410F178
S31520254A90800207990F98FFF713FE306F002802D062
S31520254AA05FF0010901E05FF00009346F002505A9B3
S31520254AB00F98FFF748FE8246BAF1000F53D1584684
S31520254AC0C0B2002822D0082303AA694601A8FFF7E9
S31520254AD07FFF029800280CD0019838EA000000991B
S31520254AE038EA01010843002801D0012721E00027C3
S31520254AF01FE0019818EA0000009918EA01010843E9
S31520254B00002801D0012714E0002712E0029800286A
S31520254B1008D0039838EA0000002801D0012708E0AC
S31520254B20002706E0039810EA080F01D0012700E0A8
S31520254B3000273800C0B210EA090F10D0002D01D168
S31520254B40002C08D04FF47A700021FEF7CBFA641E8C
S31520254B5075F1000503E041F65A30824603E0380018
S31520254B60C0B20028A3D1504611B0BDE8F08F38B584
S31520254B7004002000FFF7B3FA00280FD000210D00EE
S31520254B80042D0BD200EB8501D1F8801051F0004180
S31520254B9000EB8502C2F880106D1CF1E731BD70B59A
S31520254BA006000D003000FFF79AFA0400002C0DD0E0
S31520254BB02000FFF78BFA002D04D0206850F40060E2
S31520254BC0206003E0206830F40060206070BDFEE799
S31520254BD062B38B0708D0521E11F8013B00F8013B22
S31520254BE000F024808B07F6D1830740F0208000BF74
S31520254BF0103A07D330B4B1E83810103AA0E8381067
S31520254C00F9D230BC530724BFB1E80810A0E8081014
S31520254C1044BF51F8043B40F8043BD20724BF31F862
S31520254C20022B20F8022B44BF0B7803707047121FE6
S31520254C3017D35B0009D151F8043B20F8023B1B0C06
S31520254C40121F20F8023BF6D20BE051F8043B00F860
S31520254C50013B1B0A20F8023B1B0C121F00F8013BC7
S31520254C60F3D238BF121D521E24BF11F8013B00F87E
S31520254C70013BF8D8704730B4002513E050F8042BB3
S31520254C80D30744BFA9F101039A18091F042942F81D
S31520254C90045BFAD213468C0744BF15809B1CC90793
S31520254CA048BF1D7050F8041B0029E7D130BC70473A
S31520254CB010B40A00D2B2032A07D10122DFF83837E9
S31520254CC0040064B264011A5106E00022DFF8283771
S31520254CD0040064B264011A5110BC704710B5040053
S31520254CE00321200040B2FFF7E3FF10BD0A00D2B210
S31520254CF0002A04D0026952F00102026103E002690A
S31520254D005208520002617047406970470100012010
S31520254D104968090A88407047C06D10F01F00704702
S31520254D20C06DC0F30440704741617047426A5208FE
S31520254D3052000B00DBB213F001031A43426270477F
S31520254D40406A10F00100704730B403690C00E4B2C4
S31520254D501500EDB26D0255EA04252B43036130BCBF
S31520254D60704710B411F00F03140414F47024234350
S31520254D70836510BC704741667047406F70470100B8
S31520254D80002200200200D2B2072A09D2DFF86C269B
S31520254D900300DBB252F823208A4201D0401CF1E7DA
S31520254DA0C0B2704738B504000D002000FFF7E7FF95
S31520254DB0DFF84C160D5431BDF8B504000D0016004C
S31520254DC0002000902000FFF7DAFF0700DFF83406E1
S31520254DD0C057FFF783FF01212000FFF7A7FF6A7E33
S31520254DE0297E200000F084F8616ADFF81C06014040
S31520254DF0E87E800610F080600143A87E000610F02C
S31520254E004070014361626B4632002968200000F01C
S31520254E1082F8002200212000FFF7A3FF287A697A4D
S31520254E20890711F0804151EAC071A87AC00510F48E
S31520254E30000001436868401E0005000D01430098C7
S31520254E40C00610F060500143287E000610F0407001
S31520254E500143216601212000FFF748FF3300012267
S31520254E60E968200000F0C4F83300022229692000D1
S31520254E7000F0BEF8330003226969200000F0B8F857
S31520254E8000212000FFF78EFFF1BDF8B504001C2573
S31520254E900026270032002900380000F083FBDFF8A2
S31520254EA06C0520600820606000202072002060723A
S31520254EB00020A072DFF858052168B0FBF1F04000EC
S31520254EC0E060DFF84C052168B0FBF1F04000206159
S31520254ED0DFF83C052168B0FBF1F040006061002039
S31520254EE02076002060760020A0760020E076F1BD91
S31520254EF070B40024436A012611F1080516FA05F532
S31520254F0033EA05051600F6B211F108039E402E4315
S31520254F10466270BC70472DE9F24F040015001E002D
S31520254F202000FFF70DFF002802D02069C00701D5F4
S31520254F30002040E0DDF800C05FF0FF315FF0070E6E
S31520254F404FF0FF0800205FF0000ABAF1080F24D29F
S31520254F50002922D000229146B9F5807F1AD2002930
S31520254F6018D0DFF8B02412F80AB019F1020202FB94
S31520254F700BFBB5FBFBF213009C4508D3BCEB0302C8
S31520254F8017008F4203D23900D646C846180019F194
S31520254F900109E1E71AF1010AD7E7D4F840B05FEA1B
S31520254FA01B2B5FEA0B2B08F0FF0252EA0B0BC4F8EA
S31520254FB040B0C6F800E0BDE8F28F1300DBB2012B26
S31520254FC004D014D3032B0DD005D310E0036C61F345
S31520254FD0174303640BE0036C23F07F4353EA0163F5
S31520254FE0036404E0036C61F30F230364FFE7704732
S31520254FF02DE9FF4F89B000260C98DFF81814099A59
S31520255000126EC2F3C262895CB0FBF1F75FF0FF3006
S315202550100090FF2003909DF82C00032825D1DFF84A
S31520255020F0835FF00009C246CB4602220023A2FB6D
S315202550300A0102FB0B1103FB0A113A00002300F09B
S31520255040E5FACDE9040140F201120023A2FB08016D
S3152025505002FB091103FB08113A00002300F0D6FABA
S3152025506080468946012002901CE0DFF8A4835FF064
S315202550700009404649463A00002300F0C7FACDE903
S3152025508004014FF480720023A2FB080102FB0911BB
S3152025509003FB08113A00002300F0B8FA804689461A
S315202550A000200290DDE904230A9800218B420BD3A8
S315202550B001D8824208D39DF82C2000210998FFF794
S315202550C07CFFDDE904013AE00026B6F5807F2FD264
S315202550D0009800282CD0DFF8382300230298801941
S315202550E0401C0021A0FB02AB00FB03BB01FB02BB3E
S315202550F0CDE906ABDDE906013A00002300F086FA64
S3152025510004000D000A9800218D420FD301D8844230
S315202551100CD321000A98091A0191019800998842F1
S3152025512004D2019800900396A046A946761CCCE782
S315202551309DF82C2003990998FFF73FFF40460DB08F
S31520255140BDE8F08F10B403009868002801D100200F
S3152025515024E01868002804D15868002801D10020A9
S315202551601CE0052A08D29868B0FBF2F402FB14004D
S31520255170002812D0002011E012F0030F04D09868E1
S3152025518090420AD0002009E09868B0FBF2F402FB91
S315202551901400002801D0002000E0012010BC704713
S315202551A02DE9F24F88B00600306E0005000D401C13
S315202551B003900398C01DC00802905FF0000A3000B6
S315202551C0FFF7DDFDDFF83812085C8DF80000029A1E
S315202551D003990898FFF7B6FF002801D1042008E196
S315202551E03000FFF791FDC00102D54FF4C87000E1CC
S315202551F00898056808984468089880680190089852
S3152025520087685FF000089DF800009DF8001050EA99
S3152025521001209DF8001050EA01409DF8001050EA23
S31520255220016005903000FFF771FD04900898C0684D
S31520255230C0F3031007900898C06810F48010000D5D
S315202552408DF8020000208DF801000898D0F80C90E2
S3152025525019F480095FEA9959012201213000FFF7C7
S3152025526073FDDFF83C133000FFF75EFD002C02D1DD
S3152025527001208DF8010000213000FFF737FD706AE7
S3152025528030F008007062706A10F04070069006981B
S31520255290B0F1807F03D00698B0F1007F0BD1002D89
S315202552A003D1706A50F080607062002D03D0002CE7
S315202552B001D004209DE001213000FFF717FD306E37
S315202552C030F04E709DF8021050EA41509DF801109D
S315202552D050EAC1400799090611F040710843306606
S315202552E00298052804D2DDF808A0DDF808B003E0E9
S315202552F05FF0040A5FF0040B0198002842D001983C
S315202553005146C9B2884201D2019882463000FFF71C
S3152025531003FD04998842F9D0002D0AD04A46D2B2F7
S315202553205146C9B2280000F077F805905046C0B2FC
S31520255330054405993000FFF71EFD01995046C0B258
S31520255340091A0191002CD7D03000FFF7E9FC002857
S31520255350D2D03000FFF711FD80465846C0B287428D
S3152025536001D2380083464B46DBB25A46D2B2414655
S31520255370200000F0B7F85846C0B204445846C0B2BB
S315202553803F1AE1E73000FFF7C7FC04998842F9D098
S31520255390306E30F480103066002C1FD0002F22D09E
S315202553A03000FFF7BDFC0028F8D03000FFF7E5FCDC
S315202553B080465846C0B2874201D2380083464B469E
S315202553C0DBB25A46D2B24146200000F08BF8584629
S315202553D0C0B204445846C0B23F1AE1E73000FFF771
S315202553E093FC4005FAD53000FFF78EFCC001FAD490
S315202553F0002009B0BDE8F08F0060CC405011252053
S31520255400F42727206C112520F7FFFFF820A1070078
S3152025541000CA9A3B4811252030B4040000200129D2
S3152025542006D05DD303291BD006D3042934D057E0D3
S3152025543023781800641C53E01300DBB2002B07D118
S315202554402578631C1C7855EA042528005C1C06E073
S3152025545025782D02641C23781D432800641C3FE0F3
S315202554601300DBB2002B0BD12578631C1C7855EA5B
S3152025547004255B1C1C7855EA044528005C1C0AE09B
S3152025548025782D04631C1C7855EA04255C1C237875
S315202554901D432800641C23E01300DBB2002B0FD10B
S315202554A02578631C1C7855EA04255B1C1C7855EA4F
S315202554B004455B1C1C7855EA046528005C1C0EE017
S315202554C025782D06631C1C7855EA04455B1C1C781B
S315202554D055EA04255C1C23781D432800641CFFE718
S315202554E030BC704710B4012A06D056D3032A18D0CB
S315202554F005D3042A2FD050E00170401C4DE01C0016
